:100000000C9456030C949D030C949D030C949D0337
:100010000C949D030C949D030C949D030C949D03E0
:100020000C949D030C949D030C946B1C0C94271C46
:100030000C94BE1D0C949D030C949D030C949D0385
:100040000C949D030C949D030C949D030C949D03B0
:100050000C949D030C949A1D0C949D030C949D0389
:100060000C949D030C949D030C949D030C949D0390
:100070000C949D030C949D030C949D030C949D0380
:100080000C949D030C949D030C949D030C949D0370
:100090000C949D030C949D030C949D030C949D0360
:1000A0000C949D030C949D030C949D030631FF0951
:1000B00074A1010975150026FF00952075088102BD
:1000C0000976150026FF00952075089102C00501EC
:1000D0000902A10185020901A100050919012908E8
:1000E00015002501950875018102050109300931C6
:1000F0001581257F95027508810609381581257FB0
:10010000950175088106050C0A38021581257F9531
:100110000175088106C0C005010980A10185031988
:10012000012AB700150126B700950175108100C09E
:10013000050C0901A101850419012AA00215012657
:10014000A002950175108100C005010906A1018575
:1001500006050719E029E7150025019508750181B5
:10016000020507190029EF1500250195F075018199
:10017000020508190129059505750191029501757A
:10018000039101C00660FF0961A101096215002603
:10019000FF009520750881020963150026FF009570
:1001A0002075089102C005010906A101050719E0A3
:1001B00029E715002501950875018102950175084B
:1001C00081010507190029FF150026FF0095067516
:1001D0000881000508190129059505750191029509
:1001E0000175039101C00000000000000000000044
:1001F00000000000000000000000000000000000FF
:10020000000000000000000000007E0F00D4FFFF8F
:10021000FFC70000007800000000000000002A2B4B
:1002200028000000000000000000000000000000A6
:100230000029000000002C1E34202122243426270F
:10024000252E362D3738271E1F2021222324252630
:100250003333362E37381F0405060708090A0B0CFE
:100260000D0E0F101112131415161718191A1B1C46
:100270001D2F3130232D350405060708090A0B0C04
:100280000D0E0F101112131415161718191A1B1C26
:100290001D2F3130354C44454255473A206469732F
:1002A00061626C65642E0A0044454255473A2065F8
:1002B0006E61626C65642E0A004F6E6573686F74C0
:1002C0003A206163746976653A2025640A000A0061
:1002D0002530325820006B6579626F6172645F72FD
:1002E00065706F72743A20005B735D000A00253000
:1002F000313662003A200025303258000A722F63EE
:100300002030313233343536373839414243444571
:10031000460A000A0025303258006B6579626F6129
:1003200072645F7365745F6C65643A2000290A002B
:100330002575002F002575005D280025640020002C
:10034000256400200025640020002564007C002531
:10035000303258006D6F7573656B6579205B627420
:100360006E7C782079207620685D287265702F6118
:10037000636C293A205B0029001E001F0020002129
:10038000002200230024002500260027002D002E37
:10039000002A002B0014001A000800150017001C8A
:1003A0000018000C00120013002F0030003100393B
:1003B0000004001600070009000A000B000D000EE3
:1003C000000F003300340000002800E1001D001B76
:1003D0000006001900050011001000360037003833
:1003E00000E50052004C00E000E300E20001510093
:1003F0000000002C00000000000000E6005000514A
:10040000004F0035003A003B003C003D003E003FFD
:10041000004000410042004300440045004C000100
:1004200000010001000100010001000100010001C4
:1004300000010001000100010001000100010001B4
:1004400000010001000100010001000100010001A4
:100450000001000100010001000100010001000194
:100460000001000100010001000100010001000184
:10047000004900010001000100010001000100012C
:100480000001000100010001004A0001004D0001CF
:100490000001000100010001000100010001000154
:1004A0000001000100010001000100010001000144
:1004B0000001000100010001000100010001000134
:1004C0000001000100010001000100010001000124
:1004D0000001000100010001000100010001000114
:1004E0000001000100010001000100010001000104
:1004F00000010001000100010001000100010001F4
:1005000000010001000100010001000100010001E3
:1005100000010001000100010001000100010001D3
:1005200000010001000100010001000100010001C3
:1005300000010001000100010001000100010001B3
:1005400000010001000100010001000100010001A3
:100550000001000100010001000100010001000193
:100560000001000100010001000100010001000183
:100570000001000100010001000100010001000173
:100580000001000100010001000100010001000163
:100590000001000100010001000100010001000153
:1005A000000100010001006164645F6B65795F62B6
:1005B00069743A2063616E2774206164643A20256F
:1005C0003032580A0064656C5F6B65795F626974EC
:1005D0003A2063616E27742064656C3A20253032BE
:1005E000580A005B435D005B445D005B535D005B4C
:1005F000575D005B525D0009027B00040100A0FA18
:100600000904000001030101000921110100012278
:1006100040000705810308000A09040100020300E5
:100620000000092111010001222200070582032098
:100630000001070503032000010904020001030073
:10064000000009211101000122B6000705840320E2
:10065000000A09040300020300000009211101003F
:10066000012222000705850320000107050503205C
:10067000000112010002000000086266143D010042
:10068000010200011603330064006F007200740061
:1006900068006F0031003400750000000A03780024
:1006A00069006100300000000403090411241FBE2A
:1006B000CFEFDAE0DEBFCDBF04B603FE27C08091E6
:1006C000580290915902A0915A02B0915B02873072
:1006D000904BA740B04BD1F410925802109259029F
:1006E00010925A0210925B0214BE84B7877F84BFB7
:1006F0000FB6F894A895809160008861809360009F
:10070000109260000FBEE0E0F8E3099511E0A0E070
:10071000B1E0E8E7F6E402C005900D92A636B10715
:10072000D9F722E0A6E6B1E001C01D92A835B207D4
:10073000E1F70E94E51D0C9403230C940000FF9345
:10074000EF93E0916601F0916701309709F0099508
:10075000EF91FF910895FC018591803011F0EFDF5A
:10076000FBCF0895FF27E0E230E247FF0CC0419540
:1007700097FF09C0EDE26095709580959095611D99
:10078000711D811D911D27FF02C0219530E350E2AC
:10079000AA27660F771F881F991FAA1FA41710F09A
:1007A000A41B63955A95A9F7AA3008F0A95FA05D2C
:1007B000AF93F395611571058105910541F7ED3210
:1007C00011F4EF93F395F21718F43F93F395FBCFE1
:1007D0008F91B5DFFA95E1F70895E991F991859147
:1007E000803021F0853219F0AADFF9CF089520E09A
:1007F000E89455915532C1F3503311F468945591F2
:100800005A3348F4505390F3220F022E220F220F36
:10081000200D250FF4CF0EF421958991999153362F
:1008200019F3533729F1533559F1BC01882799271A
:10083000E8945C3621F489919991689455915436E5
:1008400039F446EF7EF077FF0DC08FEF9FEF0AC0BF
:1008500055374AE039F0583540E121F0523642E050
:1008600009F00895FF93EF937DDFEF91FF91B7CFEC
:10087000FF93EF93FC0181918030B9F360DFFBCFF0
:10088000FF93EF9368DFF1CFDF93CF93CDB7DEB760
:100890002596A3DFCF91DF910895E8EDF0E0808108
:1008A0008E7F80831092E2001092DA001092E100B5
:1008B000A0EEB0E08C9181608C9380818F778083F3
:1008C00019BCA7EDB0E08C918E7F8C9380818F7ED8
:1008D00080831092250208952091E4003091E50074
:1008E00095E6A9012091EC00822F817020FF06C0BF
:1008F0008091E80080FF06C080E008952091E80024
:1009000022FD1AC080914A02882389F0853089F03F
:100910008091EB0085FD0FC02091E4003091E5004F
:1009200042175307F9F29150E1F684E0089582E00E
:10093000089583E0089581E00895EF92FF920F9368
:100940001F93CF937C018B010E946C04C82F8111EF
:1009500017C08091E80085FD0BC08091E8008E777C
:100960008093E8000E946C04882399F3C82F08C084
:10097000F70181917F018093F1000150110949F73E
:100980008C2FCF911F910F91FF90EF900895809140
:100990004C0287FF13C08091E80082FF06C080915F
:1009A000E8008B778093E80004C080914A028111AF
:1009B000F2CF089580914A028823D9F38091E8000C
:1009C00080FFF8CF8091E8008E77ECCF982F90933E
:1009D000E900242F762F50E0891731F07091EC0058
:1009E0002091ED005091F00021FD07C09F5F9730EE
:1009F00071F78093E90081E008953091EB003E7F2C
:100A00003093EB003091ED003D7F3093ED0030915D
:100A1000EB0031603093EB007093EC002093ED001D
:100A20005093F0002091EE0027FDE0CF80E0089584
:100A3000CF92DF92EF92FF920F931F93CF93DF93AA
:100A4000C8EDD0E088818F7E8883E7EDF0E080817B
:100A50008160808384E082BF81E080932502888169
:100A60008E7F888302EE10E0F80110821092DA0087
:100A700081EEC82ED12CF601108288818F77888371
:100A800088818068888388818F7D888319BC1092D3
:100A90004A0210924B02109249021092480290EEC4
:100AA000E92EF12CF70180818B7F80838881816022
:100AB000888342E060E080E00E94E604F6018081E5
:100AC0008E7F8083F801808181608083808188604F
:100AD0008083F70180818E7F808388818061888315
:100AE000DF91CF911F910F91FF90EF90DF90CF900A
:100AF0000895FC0180915202909153028617970746
:100B0000A0F06115710529F49091E8009E7790930B
:100B1000E80090E06115710551F4911108C08091D1
:100B2000E80082FF34C080E00895BC01F2CF8091DC
:100B30004A028823C1F18530C1F18091E80083FD2C
:100B400030C08091E80082FDEACF8091E80080FF0C
:100B5000E1CF8091F3002091F200382F61157105EB
:100B600019F02830310558F091E02830310509F0AE
:100B700090E02091E8002E772093E800CBCF819180
:100B80008093F100615071092F5F3F4FE7CF809153
:100B90004A02882341F0853041F08091E80083FFCC
:100BA000BECF81E0089582E0089583E0089508951E
:100BB0008091270208959C014FB7F8948091190203
:100BC00090911A02A0911B02B0911C024FBF821B90
:100BD000930B08952FB7F8948091190290911A02FF
:100BE000A0911B02B0911C022FBF08952091150205
:100BF000309116022817390771F0909316028093EE
:100C00001502E0911302F0911402309721F0008454
:100C1000F185E02D0994089520911102309112027E
:100C20002817390771F09093120280931102E09116
:100C30001302F0911402309721F00680F781E02D25
:100C400009940895E0911302F0911402309721F075
:100C50000190F081E02D099480E0089540910D020B
:100C6000803F59F480910E0287FF0DC010920E0252
:100C700041110BC01092060208C0813F81F480919F
:100C80000E0218169CF3442381F080910F0290917C
:100C90001002892B09F05AC0109204020895823F75
:100CA00049F447FFF0CF10920D0280910E0281119E
:100CB000ECCFE0CF833F19F41416ACF3E4CF90915E
:100CC0000F02893F29F41916F4F610920F02DBCFB8
:100CD0008A3F19F497FFD7CFF8CF909110028B3F3E
:100CE00029F497FFD0CF10921002CDCF8C3F19F48A
:100CF0001916CCF3C8CF9CE0980F953090F4845F20
:100D0000990B21E030E0B90102C0660F771F8A9588
:100D1000E2F7CB01809590910C02892380930C021D
:100D2000B2CF8D3F31F4809105028E7F8093050212
:100D3000AACF8E3F21F4809105028D7FF7CF8F3FA0
:100D400009F0A1CF809105028B7FF0CF08958091AB
:100D5000050280FD16C081FD16C082FD16C080917F
:100D600004028823A1F0883280F428E0829FC00129
:100D7000112468E270E00E947F22862F672B39F0F1
:100D8000089582E0089584E0089588E0089581E060
:100D900008958091050280FD14C081FD14C082FD7C
:100DA00016C080910602882381F0843180F422E30A
:100DB000829FC001112464E170E00E947F22862F8F
:100DC00008958CE0089589E1089585E0089582E30F
:100DD0000895803F31F40E94C906819580930E02E8
:100DE0000895813F19F40E94C906F8CF823F31F47B
:100DF0000E94C906819580930D020895833F19F4DE
:100E00000E94C906F8CF893F29F40E94A706809363
:100E10000F0208958A3F21F40E94A7068195F7CF1B
:100E20008B3F31F40E94A7068195809310020895AC
:100E30008C3F19F40E94A706F8CF9CE0980F9530DC
:100E400070F4845F990B21E030E001C0220F8A9595
:100E5000EAF780910C02822B80930C0208958D3F5B
:100E600031F48091050281608093050208958E3FE0
:100E700021F4809105028260F7CF8F3FB9F780910E
:100E800005028460F1CFF894E82FE295EF70F0E06E
:100E900031A1282F2F7081E090E001C0880F2A95A2
:100EA000EAF7982F9095932391A392A1892B82A37F
:100EB0007894089590911D0292FF06C0282F287102
:100EC0002830F9F4877F846093FF06C0282F2871AB
:100ED0002831F1F4877E846120911E0220FF06C034
:100EE000382F38713830D9F4877F816021FF06C0F0
:100EF000282F28712831D1F4877E816194FD877E67
:100F00000895282F24712430F9F68B7F8860DCCF78
:100F1000282F2471243101F78B7E8861DDCF382F93
:100F20003171313019F78E7F8860E0CF282F217121
:100F3000213121F78E7E8861E1CFCF93DF93EC01E1
:100F400082389105A9F1D8F58133910509F496C04D
:100F500048F58932910509F48AC08A9709F495C049
:100F6000C11521E5D20708F0BCC0C11530E5D30793
:100F700008F014C1C83ED10508F09CC0C03ED105A0
:100F800060F5C83AD10508F087C0C53AD10508F028
:100F9000FDC0C130D10509F12097F9F0C430D10569
:100FA000E0F440C08533910509F45AC0C997C1F6F1
:100FB00080911D02837089F0C0EED0E00EC0833EA8
:100FC000910599F170F4803E910501F1823E910501
:100FD00039F680911D0282FD21C0CE01DF91CF91B3
:100FE0000895863E910561F1873E910571F1843E39
:100FF000910509F0B5CF80911E0281FFEECF80915F
:101000001D02C7EED0E084FD0DC0E7CF80911D0228
:1010100080FD12C190911E0290FFDFCFC3EED0E0A1
:1010200084FFDBCFD0E0C0E0D8CF80911D0282FDED
:1010300006C190911E0290FDBFCF84FFCECFF2CFAC
:1010400080911D0283FDDDCFC8CF80911D0283FDFD
:10105000F9C090911E0291FFF0CFC4EED0E0BDCF59
:1010600080911D0285FFB9CFC9E2D0E0B6CF809153
:101070001D0285FFB2CFC5E3D0E0AFCF80911D0246
:1010800086FFABCFCAE2D0E0A8CF80911D0286FFD9
:10109000A4CFC1E3D0E0A1CFCF3BD10518F6C85A09
:1010A000D0E0CC0FDD1FC05FDE4F0990D881C02D8E
:1010B000D46493CFC11540E2D40758F4C11581E040
:1010C000D80708F08ACFC03FD10508F4ABCFD06570
:1010D00084CFC11590E4D90708F4A4CFDF70D06A9B
:1010E0007CCFC11525E5D20700F5C11534E5D3073E
:1010F00008F08AC0C11543E5D40708F071C0C115D6
:1011000082E5D80708F467C0CE018370992721E0F3
:1011100030E002C0220F331F8A95E2F7C695C695CC
:1011200080E2C89FE001112452C0C11599E5D9079A
:10113000A8F4C11528E5D20708F06BC0C11536E543
:10114000D30708F06FCF8C2F0E945A07C82FD0E02A
:10115000DC2FCC27CC27DF71D0623FCFC1154AE509
:10116000D40708F45BC0CE0190568115904208F078
:1011700059CF8D2F8F710E945A0790E0982F8827A2
:1011800088279F719C012C2BE901E6CFC55AD0E03E
:10119000C35FDE4FC881D0E0D0641FCFCE01E4E052
:1011A00096958795EA95E1F783702C2F26952695DD
:1011B000237040E2249F90011124382B8C2F8370E0
:1011C000C1E0D0E002C0CC0FDD1F8A95E2F7C22B50
:1011D000D32BDC6802CFDC2FCC27C16FD06AFDCEC9
:1011E000CE018370992721E030E002C0220F331F27
:1011F0008A95E2F7C695C69590E2C99FE001112451
:10120000C22BD32BDA68E9CEDC2FCC27C46FD06A8F
:10121000E4CEDC2FCC27C06FD06ADFCE8C2F8F704E
:101220000E945A0734E0D695C7953A95E1F7CF70FA
:101230009C2FEC01D069D1CEC9E3D0E0CECEC2EE76
:10124000D0E0CBCEC6EED0E0C8CE8091E0018111D7
:101250001092E001089580959091DF01982390937A
:10126000DF0108958091DB019091AA01981301C0DC
:1012700008958F5F8770FACF2EE0929F800D112422
:10128000982F977086958695869523E0829FF0012A
:101290001124E757FE4F50E040E080E0219130E01C
:1012A000092E02C0369527950A94E2F7217033275C
:1012B000042E01C0220F0A94EAF7822B4F5F5F4F82
:1012C0004330510559F708952EE0929F800D112467
:1012D000982F977041E001C0440F9A95EAF78695E0
:1012E0008695869593E0899FF0011124E757FE4F7C
:1012F00090E080E070E05191DF0111979B01082E92
:1013000002C0369527950A94E2F72170219525278A
:10131000242325272C9301968330910561F70895A6
:1013200081FF02C0889A089588980895829590E078
:101330009C01220F331F220F331F2C7C959587951C
:10134000959587958373282B30E0C901880F991FE5
:101350008A7A359527952575822B08959FB7F8943D
:10136000109223029FBF90914A02943009F048C026
:101370002091E9002F703091EC00932F917030FD97
:1013800090E8922B25E02093E9002091EB0020FFCC
:1013900034C02091EE0027FF30C02091220222238A
:1013A00021F02091E80025FF28C01092220226E0BB
:1013B0003091E80035FF14C08093F1008091E8007F
:1013C00085FD27C08091E80080FFFCCF8091E80078
:1013D0008E778093E8009F709093E90080E00895F5
:1013E00030914A02343049F43091EB0035FD05C0AC
:1013F000215041F481E0809322029F709093E90094
:101400008FEF0895EFE9FFE03197F1F700C000009A
:10141000CFCF8FB7F89421E0209323028FBFDBCF8B
:1014200080931F02709321026093200280914A02F0
:101430008430F9F48093E9008FEF9091E8008150B7
:1014400095FD06C095ED9A95F1F700008111F5CF55
:101450008091E80085FF0DC050E040E063E070E05F
:101460008FE192E00E949D048091E8008E77809346
:10147000E8000895BC0184E00C94100ABC0183E0EC
:101480000C94100A9C0184E08093E9009FEF809106
:10149000E800915085FD06C085ED8A95F1F70000C2
:1014A0009111F5CF8091E80085FF0CC050E040E03D
:1014B00066E070E0C9010E949D048091E8008E778B
:1014C0008093E8000895CF93DF93EC0180910C01A5
:1014D0008823B1F180911D0287FF32C060E284E071
:1014E0008093E9008FEF9091E800815095FD06C050
:1014F00095ED9A95F1F700008111F5CF8091E80004
:1015000085FF1BC080910C0170E050E040E081112C
:1015100004C050E040E068E070E0CE010E949D040D
:101520008091E8008E778093E80080E2FE01A8E2D7
:10153000B2E001900D928A95E1F7DF91CF91089585
:1015400068E081E0CDCF81E08093E00080E280938D
:10155000D8001092C9008FE19EE40197F1F700C016
:10156000000087E090EBDC018093580290935902D1
:10157000A0935A02B0935B0288E19CE00FB6F89406
:10158000A895809360000FBE90936000FFCF2091DC
:101590000C01222351F120911D0227FF26C0E62FC6
:1015A000E695E695E695EE3178F4E80FF92FF11D12
:1015B000677021E030E001C0220F6A95EAF72095BC
:1015C00082812823228308958091170280FF19C009
:1015D0001F926F9385EC95E09F938F930E94440434
:1015E0000F900F900F900F900895FC01329608967F
:1015F0002191621303C0DF0111971C92E817F907CC
:10160000B9F7089520910C01222349F120911D0280
:1016100027FF25C0E62FE695E695E695EE3170F4B6
:10162000E80FF92FF11D677021E030E001C0220FB3
:101630006A95EAF78281822B82830895809117024E
:1016400080FF1EC01F926F9387EA95E09F938F9350
:101650000E9444040F900F900F900F900895FC018A
:1016600032962FEF30E04191641751F02F3F19F47B
:10167000411101C0232F3F5F3630A9F72F3F09F4F6
:101680000895820F911D27FD9A95FC0162830895AC
:101690008091170283FF7EC084E593E00E94AB0334
:1016A00080910C021F928F938FE493E09F938F930E
:1016B0000E9444048DE493E00E94AB0380910D02EC
:1016C000282F082E000C330B3F938F938AE493E06E
:1016D0009F938F930E94440488E493E00E94AB039D
:1016E00080910E02282F082E000C330B3F938F930E
:1016F00085E493E09F938F930E94440483E493E0F6
:101700000E94AB0380910F02282F082E000C330B90
:101710003F938F9380E493E09F938F930E944404C0
:101720008EE393E00E94AB0380911002282F082ED5
:10173000000C330B3F938F938BE393E09F938F9336
:101740000E94440488E393E00E94AB038091060268
:101750001F928F9385E393E09F938F930E9444049D
:1017600083E393E00E94AB03809105021F928F9365
:1017700080E393E09F938F930E9444048DE293E073
:101780000E94AB038DB79EB74C960FB6F8949EBFE0
:101790000FBE8DBF0E94EA059C0190910D028091C1
:1017A0000E02982B21F030930A02209309029091A7
:1017B0000F0280911002982B21F0309308022093A1
:1017C0000702E0911302F0911402309749F082E091
:1017D00080930B020480F581E02D8BE092E0099468
:1017E0000895EF92FF920F931F93CF93DF93809111
:1017F000DF019091DE01892B9091DD01892B80938F
:1018000068019091E0019923B1F0892B80936801E0
:1018100080910C01882309F45DC080911D0287FF2F
:1018200059C08EE1EAE6F1E090E0815008F054C042
:1018300091110E942509E0911302F0911402309752
:1018400009F450C080910C01882359F080911D0249
:1018500087FF07C0809168018093690186E08093CB
:1018600068010280F381E02D88E691E0099580917E
:10187000170282FF37C080FF04C086ED92E00E940D
:10188000AB03C8E6D1E080E7E82E81E0F82E00ED5A
:1018900012E08091170280FF0BC088811F928F9306
:1018A0001F930F930E9444040F900F900F900F907E
:1018B0002196EC16FD0669F78091170280FF12C091
:1018C0008EEC92E0DF91CF911F910F91FF90EF90FE
:1018D0000C94AB0386E0A6CF2191222309F4A5CF77
:1018E0009F5FA3CFDF91CF911F910F91FF90EF905A
:1018F000089590E080E00E940C0690E080E00E9455
:10190000F6051092DE011092DD010E94F10B86E0D7
:10191000EBE0F2E0DF011D928A95E9F710920602F2
:1019200010920402109205020C94480B8093570207
:101930000C94790C80915702982F9670963019F478
:1019400088600C94960C877FFCCF21E030E001C0CA
:10195000220F8A95EAF720958091570282230C94F2
:10196000960C9091DC01809589238093DC01282FCF
:10197000277091F4282F082E000C330B92171306B2
:1019800059F090911E0292FD07C085958595859529
:101990000E94A50C1092DC01089521E030E001C006
:1019A000220F8A95EAF780915702822B0C94960CAD
:1019B0008093E1010C94790C882321F00E942B097B
:1019C0000C94F10B0895882339F09091DF01982B46
:1019D0009093DF010C94F10B0895882379F19CEF2B
:1019E000980F913A38F4682F88E691E00E94C70A70
:1019F0000C94F10B90E2980F983050F4877091E0BE
:101A000001C0990F8A95EAF7892F0E942B09F0CF20
:101A10009BE5980F933020F490E080E00C940C0646
:101A200098E5980F973120F490E080E00C94F6054B
:101A3000803F20F00E942E060C94480B0895CF930F
:101A4000C82F882309F46FC08CEF8C0F813AC0F542
:101A500080910C01882311F180911D0287FF1EC027
:101A6000EC2FE695E695E695F0E0E859FE4F828189
:101A700090E04C2F477021E030E002C0220F331F6E
:101A80004A95E2F782239323892B91F06C2F88E605
:101A900091E00E94C70A0E94F10B0AC0EAE6F1E059
:101AA00080E791E02191C21789F38E179F07D1F744
:101AB0006C2F88E691E00E94020BCF910C94F10B01
:101AC00080E28C0F883068F4C77021E030E001C0FC
:101AD000220FCA95EAF78091DF01822B8093DF0104
:101AE000ECCFEBE5EC0FE33040F4F0E0E35FFE4FCA
:101AF000808190E0CF910C940C06E8E5EC0FE73183
:101B000050F4F0E0EE0FFF1FE05FFE4F8081918107
:101B1000CF910C94F605C03F30F08C2F0E94E9065F
:101B2000CF910C94480BCF9108951F93CF93DF93DF
:101B3000182FD0E0C0E0893311F4C0E5D0E0812F48
:101B40000E941F0D209731F4812FDF91CF911F91BB
:101B50000C94ED0C8FE99FE00197F1F700C00000B5
:101B60002197F0CF0F931F93CF93DF93C62FD42FDE
:101B7000022FFC0182818823A1F0609356020E940B
:101B8000EA059093550280935402C77081E001C02A
:101B9000880FCA95EAF7DF91CF911F910F910C94AE
:101BA000E30C80915602681335C0809154029091E5
:101BB00055020E94DB05883C910560F510E21D0F7F
:101BC000CD17B9F080E28C0F883040F4C77081E007
:101BD00001C0880FCA95EAF70E94DC0C183048F45F
:101BE00081E09D2F977001C0880F9A95EAF70E94B7
:101BF000E30C802F0E94950D183098F4D77081E087
:101C000001C0880FDA95EAF7DF91CF911F910F910C
:101C10000C94DC0CC77081E001C0880FCA95EAF70C
:101C2000F3CFDF91CF911F910F910895CF93DF9361
:101C3000C7E5D2E060E0CE010E94C2222196C11524
:101C400084E0D807B9F7DF91CF9108956F927F9222
:101C50008F929F92AF92BF92CF92DF92EF92FF92BC
:101C60000F931F93CF93DF9387E7C82E83E0D82E7F
:101C70009FECE92EF12CE701CC58D10936011BC0AD
:101C8000F50185909490692DC8010E94C222682DAB
:101C9000C80101960E94C22282E0A80EB11C0E5F0C
:101CA0001F4FC017D10761F78CE1680E711C6C964D
:101CB000CE15DF0529F08E010C5111095301E0CF3B
:101CC0007E018CE8E80EF11C8CE8C80ED11C8FEF69
:101CD000E81682E0F80679F6DF91CF911F910F9117
:101CE000FF90EF90DF90CF90BF90AF909F908F903C
:101CF0007F906F900895CF93C82F6FEF811162E2AC
:101D000083E290E00E94C2226FEFC11162E084E2A0
:101D100090E00E94C2226FEFC11163E185E290E082
:101D2000CF910C94C22280E00E947B0E60E086E29C
:101D300090E00E94C2220E94260E0E94160E81E0B0
:101D40000C947B0ECF93DF93D82FC0911E02C2FB61
:101D5000882780F98D1711F1D0FBC2F9C0931E02BC
:101D600060911D0284E090E00E94C2226C2F82E20A
:101D700090E00E94C22282E00E94B10C8091170282
:101D800080FF0CC01F92DF9389EB92E09F938F93AB
:101D90000E9444040F900F900F900F90DF91CF910D
:101DA00008950F931F93CF93DF93C42FD0E0CC0FF0
:101DB000DD1F2CE1629FC00DD11D11243CE8839FE3
:101DC000C00DD11D1124CE0187960E94B422082F88
:101DD00010E0102F0027CE0188960E94B4229801AF
:101DE000282BC901DF91CF911F910F910895462FA4
:101DF000843038F4753028F46E3018F4672F0C9462
:101E0000D10E90E080E00895CF92DF92FF920F9381
:101E10001F93CF93DF936C01009157028091E101F2
:101E2000082BC7E0D0E010E0FC2EC8010C2E02C049
:101E3000959587950A94E2F780FD0CC02197A0F74D
:101E4000F12C8F2DDF91CF911F910F91FF90DF909B
:101E5000CF900895B6018C2F0E94F70E0E949D0727
:101E6000019761F3EECFCF93DF93EC010E94040F53
:101E7000BE010E94F70EDF91CF910C949D07FC01EB
:101E8000808191810E94330F292F2F7092959F702E
:101E900092509E3078F4E92FF0E0EB5FFC4D0C940B
:101EA0009322803F19F020F4883E20F481E00895C9
:101EB000843FE1F380E00895883EC0F3813FD1F78D
:101EC000F5CF822F869586958695089583E290E0DA
:101ED0000E94B422823289F484E290E00E94B4220B
:101EE000823059F485E290E00E94B42291E083317F
:101EF00009F090E0892F8170089580E0FCCFCF93A6
:101F000084E090E00E94B422C82F82E290E00E9418
:101F1000B422982F8C2FCF9108951092DF018091D9
:101F20000C01EAE6F1E0882359F080911D0287FF59
:101F300007C08EE1DF011D928A95E9F70C94790CB8
:101F400086E0F8CF1F93CF93DF93CDB7DEB7AA9784
:101F50000FB6F894DEBF0FBECDBF8CE492E02091A7
:101F6000F100DC012D93CD01B2E084359B07B9F778
:101F700080914D02833009F472C0B8F4813009F4C5
:101F800049C0823009F4B3C08091E80083FF91C258
:101F900080914C0290914D029A3008F08AC2E92F4C
:101FA000F0E0ED5EFC4D0C9493228A3009F48EC073
:101FB0008B3009F471C0893039F780914C0281323D
:101FC00019F78091500290915102009711F00297F9
:101FD000D9F68091E800877F8093E8008091E8003F
:101FE00082FF38C09091F3008091F200029731F4A3
:101FF0008091F100813011F0863021F48091F10060
:10200000809327028091E8008B778093E8000E94FC
:10201000C704BACF80914C02813A09F0B5CF8091C4
:10202000E800877F8093E8008091500290915102F0
:10203000892B61F460E288E292E070E00E94790509
:102040008091E8008B778093E8009ECF60E090E07D
:1020500080E0F3CF80914A028111C0CF95CF80916B
:102060004C02813A09F090CF809150029091510238
:10207000892B09F089CF8091E800877F8093E80061
:102080008091E80080FFFCCF80910C018093F100EB
:102090008091E8008E77B9CF80914C02813209F0AF
:1020A00073CF8091500290915102892B09F06CCF2F
:1020B0008091E800877F8093E8000E94C7048091A8
:1020C0004E0280930C010E948D0F5ECF80914C02D6
:1020D000813209F059CF8091E800877F8093E80032
:1020E0000E94C70480914F02809326024DCF8091B9
:1020F0004C02813A09F048CF8091E800877F8093B5
:10210000E8008091E80080FFFCCF80912602BECFDE
:10211000803899F0823809F0CCC1809150028F70DC
:10212000873008F0C6C18093E9008091EB0085FB01
:10213000882780F91092E90006C0809148029091AA
:102140004902911182609091E800977F9093E80096
:102150008093F1001092F1008091E8008E77A5C184
:10216000882309F493C1823009F0A3C180914E0203
:10217000811196C1809150028F702FEF280F263069
:1021800008F097C18093E9002091EB0020FF88C1FF
:10219000933031F48091EB0080628093EB0080C13A
:1021A0009091EB0090619093EB0021E030E001C052
:1021B000220F8A95EAF72093EA001092EA008091B4
:1021C000EB008860EACF811174C110914E021F7735
:1021D0008091E3008078812B8093E3008091E80078
:1021E000877F8093E8000E94C7048091E80080FF09
:1021F000FCCF8091E30080688093E30082E01111BE
:1022000083E080934A0255C18058823008F051C162
:1022100020914E0230914F022C3DE3E03E07A1F5A4
:1022200083E08A838AE289834FB7F894DE011396AC
:1022300020E03EE051E2E32FF0E050935700E491BC
:1022400020FF03C0E295EF703F5FEF708E2F90E0AC
:10225000EA30C0F0C7968D939D932F5F243159F7D4
:102260004FBF8091E800877F8093E8006AE270E0CA
:10227000CE0101960E9479058091E8008B778093CA
:10228000E80017C1C096E7CF8091500290915102AB
:10229000432F55274330510509F44AC078F54130A2
:1022A000510509F47AC08BE790E0E7EFF5E04230A2
:1022B000510509F0FEC02091E800277F2093E80037
:1022C00020915202309153028217930708F49C0127
:1022D00040E02115310509F065C0411163C08091CE
:1022E000E80082FDC9CF80914A02882329F2853017
:1022F00019F28091E80083FFF2CFBECF4132510541
:1023000009F43CC04232510509F0D3C08430910534
:1023100008F0CFC0FC01EE0FFF1FEB5AFE4F0190FB
:10232000F081E02D8F5A9E4FDC018C9190E01AC015
:10233000332721303105D1F02115310561F02230EC
:10234000310509F0B6C0E4E8F6E0E4918E2F90E0A4
:10235000E4E8F6E007C0E8EAF6E0E4918E2F90E0CA
:10236000E8EAF6E0009709F4A4C0A5CFECE9F6E0AE
:10237000E4918E2F90E0ECE9F6E0F4CF8430910503
:1023800008F097C0880F991FFC01E35AFE4F019097
:10239000F081E02D89E090E08ECF82E190E0E2E7ED
:1023A000F6E089CF80914A02882309F465CF853011
:1023B00009F462CF8091E80083FD5ECF8091E80050
:1023C00082FD8DCF8091E80080FF83CF9091F30054
:1023D0008091F2002115310519F08830910550F0F7
:1023E00041E0089709F040E08091E8008E77809303
:1023F000E8006FCF44914093F100319621503109AC
:102400000196E8CF803809F054C08091E800877FBA
:102410008093E80080914B028093F1009DCE811162
:1024200048C010914E02123008F043C08091E8007D
:10243000877F8093E80010934B020E94C70411230A
:1024400011F084E005C08091E30087FDFACF81E0C0
:1024500080934A0242E061EC81E00E94E60442E29D
:1024600061EC84E00E94E60442E261EC82E00E94BA
:10247000E60442E260EC83E00E94E60442E261ECA2
:1024800085E00E94E60480914A0213C080914E02CA
:10249000813079F481E0933009F080E08093490243
:1024A0001092E9008091E800877F8093E8000E9405
:1024B000C7048091E80083FF0AC08091E800877F0D
:1024C0008093E8008091EB0080628093EB00AA96F5
:1024D0000FB6F894DEBF0FBECDBFDF91CF911F9135
:1024E00008954F925F926F927F928F929F92AF92D8
:1024F000BF92CF92DF92EF92FF920F931F93CF93F1
:10250000DF93CDB7DEB72A970FB6F894DEBF0FBEC4
:10251000CDBF8E010F5F1F4F8AE0F80111928A959F
:10252000E9F79EE3E92E91E0F92E680123E4422EBB
:1025300021E0522E66246394712C41E5842E41E003
:10254000942EF70181917F018F3F09F445C0F894E3
:10255000E82FE295EF70F0E021A18F70A30102C097
:10256000440F551F8A95E2F7CA01922F982B91A329
:1025700092A18095892382A3789400C0E3E4F1E0DE
:1025800021E030E0B12CA12C41914F3F09F47EC0F5
:10259000A42FA295AF70B0E090968C9190E04F7010
:1025A00002C0959587954A95E2F780FD6FC0C901F5
:1025B000A82AB92A220F331F8E169F0629F7F70182
:1025C000319780818F3F11F00E94430750EA5A955E
:1025D000F1F7F601B182A082F2E0CF0ED11C4E14C9
:1025E0005F0409F0AECF4AE050E0B80185EE91E01B
:1025F0000E94F622FF24F394009709F4F12C892B12
:1026000009F447C08AE0F801A5EEB1E001900D920F
:102610008A95E1F781E08093E4010E94EA059093B6
:10262000E3018093E2018091E2019091E3010E9435
:10263000DB05059790F18091E5019091E60190937B
:10264000FB018093FA018091E7019091E80190935A
:10265000FD018093FC018091E9019091EA01909342
:10266000FF018093FE018091EB019091EC0190932A
:102670000102809300028091ED019091EE01909310
:102680000302809302021092E40107C090E080E010
:102690008FCF8091E4018111C6CF8F2D2A960FB67E
:1026A000F894DEBF0FBECDBFDF91CF911F910F9188
:1026B000FF90EF90DF90CF90BF90AF909F908F9062
:1026C0007F906F905F904F90089569EE7EEF90E05D
:1026D00080E00E94E02260E082E090E00E94C2225E
:1026E00060E083E090E00E94C2221092E10160E08D
:1026F00084E090E00E94C22260E082E290E00E94CA
:10270000C22260E085E090E00E94C22260E086E0A4
:1027100090E00E94C2226FEF87E090E00E94C22208
:1027200040E050E0BA0188E090E00E94D42260E0EE
:102730008DE090E00E94C22240E050E0BA0188E1C2
:1027400090E00E94D42260E087E190E00E94C222E3
:1027500040E050E0BA018CE190E00E94D42270E0A9
:1027600060E080E290E00E94E02240E050E0BA01A8
:1027700088E190E00E94D42280E00E947B0E0E94BB
:10278000930E40E050E0BA018FE090E00E94D42226
:1027900040E050E0BA0183E190E00C94D4223F92F3
:1027A0004F925F926F927F928F929F92AF92BF9261
:1027B000CF92DF92EF92FF920F931F93CF93DF930D
:1027C00000D000D00F92CDB7DEB78C01FC01838121
:1027D0009481892B31F08081918189238F3F09F089
:1027E00081C50F900F900F900F900F90DF91CF91B8
:1027F0001F910F91FF90EF90DF90CF90BF90AF901F
:102800009F908F907F906F905F904F903F90089532
:102810000E94040FF82E682F89819A810E94640912
:1028200069817A818F2D0E94F70E7C01F8018281E7
:10283000882309F44AC5970122513F4520313105CB
:1028400008F016C58FEF93E00E94B422FEEEEF0E63
:1028500057E5852E52E0952E8823A1F18091DC0169
:10286000877009F4BECFF8018281882309F4B9CFBB
:1028700080911E0282FDB5CF82E00F900F900F90E5
:102880000F900F90DF91CF911F910F91FF90EF90DC
:10289000DF90CF90BF90AF909F908F907F906F9080
:1028A0005F904F903F900C94B10C811424E09206FD
:1028B000A9F2C4010E94B422811101C0EA943FEF41
:1028C000831A930AE110F1CF1C821B8244244394A3
:1028D0004AE0342E74018FEFE81AF80AC4010E940E
:1028E000B42289831A82882309F4B8CF9FEF980F06
:1028F000933000F58A83498292E0890E911CC701CA
:102900000E94B4228B83882309F4A8CFFE0131965C
:102910007F01F70120812223E9F2213009F049C02B
:1029200091818281913041F4F2E0EF0EF11C0E941E
:10293000950D09C04701EACF923049F422E0E20E3A
:10294000F11C0E941F0D3FEFE31AF30AE2CF933010
:1029500031F432E0E30EF11C0E94ED0CF4CF943020
:1029600021F08FEFE81AF80AEECF92E0E90EF11CA1
:1029700030E020E0B7016F5F7F4FF7014181805366
:10298000990B8A30910550F021503109E0F28FE91E
:102990009FE00197F1F700C00000F6CF329EF001F2
:1029A000339EF00D11249C012E0F3F1F842F7B01BD
:1029B000E1CFE22FF0E0EA5EFD4F5490822F869542
:1029C0008695869590E0FC01EA5FFD4F6490277044
:1029D000712C022E02C0759467940A94E2F7E1E02C
:1029E0006E227724FC01EA50FE4FA490B12C022EF7
:1029F00002C0B594A7940A94E2F7F1E0AF22BB2499
:102A0000FC01EA51FE4FC490D12C02C0D594C7946A
:102A10002A95E2F721E0C222DD246114710419F045
:102A200081EE0E941F0DA114B10419F086EE0E94E0
:102A30001F0D852D0E94950DAB2819F086EE0E9482
:102A4000ED0C672819F081EE0E94ED0CCD2809F4F9
:102A50007ACF8CE26CCF81E00E94CD0C0E949A0C60
:102A6000FDCE81E00E94A50CF9CF82E0F5CF95EF75
:102A7000E9169CE5F90609F46AC008F464C027E287
:102A800045EE66EEF6EFEF16FCE5FF0609F419C415
:102A9000882309F438C41092560223E0E2162DE58B
:102AA000F20608F05BC03AEFE3163CE5F30630F4BB
:102AB000C70182509C45449708F056C00E947F0F82
:102AC00090931E0280931D0290E1E9169CE5F906A1
:102AD00009F433C108F0A5C0F8E0EF16FCE5FF06E5
:102AE00009F41DC108F06EC034E0E3163CE5F306BE
:102AF00009F407C108F050C092E0E9169CE5F90618
:102B000009F4F9C080911D028260E3E0EE16ECE565
:102B1000FE0609F4F3C060911D02F0901E0284E0ED
:102B200090E00E94C2226F2D82E290E00E94C222B9
:102B30000E948D0F93CE27E245EE65EEC2C326E2DA
:102B400041EE60EEBEC327E245EE64EEBAC326E274
:102B500041EE62EEB6C328E241E0EFCF81E6E8162F
:102B60008DE5F80609F4AACFF6E1EF16FCE5FF06BD
:102B700009F0D9C38091DF018A7A91E009F490E0ED
:102B80009093880169E2811165E388E691E00E94F3
:102B9000020B0E94F10B62CE80911D028061F6E073
:102BA000EF16FCE5FF0609F4A9C080911D028860BC
:102BB00027E0E2162CE5F20608F4A0C080911D0281
:102BC00080629CC080911D028D7F3CE0E3163CE555
:102BD000F30609F493C078F480911D028C609AE0AA
:102BE000E9169CE5F90609F489C008F49CC08091B7
:102BF0001D028E7F83C080911D02877FFEE0EF164D
:102C0000FCE5FF0609F47AC080911D028B7F2FE05E
:102C1000E2162CE5F20608F471C080911D028F7E49
:102C20006DC03CEFE3163CE5F30609F482C0A0F565
:102C300094E1E9169CE5F90609F493C098F4F2E1F1
:102C4000EF16FCE5FF0609F47CC080911D028F7B26
:102C500023E1E2162CE5F20608F450C080911D0233
:102C6000837F4CC03AEFE3163CE5F30609F44DC010
:102C700008F051C095E1E9169CE5F90609F04BCF43
:102C800080911D0282FB992790F921E0922790FB09
:102C900082F990FB83F932C0E114EDE5FE0609F4F8
:102CA00056C0A0F480911E0283602EEFE2162CE540
:102CB000F20671F180911E028D7F3FEFE3163CE535
:102CC000F30630F180911E028C7F22C082E0E8166C
:102CD0008DE5F80609F454C008F44CC0E1E6EE16A0
:102CE000EDE5FE0609F017CF90911D02892F8F7E2A
:102CF00094FF806103C080911D02816080931D025A
:102D00000ACF80911D028460F9CF80911E028160FC
:102D100080931E0200CF80911E028260F9CF8091C5
:102D20001D028064EBCF0E948D0F80911D02806890
:102D3000E5CF80911E028E7FEBCF80911D028F7DAB
:102D4000DDCF0E948D0F80911D028F77D7CF8091AC
:102D50001E02982F909591708E7F892B90FB81F9A0
:102D6000D7CF0E948D0F90911D02892F97FB87F975
:102D70008058C4CF61E08EE090E00E94C222CBCEAA
:102D800060E0F9CF0E948D0F2FEF34E38CE02150EB
:102D900030408040E1F700C000000E94A30A86E9AD
:102DA00092E0DFC20E94651359CD80911E0282FB22
:102DB000882780F991E089270E94A20EF80182817C
:102DC000E080F180882309F443C0C7010E94040F0A
:102DD000D82E682FC7010E946409B7018D2D0E946B
:102DE000F70E0E949D077C01882EF801D280B580E5
:102DF000B2943FE0B3228091DC018770C1F0AD2C2A
:102E0000DD20B1F08F2D807F803421F080E28E0DA7
:102E1000883068F080911E0282FD09C082E00E9425
:102E2000B10C8091DC018770AA24A3948111A12C9C
:102E30009F2C92942FE09222FBE0F91508F478C0C1
:102E4000E92DF0E0E35EFC4D0C94932280E0B4CFDA
:102E5000C7010E943C09D82EC0CF2F2D2F70C22E43
:102E60008F2D807F19F0C29490EFC922DD20B9F038
:102E7000CC2069F080E28E0D883010F0811009C0FE
:102E80008091DF01C82AC092DF010E94F10B8E2DD4
:102E90004DC08091DE01C82AC092DE01F6CF8E2D92
:102EA0000E94ED0CCC2009F443C080E28E0D8830E6
:102EB00010F0811004C08C2D0E942B0906C0C09414
:102EC0008091DE01C822C092DE010E94F10B30C069
:102ED0003F2D3F70C32E8F2D807F803219F0C2941A
:102EE00080EFC822882089F081E0881609F481C02B
:102EF000DD2009F48BC0BB2009F481C0F801858175
:102F000080FFC5CF8F7085837AC020911E0222FF7B
:102F10004DC0DD2009F444C0CC2039F08091DF01A0
:102F2000C82AC092DF010E94F10B80E00E941F0DB1
:102F3000292D2850330B2430310520F40E9422061D
:102F40000E949009AA2009F44CCC8091DC0180FDFC
:102F500048CCF80112828595859585950E94CD0C07
:102F6000C8010E94CF138091DC01859585958595D8
:102F70000F900F900F900F900F90DF91CF911F91B6
:102F80000F91FF90EF90DF90CF90BF90AF909F9008
:102F90008F907F906F905F904F903F900C94A50C16
:102FA00080E00E94ED0CCC2019F285CFDD20A1F04D
:102FB0009091E0018C2D892BB11003C00E94E30C8D
:102FC000B7CFE1E0BE12FACF22FDB2CF981709F4D5
:102FD000AFCF8093E001ACCFB11006C00E942509AD
:102FE0008C2D0E94DC0CA4CFF1E0BF1609F4A0CF19
:102FF000F5CFDD2031F025E02B1508F499CF8C2D8D
:10300000DDCF34E03B1508F493CFEACFBB2041F38A
:10301000F9E38F1209C02FEF37EE83E021503040E3
:103020008040E1F700C000008E2D0E94ED0C80CFA3
:103030008F2D86958695837061F0813009F078CF69
:10304000C7019370D11002C090E080E00E94F605A5
:103050006FCFC7019370D11002C090E080E00E9452
:103060000C0666CF8E2DDD2029F00E94E9060E9415
:10307000480B5ECF0E942E06FACF8F2D837091F5FC
:10308000D11056CF4E2D429546954770440F440FB0
:103090008E2D8F70042E01C0880F0A94EAF72E2D12
:1030A0002071E4FE07C02FE030E001C0220F4A95F6
:1030B000EAF720953F2D369536953370323069F01A
:1030C00050F44091E101313029F0822B84230E9499
:1030D000D80C2ECF842B822BFACF282B8091E101A4
:1030E0008227F5CF8695DD2011F08F2D8170882302
:1030F00009F41ECF4E2D429546954770440F440F5C
:103100008E2D8F70042E01C0880F0A94EAF72E2DA1
:103110002071E4FE07C02FE030E001C0220F4A9585
:10312000EAF720953F2D369536953370323069F0A9
:1031300050F440915702313029F0822B84230E94B1
:10314000960CF6CE842B822BFACF282B8091570237
:103150008227F5CF9F2D9F70F92EDD2029F0892F32
:103160000E94CD0C8E2D2ACF8E2D0E94DC0C8F2D2F
:103170000E94A50CDDCE8E2DE2EF8E16B1F1E81582
:1031800070F0F0EF8F16D1F021EF821691F0DD2074
:1031900009F45EC0B1107BCE8F2D8F712AC033EF42
:1031A000831651F194EF8912F2CF80911E0282FFB3
:1031B0002FC08F2D8F71DD20D9F21BC0DD2081F053
:1031C000E4E0EB1508F4B4CE2F2D2F7181E090E0F0
:1031D00001C0880F2A95EAF7909157028927AFCF4F
:1031E000F5E0FB1508F4A4CEEFCF8F2D8F71D11031
:1031F000BFCF0E94CD0C9CCE80E0DD2009F49FCF94
:103200009F2D9F7181E001C0880F9A95EAF797CFB3
:10321000DD2099F02F2D2F71F22E822F0E94CD0CE0
:1032200080911E0282FD07C038E0F39EC001112488
:1032300083608093DC018F2DDCCF81E00E94B10C94
:1032400081E08B1508F074CE82E00E94B10C70CE44
:10325000BB2059F0893309F0E7CE9FEFE7EEF3E0AA
:103260009150E040F040E1F7DDCE8F2D8F7180CF9F
:10327000F0E1EF16FFE5FF0609F4EDCB21E1E216E0
:103280002FE5F20609F4F1CB93EFE9169CE5F90678
:1032900009F455CC08F0EBCBF8EDEF16FCE5FF0692
:1032A00009F449CC29EDE2162CE5F20609F453CCD9
:1032B00037EDE3163CE5F30609F0EACB26E241EEF2
:1032C00061EEC8010E94B20DC9CA30E1E3163FE5C4
:1032D000F30609F4C6CB91E1E9169FE5F906A1F6DC
:1032E00082E0C0CB85E0DE01119601900D928A95B7
:1032F000E1F7F801228189819A81211189CA0E940E
:103300003C09F82E8DCAF6E1EF16FCE5FF0609F040
:1033100055CD8091880169E2811165E388E691E0ED
:103320000E94C70A36CC2EEDE2162CE5F20609F40F
:1033300039CDD0F4E1148CE5F80609F423CD91E001
:10334000E9169CE5F90609F039CD90911702892F0D
:103350008E7F90FF81608093170280FF20CD88EAE6
:1033600092E00E94AB037ACAEBE5EE16EDE5FE06AD
:1033700009F46CCDFCE5EF16FDE5FF0609F415CD6B
:103380002AE5E2162DE5F20609F018CD81E014CD0C
:103390001F93CF93DF938091A901807FA9F480913F
:1033A000A601882389F08091DB01D091AA01609168
:1033B000A4017091A501A091A701B091A801C62F09
:1033C000C72316E0D81304C0DF91CF911F91089551
:1033D00090E0109711F0CF3F19F401968770F2CF6B
:1033E000189F9001199F300D1124F901E555FE4FEA
:1033F00041814713F2CF40814613EFCF4281411103
:10340000ECCF438154814A1B5B0B483C510528F7A4
:103410008091A9018F7080618093A901F901E05525
:10342000FE4F80818F708061808384EA91E00E94EA
:10343000CF13DF91CF911F910C943209AF92BF92BD
:10344000CF92DF92EF92FF920F931F93CF93DF9370
:10345000CDB7DEB761970FB6F894DEBF0FBECDBF14
:103460008C0185E0F801DE011D9601900D928A9590
:10347000E1F7F801E28084EAA82E81E0B82E60919D
:10348000A7017091A8016115710509F432C19091ED
:10349000A4014091A501892F84238F3F09F429C1FC
:1034A00020813181C380D480F090A601F601E61B13
:1034B000F70BFF2009F4E8C08091A901582F507F35
:1034C000E83CF10508F0ABC0511177C0FE2C431366
:1034D00021C092131FC0E1101DC08F7080618093C6
:1034E000A901C5010E94CF138091A901F80185832C
:1034F0008F2D61960FB6F894DEBF0FBECDBFDF9162
:10350000CF911F910F91FF90EF90DF90CF90BF90E0
:10351000AF900895CD2829F0822F83238F3F09F0A3
:1035200003C180E0F82FF170DF2E80FF3CC0809156
:10353000DB014091AA0156E0841315C02D873E8718
:103540008D859E850E94330F292F22952F70223062
:10355000F0F0243018F59F70F1F0F8019581907F1C
:10356000D1F4D12C1EC090E0589FF001599FF00D6E
:103570001124E555FE4F6181361306C06081261384
:1035800003C06281E6120FC001968770D5CF9F708D
:1035900011F0882331F3805E883018F3C8010E944F
:1035A000CF13FD2CA5CFEE2009F4A2CF8091A90165
:1035B00081608093A901F12C9BCF431306C0921325
:1035C00004C0F801EE2009F479C0C8010E943F0F41
:1035D000882309F1EE20F9F08091A901803270F082
:1035E0002091A4013091A50138872F831986DB86AD
:1035F000CA868C87CE0107960E94CF1386E0F80119
:10360000A4EAB1E001900D928A95E1F70E94C819F1
:10361000FF24F3946DCFC8010E94CF13F9CF51114D
:103620000AC084EA91E00E94CF1386E0F50111926E
:103630008A95E9F7C0CF43130FC092130DC0E11074
:103640000BC0F8018583C8010E94CF1386E0F50105
:1036500011928A95E9F74CCFC8010E943F0F882349
:10366000D1F2EE20C1F28091A901803238F220918E
:10367000A4013091A5013A8329831B82DD82CC828B
:103680008E83CE010196B8CFE83CF105F8F6FE2C0A
:10369000EE2009F243131FC092131DC08091A901AF
:1036A00080FD10C0982F907F69F0F8018583903FCE
:1036B00031F0982F907F905F8F70892B8583C801A0
:1036C0000E94CF1386E0F801A4EAB1E001900D92C8
:1036D0008A95E1F70DCFC8010E943F0F81118ECF6F
:1036E0008091A90181608093A901C8010E94CF1334
:1036F000FFCEEE2009F48FCFC8010E943F0FF82EB5
:10370000882309F488CF86E0F801A4EAB1E00190AB
:103710000D928A95E1F78091A4019091A5010E94F4
:10372000330F0E94C819E4CE81E08E25FBCE1F9393
:10373000CF93DF93CDB7DEB767970FB6F894DEBFB0
:103740000FBECDBF4B8B5C8B6D8B7E8B8F8B6111D6
:103750001092DE011A8A198A85E0FE017396DE0155
:103760001D9601900D928A95E1F786E0FE013D9647
:10377000DE01179601900D928A95E1F7CE0107962A
:103780000E941E1A882389F016E08091DB01909137
:10379000AA01891349C067960FB6F894DEBF0FBE21
:1037A000CDBFDF91CF911F91089586E0FE0137963E
:1037B000DE01119601900D928A95E1F78A859B852D
:1037C000892B11F38F81988589238F3FE9F220910E
:1037D000AA0130E0C9010196877099274091DB0169
:1037E0004817190671F40E948D0F1092AA011092C9
:1037F000DB0186E0E4EAF1E0DF011D928A95E9F75A
:10380000C3CF96E0929FD001939FB00D1124A55590
:10381000BE4FFE01319601900D929A95E1F780938B
:10382000AA010E943209B0CF819FC00111248555A1
:103830009E4F0E941E1A882309F4ADCF8091DB01B0
:1038400090E00196877099278093DB019ECF1F92AD
:103850000F920FB60F9211242F933F934F935F93C4
:103860006F937F938F939F93AF93BF93CF93DF9388
:10387000EF93FF93D091E900DF708091EC00C82FA7
:10388000C17080FDC0E81092E9008091F000877F50
:103890008093F00078940E94A20F1092E90080912A
:1038A000F00088608093F000CD2BCF70C093E900CA
:1038B000FF91EF91DF91CF91BF91AF919F918F9148
:1038C0007F916F915F914F913F912F910F900FBE1C
:1038D0000F901F9018951F920F920FB60F92112400
:1038E0002F933F934F935F936F937F938F939F9308
:1038F000AF93BF93EF93FF938091E10082FF15C0D8
:103900008091E20082FF11C08091E1008B7F809363
:10391000E100209124022F5F822F62E30E94732234
:10392000992309F4C0C0209324028091DA0080FF1B
:1039300028C08091D80080FF24C08091DA008E7F5B
:103940008093DA008091D90080FFE3C080E189BDD7
:1039500082E189BD09B400FEFDCF81E080934A0277
:1039600083EE95E00E94AB0380912502811109C08E
:103970000E944D040E9418058091E20084608093AB
:10398000E2008091E10080FF1BC08091E20080FF97
:1039900017C08091E2008E7F8093E2008091E20068
:1039A00080618093E2008091D80080628093D8008B
:1039B00019BC85E080934A028BEE95E00E94AB0330
:1039C0008091E10084FF2FC08091E20084FF2BC032
:1039D00080E189BD82E189BD89B5982F917080FF12
:1039E000FBCF8091D8008F7D8093D8008091E1003B
:1039F0008F7E8093E1008091E2008F7E8093E200D1
:103A00008091E20081608093E20080914B028823E4
:103A100009F489C084E080934A028FEE95E00E9409
:103A2000AB0380914A028091E10083FF2BC080911B
:103A3000E20083FF27C08091E100877F8093E1004F
:103A400082E080934A0210924B028091E1008E7FC7
:103A50008093E1008091E2008E7F8093E20080916C
:103A6000E20080618093E20042E060E080E00E943A
:103A7000E6048091F00088608093F00083EF95E089
:103A80000E94AB03FF91EF91BF91AF919F918F91F6
:103A90007F916F915F914F913F912F910F900FBE4A
:103AA0000F901F9018951092240280912302882372
:103AB00009F43BCF80914A028430C1F49091E9002F
:103AC0009F702091EC00822F817020FD80E8892B6F
:103AD00095E09093E9009091EB0090FF04C09091E5
:103AE000EE0097FD08C08F708093E90010922302CA
:103AF0001CCF1092F1009091E80095FDFACF9091C3
:103B0000E80090FFF0CF9091E8009E779093E80056
:103B1000EACF19BC10924A0287EE95E00E94AB03EF
:103B2000109225022ECF8091E30087FD93E09093C1
:103B30004A0273CF78941F921FB61F9211248F935D
:103B40009F93AF93BF938091190290911A02A09115
:103B50001B02B0911C020196A11DB11D8093190298
:103B600090931A02A0931B02B0931C02BF91AF91D5
:103B70009F918F911F901FBE1F9018951F921FB687
:103B80001F9211248F939F93AF93BF93809118023C
:103B9000811113C08091190290911A02A0911B0209
:103BA000B0911C024196A11DB11D80931902909302
:103BB0001A02A0931B02B0931C02BF91AF919F9178
:103BC0008F911F901FBE1F901895CDB7DEB7AD9790
:103BD0000FB6F894DEBF0FBECDBF84B7877F84BF1A
:103BE0000FB6F894A895809160008861809360007A
:103BF000109260000FBE80E890E00FB6F8948093BA
:103C00006100909361000FBE85B7806885BF85B75E
:103C1000806885BF8EEA99E0909367018093660182
:103C20000E944D040E9418058091E20084608093F8
:103C3000E200789480914A028823A1F01091E90073
:103C40001F709091EC00892F817090FD80E8182BF7
:103C50001092E9008091E80083FD0E94A20F1F707E
:103C60001093E90082E084BD93E095BD9AEF97BD83
:103C700080936E000E94660F811102C00E94930E15
:103C80000EE311E0A3E4EA2EA1E0FA2ED8018D9113
:103C90008D018F3F11F00E944307E016F106B1F746
:103CA00003E411E0F80181918F018F3F11F00E9430
:103CB0004307F1E001351F07A9F78AE0EAEFF1E0D9
:103CC000DF01282F1D922A95E9F7E5EEF1E0DF01EB
:103CD0001D928A95E9F790E080E00E94BC22893E1F
:103CE0009E4F21F40E94660F811102C00E9465134D
:103CF00082E090E00E94B422809317020E947F0F1E
:103D000090931E0280931D020E947112EFE3FCE962
:103D10003197F1F700C000000E9471128091FA0102
:103D200080FF08C06FEF7FEF90E080E00E94E0220C
:103D30000E94A30A83E090E00E94B4220E94D80C63
:103D4000809A889880E091E0909314028093130207
:103D500080914A02853089F488EE92E00E94AB039C
:103D600000E112E180914A02853009F448C00E94C6
:103D70008D0F0E9422060E9490090E9471128823D2
:103D800059F08FB7F8944091190250911A0260913E
:103D90001B0270911C028FBFA0EFB1E0BCA7ABA7C4
:103DA000EAEF4E2EE1E05E2E10E000E0FEEE6F2E18
:103DB000F2E07F2E0DA7F201E190F1902F01ABA56B
:103DC000BCA5AD90BD90BCA7ABA7AE14BF0409F0D5
:103DD00055C00F5F1F4F0530110561F78FEF8EA3A0
:103DE0008FA318A60E94EA058160782F9AA789A759
:103DF0004EA15FA168A58AA50E94971B70C0809103
:103E00004A02843039F180E00E9490091092180231
:103E100088E190E0A0E40FB6F894A8958093600044
:103E20000FBEA093600083B7817F846083BF83B798
:103E3000816083BF7894889583B78E7F83BF0FB6E8
:103E4000F894A8958091600088618093600010923A
:103E500060000FBE80914902882309F483CF0E943D
:103E60007112EAEFF1E081919191892B09F012C36F
:103E700084E092E08E179F07B1F774CF809117020C
:103E800081FD54C1AE24BF2480E0CC24C394D12C46
:103E900095012C213D21232B09F482C189A3ADA5D5
:103EA000AAA3EC20FD2081E0EF2809F480E08BA399
:103EB0000E94EA058160782F9DA38CA349A15AA195
:103EC0006BA18DA10E94971B000F111FF801E051FB
:103ED000FE4F80819181C826D926D182C08286E09A
:103EE000EBE0F2E0DE01119601900D928A95E1F788
:103EF000F0900D02E0900E0210910F02009110025E
:103F000010920D0210920E0210920F0210921002E7
:103F10008F2D8E2909F448C08091090290910A02E0
:103F20000E94DB059C0190910602992309F4D6C2F8
:103F300023333105C8F19F3F19F09F5F909306022C
:103F4000FF2059F00E94C9069FEF1F140CF491E066
:103F5000899F802D112480930D02EE2059F00E943C
:103F6000C9069FEF1E140CF491E0899F802D112447
:103F700080930E0230910D023323B1F020910E0296
:103F8000222391F045EB3403C0011124992309F455
:103F90000EC190930D0245EB2403900111243323AD
:103FA00009F409C130930E02812F802B09F448C017
:103FB00080910702909108020E94DB059C0190917C
:103FC0000402992309F485C225363105C8F19F3FC3
:103FD00019F09F5F90930402112359F00E94A706E5
:103FE0009FEF11160CF491E0899F802D112480938E
:103FF0000F02002359F00E94A7069FEF10160CF441
:1040000091E0899F802D11248093100230910F023E
:104010003323B1F020911002222391F045EB3403B9
:10402000C0011124992309F4CAC090930F0245EBF3
:10403000240390011124332309F4C5C030931002E6
:1040400080910D0290910E02892B90910F02892B85
:1040500090911002892B11F00E94480B86E0FE011E
:104060003196ABE0B2E001900D928A95E1F70E94A3
:1040700022069091EF01891751F10E942206182F14
:104080008093EF018091170282FF1EC080FF1CC049
:104090008AE193E00E94AB038091170280FF14C075
:1040A0001F921F9385E193E09F938F930E94440496
:1040B000809117020F900F900F900F9080FF04C017
:1040C00083E193E00E94AB03812F0E9490098091CD
:1040D0004A02843009F03CCE83E08093E90080916D
:1040E000E80082FF35CE8091E80090E085FF0CC0AB
:1040F0000E946C0430E2E32EF12C8E010F5F1F4F03
:10410000882309F46EC091E08091E8008B7780935A
:10411000E800992309F41CCEE981E150E33108F06D
:10412000EFC0F0E0E75DFC4D0C9493228CEF92E041
:104130000E94AB036AEF862E61E0962ED12CC12C33
:10414000DF92CF92E7EFF2E0FF93EF930E944404F7
:1041500084EF92E00E94AB03D4018C9111962C90D5
:10416000B2E08B0E911C0E949609382E822D0E947F
:1041700096093F928F937F926F920E9444048CEE37
:1041800092E00E94AB03EFEFCE1ADE0A0FB6F8946E
:10419000DEBF0FBECDBF95E0C916D10489F672CE41
:1041A0008F5FCC0CDD1C8E3009F072CE12CE81E018
:1041B00080930D02F0CE81E080930E02F5CE81E077
:1041C00080930F0234CF81E08093100239CF809129
:1041D000F100D8018D938D01B1E0EB1AF10809F4DB
:1041E00092CF8091E80085FDF2CF8091E8008B7737
:1041F0008093E8000E946C04882399F384CF1A828C
:1042000089E08B831AC08A81823009F459C18330D6
:10421000D9F1813009F074C02FB7F8946091190278
:1042200070911A0280911B0290911C022FBF0E9474
:1042300099226B837C838D839E8380914A02843094
:1042400009F086CD1091E9001F709091EC00892F44
:10425000817090FD80E8182B82E08093E9008091C6
:10426000E80080FF0DC050E040E060E270E0CE0169
:1042700001960E949D048091E8008E778093E8006B
:104280001F701093E90064CD8091FA019091FB01B9
:104290009827892798279C838B838091FC01909194
:1042A000FD019827892798279E838D838091FE01A1
:1042B0009091FF0198278927982798878F8380916D
:1042C0000002909101029827892798279A87898769
:1042D00080910202909103029827892798279C8752
:1042E0008B87ABCF8A81823059F46B817C818D8141
:1042F0009E810E94992286E290E00E94C2229DCF78
:104300008FEF89839ACF4C816B818A810E94D10E75
:104310009827892798279E838D838FCF0D811E81B3
:104320001027012710278A81EB80ECE1EE9E7001B7
:104330001124FCE88F9FE00CF11C11248C8190E08B
:10434000880F991FE80EF91E612FC70187960E94FA
:10435000C222602FC7018896D0CF0E94260E6DCF53
:1043600080E18A836ACF81E08A8389EA4ACF0A8121
:104370001B81102701271027CE0101967C01CC80DC
:10438000DC01AC0DB11D6D01C801895A9D4FEC14C3
:10439000FD0409F452CF093AB1E01B0750F40E9422
:1043A000B422F70184830F5F1F4FBFEFEB1AFB0AA4
:1043B000EBCFD70114961C92F6CF0A811B811027F0
:1043C00001271027FE0131966F01EC80E00EF12EDF
:1043D000F11CC801895A9D4F0E151F0509F42DCFF8
:1043E000093AF1E01F0728F4D60114966C910E9457
:1043F000C222BFEFCB1ADB0A0F5F1F4FEACF0E942A
:10440000160E1BCF84E0ADCF0A811B811027012738
:104410001027FE0131967F01CC80CF018C0D911DBC
:104420006C01C8018796EC14FD0409F406CF003333
:10443000A2E01A0750F40E94B422F70184830F5FB0
:104440001F4FBFEFEB1AFB0AECCFD70114961C925B
:10445000F6CF0A811B81102701271027FE01319614
:104460006F01EC80E00EF12EF11CC8018796E0167A
:10447000F10609F4E2CE0033F2E01F0728F4D6017A
:1044800014966C910E94C222BFEFCB1ADB0A0F5F19
:104490001F4FEBCF09BD19BD09B400FEFDCF8091C0
:1044A000D8008F7D8093D8008091E0008260809357
:1044B000E0008091E00081FDFCCF0E948D0F52CC86
:1044C00086E290E00E94B4221B821C821D828E83B1
:1044D000B4CE2D32314008F07CCDB2CD2D323140FA
:1044E00008F02BCD61CD991B79E004C0991F961778
:1044F00008F0961B881F7A95C9F78095089597FB59
:10450000072E16F4009407D077FD09D00E94A02250
:1045100007FC05D03EF4909581959F4F08957095C6
:1045200061957F4F0895EE0FFF1F0590F491E02DE8
:104530000994692796276927782787277827089578
:10454000AA1BBB1B51E107C0AA1FBB1FA617B707B9
:1045500010F0A61BB70B881F991F5A95A9F78095D5
:104560009095BC01CD010895F999FECF92BD81BD12
:10457000F89A992780B50895A8E1B0E042E050E0AC
:104580000C94E822262FF999FECF92BD81BDF89AAE
:10459000019700B4021639F01FBA20BD0FB6F89487
:1045A000FA9AF99A0FBE08950396272F0E94C32204
:1045B0000E94C222252F0E94C322242F0C94C322C2
:1045C0000196272F0E94C3220C94C222DC01CB014A
:1045D000FC01F999FECF06C0F2BDE1BDF89A319613
:1045E00000B40D9241505040B8F70895FB01DC0132
:1045F00004C08D910190801921F441505040C8F7BA
:10460000881B990B0895F894FFCF510F510F5A0F43
:104610005A0F5C0F5A0F5A0F5A0F510F510F610F5B
:104620005A0F5A0F610F8810B0105912B01059125A
:10463000E3100411591202120F122D172D176817CB
:10464000681718183218981798173D18AA18BB1829
:10465000BB18FF200321722183218E21AD218021EF
:104660008021802180218021B021B321B721DD214B
:08467000FF210222042229228D
:10467800D805630A420A3E0A3A0AD70501818283AD
:10468800E200E900EA00B500B600B700CD008301FA
:10469800CC008A01920194012102230224022502FE
:1046A800260227022A02B300B4006F0070003031DE
:1046B800323337909192936667959496973435364E
:1046C800F74022B622A6018401CE00AC00090622DA
:0646D8000642065B06002D
:00000001FF
