:100000000C94A7040C94E1040C94E1040C94E10416
:100010000C94E1040C94E1040C94E1040C94E104CC
:100020000C94E1040C94E1040C94F61D0C94AE1DA8
:100030000C944D1F0C94E1040C94E1040C94E10425
:100040000C94E1040C94E1040C94E1040C94E1049C
:100050000C94E1040C94291F0C94E1040C94E10429
:100060000C94E1040C94E1040C94E1040C94E1047C
:100070000C94E1040C94E1040C94E1040C94E1046C
:100080000C94E1040C94E1040C94E1040C94E1045C
:100090000C94E1040C94E1040631FF0974A10109F8
:1000A00075150026FF009520750881020976150058
:1000B00026FF00952075089102C005010902A101E3
:1000C00085020901A100050919012908150025016A
:1000D0009508750181020501093009311581257FD7
:1000E00095027508810609381581257F95017508E7
:1000F0008106050C0A38021581257F950175088156
:1001000006C0C005010980A101850319012AB700B5
:10011000150126B700950175108100C0050C090175
:10012000A101850419012AA002150126A00295014A
:1001300075108100C005010906A101850605071992
:10014000E029E715002501950875018102050719C9
:100150000029EF1500250195F075018102050819A8
:10016000012905950575019102950175039101C05D
:100170000660FF0961A1010962150026FF009520B4
:10018000750881020963150026FF00952075089106
:1001900002C005010906A101050719E029E71500BC
:1001A00025019508750181029501750881010507F2
:1001B000190029FF150026FF009506750881000526
:1001C000081901290595057501910295017503919D
:1001D00001C000000000000000000000000000005E
:1001E000000000000000000000000000000000000F
:1001F0000000000000007E0F00D4FFFFFFC70000DA
:10020000007800000000000000002A2B28000000F9
:1002100000000000000000000000000000290000B5
:1002200000002C1E3420212224342627252E362D92
:100230003738271E1F202122232425263333362E2C
:1002400037381F0405060708090A0B0C0D0E0F109E
:100250001112131415161718191A1B1C1D2F3130E3
:10026000232D350405060708090A0B0C0D0E0F1087
:100270001112131415161718191A1B1C1D2F3130C3
:10028000354C44454255473A2064697361626C6558
:10029000642E0A0044454255473A20656E61626CFF
:1002A00065642E0A004F6E6573686F743A2061634F
:1002B000746976653A2025640A000A0025303258B0
:1002C00020006B6579626F6172645F7265706F7236
:1002D000743A20005B735D000A00253031366200FD
:1002E0003A200025303258000A722F632030313214
:1002F000333435363738394142434445460A000ADB
:100300000025303258006C65645F7461736B3A206D
:1003100000290A002575002F002575005D2800259D
:10032000640020002564002000256400200025646E
:10033000007C0025303258006D6F7573656B6579F0
:10034000205B62746E7C782079207620685D28724C
:1003500065702F61636C293A205B002B000000144C
:10036000001A000800150017001C0018000C0012ED
:100370000013002A00035104001600070009000AB8
:100380000000000B000D000E000F0033002800E1FC
:10039000001D001B000600190005002900110010B7
:1003A00000360037003800E500E000E3000000E21E
:1003B0000000002C4100002C420000E2000000760A
:1003C00000E0003A0000003B003C003D003E003EE3
:1003D000004000410042004300440045000B511E14
:1003E000001F00200021002200000023002400251F
:1003F00000260027000100010001000100010001AA
:10040000002D0001002E000100010001000100018B
:1004100000010001000000010000002C0000002C81
:1004200000000001000000010001000100000001C7
:1004300000010001000100010001000100010001B4
:1004400000010031000B5101000100010001000119
:100450000000005000510052004F00010034000124
:100460000001000100010001000100010001000184
:100470000001000100010001000100010000000175
:100480000000002C0000002C000000010000000112
:1004900000010001000000010001000100005C01FA
:1004A0000001000100010001000100310001000114
:1004B0000001000100010001000000010001000135
:1004C00000010001003400010001000100010001F1
:1004D0000001000100010001000100010001000114
:1004E0000001000100000001000000010000000107
:1004F00000000001000000010001000100000001F7
:1005000000010001000100010001000100010001E3
:1005100000010001000100010001000100010001D3
:1005200000000001000100010001000100010001C4
:1005300000010001000100010001000100010001B3
:1005400000010001000100010001000100000001A4
:100550000000000100000001000000010000000197
:100560000001000100000001000100010001000184
:100570000001000100010001000100010001000173
:100580000001000100010001000000010001000164
:100590000001000100010001000100010001000153
:1005A0000001000100010001000100010001000143
:1005B0000001000100000001000000010000000136
:1005C0000000000100000001000100010000000126
:1005D0000001000100010001000100010001000113
:1005E0000001000100010001000100010001000103
:1005F00000000001000100010001000100010001F4
:1006000000010001000100010001000100010001E2
:1006100000010001000100010001000100000001D3
:1006200000000001000000010000000100000001C6
:1006300000010001000000010001000100010001B3
:1006400000010001000100010001000100010001A2
:100650000001000100010001000000010001000193
:100660000001000100010001000100010001000182
:100670000001000100010001000100010001000172
:100680000001000100000001000000010000000165
:100690000000000100000001000100010000000155
:1006A0000001000100010001000100010001000142
:1006B0000001000100010001000100010001000132
:1006C0000000000100010001000100010001000123
:1006D0000001000100010001000100010001000112
:1006E0000001000100010001000100010000000103
:1006F00000000001000000010000000100000001F6
:1007000000010001000000010001000100010001E2
:1007100000010001000100010001000100010001D1
:1007200000010001000100010000000100010001C2
:1007300000010001000100010001000100010001B1
:1007400000010001000100010001000100010001A1
:100750000001000100000001000000010000000194
:100760000000000100000001000100010000000184
:100770000001000100010001000100010001000171
:100780000001000100010001000100010001000161
:100790000000000100010001000100010001000152
:1007A0000001000100010001000100010001000141
:1007B0000001000100010001000100010000000132
:1007C0000000000100000001000000010000000125
:1007D00000010001000000010001000100005C01B7
:1007E0000001000100010001000100010001000101
:1007F00000010001000100010000000100010001F2
:1008000000010001000100010001000100010001E0
:1008100000010001000100010001000100010001D0
:1008200000010001000000010000000100000001C3
:1008300000000001000000010001006164645F6BC2
:1008400065795F6269743A2063616E277420616420
:10085000643A20253032580A0064656C5F6B657914
:100860005F6269743A2063616E27742064656C3A34
:1008700020253032580A005B435D005B445D005B1D
:10088000535D005B575D005B525D0009027B000415
:100890000100A0FA0904000001030101000921116F
:1008A000010001224000070581030800010904013D
:1008B00000020300000009211101000122220007AB
:1008C000058203200001070503032000010904023B
:1008D00000010300000009211101000122B60007F8
:1008E000058403200001090403000203000000093D
:1008F00021110100012222000705850320000107C4
:1009000005050320000112010002000000086266D4
:1009100040770100010200011A03570061006B00DB
:1009200069007A00610073006800690020003400EB
:10093000300000001403660075006D006200750051
:1009400063006B00650072000000040309041124B9
:100950001FBECFEFD0E2DEBFCDBF04B603FE18C08E
:100960008091720290917302A0917402B09175020D
:100970008730904BA740B04B59F4109272021092FE
:1009800073021092740210927502E0E0F0EF099584
:1009900022E0A4E6B1E001C01D92A237B207E1F760
:1009A00011E0A0E0B1E0E6E5F9E400E00BBF02C031
:1009B00007900D92A436B107D9F70E94741F0C94CA
:1009C00080240C940000FF93EF93E0916401F09178
:1009D0006501309709F00995EF91FF910895FC01A9
:1009E0008591803011F0EFDFFBCF0895FF27E0E223
:1009F00030E247FF0CC0419597FF09C0EDE26095DA
:100A0000709580959095611D711D811D911D27FF29
:100A100002C0219530E350E2AA27660F771F881F96
:100A2000991FAA1FA41710F0A41B63955A95A9F744
:100A3000AA3008F0A95FA05DAF93F3956115710529
:100A40008105910541F7ED3211F4EF93F395F2171B
:100A500018F43F93F395FBCF8F91B5DFFA95E1F74B
:100A60000895E991F9918591803021F0853219F04E
:100A7000AADFF9CF089520E0E89455915532C1F3EB
:100A8000503311F4689455915A3348F4505390F30D
:100A9000220F022E220F220F200D250FF4CF0EF46D
:100AA000219589919991533619F3533729F153358B
:100AB00059F1BC0188279927E8945C3621F4899183
:100AC000999168945591543639F446EF7EF077FF4A
:100AD0000DC08FEF9FEF0AC055374AE039F0583507
:100AE00040E121F0523642E009F00895FF93EF9380
:100AF0007DDFEF91FF91B7CFFF93EF93FC018191E1
:100B00008030B9F360DFFBCFFF93EF9368DFF1CF65
:100B1000DF93CF93CDB7DEB72596A3DFCF91DF91DB
:100B20000895E8EDF0E080818C7F80831092E200F0
:100B30001092DA001092E100A0EEB0E08C9181609A
:100B40008C9380818F77808319BCA7EDB0E08C9166
:100B50008E7F8C9380818F7E808310923E020895D9
:100B60002091E4003091E50095E6A9012091EC0088
:100B7000822F817020FF06C08091E80080FF06C0B0
:100B800080E008952091E80022FD1AC08091630260
:100B9000882389F0853089F08091EB0085FD0FC0B6
:100BA0002091E4003091E50042175307F9F291508B
:100BB000E1F684E0089582E0089583E0089581E0FD
:100BC0000895EF92FF920F931F93CF937C018B01B7
:100BD0000E94B005C82F811117C08091E80085FDE3
:100BE0000BC08091E8008E778093E8000E94B005EA
:100BF000882399F3C82F08C0F70181917F01809362
:100C0000F1000150110949F78C2FCF911F910F91DD
:100C1000FF90EF9008958091650287FF13C0809147
:100C2000E80082FF06C08091E8008B778093E8009F
:100C300004C0809163028111F2CF08958091630214
:100C40008823D9F38091E80080FFF8CF8091E800F5
:100C50008E77ECCF982F9093E900242F762F50E0D9
:100C6000891731F07091EC002091ED005091F00067
:100C700021FD07C09F5F973071F78093E90081E005
:100C800008953091EB003E7F3093EB003091ED0002
:100C90003D7F3093ED003091EB0031603093EB00FD
:100CA0007093EC002093ED005093F0002091EE0043
:100CB00027FDE0CF80E00895CF92DF92EF92FF9280
:100CC0000F931F93CF93DF93C8EDD0E088818F7E81
:100CD0008883E7EDF0E080818160808381E080930C
:100CE0003E0288818C7F888302EE10E0D8011C923E
:100CF0001092DA0081EEC82ED12CD6011C92888188
:100D00008F77888388818068888388818F7D8883B6
:100D100080818068808319BC109263021092640203
:100D2000109262021092610290EEE92EF12CF7010E
:100D300080818B7F808388818160888342E060E04E
:100D400080E00E942A06D6018C918E7F8C93F80158
:100D5000808181608083808188608083D7018C91CD
:100D60008E7F8C93888180618883DF91CF911F91E2
:100D70000F91FF90EF90DF90CF900895FC0180914C
:100D80006B0290916C0286179707A0F061157105B0
:100D900029F49091E8009E779093E80090E0611527
:100DA000710551F4911108C08091E80082FF33C0B1
:100DB00080E00895BC01F2CF809163028823B9F1ED
:100DC0008530B9F18091E80083FD2FC08091E80063
:100DD00082FDEACF8091E80080FFE1CF2091F20010
:100DE0003091F3006115710519F02830310558F084
:100DF00091E02830310509F090E02091E8002E774D
:100E00002093E800CCCF81918093F100615071096B
:100E10002F5F3F4FE7CF80916302882341F08530F9
:100E200041F08091E80083FFBFCF81E0089582E028
:100E3000089583E0089508958091400208959C01EB
:100E40004FB7F8948091320290913302A09134020E
:100E5000B09135024FBF821B930B08952FB7F894C2
:100E60008091320290913302A0913402B091350208
:100E70002FBF089520912E0230912F022817390795
:100E800071F090932F0280932E02E0912C02F0914A
:100E90002D02309721F00084F185E02D099408950A
:100EA00020912A0230912B022817390771F0909374
:100EB0002B0280932A02E0912C02F0912D023097B0
:100EC00021F00680F781E02D09940895E0912C022D
:100ED000F0912D02309721F00190F081E02D0994DE
:100EE00080E0089540912602803F59F480912702C6
:100EF00087FF0DC01092270241110BC010921F02F4
:100F000008C0813F81F48091270218169CF3442386
:100F100081F08091280290912902892B09F05AC012
:100F200010921D020895823F49F447FFF0CF1092BE
:100F30002602809127028111ECCFE0CF833F19F484
:100F40001416ACF3E4CF90912802893F29F41916C6
:100F5000F4F610922802DBCF8A3F19F497FFD7CF1F
:100F6000F8CF909129028B3F29F497FFD0CF1092B0
:100F70002902CDCF8C3F19F41916CCF3C8CF9CE0D1
:100F8000980F953090F4845F990B21E030E0B9011F
:100F900002C0660F771F8A95E2F7CB01809590918A
:100FA0002502892380932502B2CF8D3F31F48091B1
:100FB0001E028E7F80931E02AACF8E3F21F4809165
:100FC0001E028D7FF7CF8F3F09F0A1CF80911E02C7
:100FD0008B7FF0CF089580911E0280FD16C081FDA9
:100FE00016C082FD16C080911D028823A1F08832B0
:100FF00080F428E0829FC001112468E270E00E9422
:10100000F923862F672B39F0089582E0089584E054
:10101000089588E0089581E0089580911E0280FD82
:1010200014C081FD14C082FD16C080911F02882368
:1010300081F08E3180F420E5829FC00111246EE1A1
:1010400070E00E94F923862F089584E1089588E2D4
:10105000089588E0089580E50895803F31F40E9466
:101060000D088195809327020895813F19F40E940D
:101070000D08F8CF823F31F40E940D0881958093CE
:1010800026020895833F19F40E940D08F8CF893F86
:1010900029F40E94EB078093280208958A3F21F4E7
:1010A0000E94EB078195F7CF8B3F31F40E94EB074D
:1010B00081958093290208958C3F19F40E94EB07D3
:1010C000F8CF9CE0980F953070F4845F990B21E085
:1010D00030E001C0220F8A95EAF780912502822B29
:1010E0008093250208958D3F31F480911E02816026
:1010F00080931E0208958E3F21F480911E0282602B
:10110000F7CF8F3FB9F780911E028460F1CFF8943A
:10111000E82FE295EF70F0E031A1282F2F7081E0E9
:1011200090E001C0880F2A95EAF7982F90959323B5
:1011300091A392A1892B82A378940895909136026D
:1011400092FF06C0282F28712830F9F4877F846029
:1011500093FF06C0282F28712831F1F4877E84611F
:101160002091370220FF06C0382F38713830D9F46B
:10117000877F816021FF06C0282F28712831D1F494
:10118000877E816194FD877E0895282F2471243005
:10119000F9F68B7F8860DCCF282F2471243101F78A
:1011A0008B7E8861DDCF382F3171313019F78E7F1A
:1011B0008860E0CF282F2171213121F78E7E886150
:1011C000E1CFCF93DF93EC0182389105A9F1D8F5F7
:1011D0008133910509F496C048F58932910509F4E7
:1011E0008AC08A9709F495C0C11521E5D20708F095
:1011F000BCC0C11530E5D30708F014C1C83ED10505
:1012000008F09CC0C03ED10560F5C83AD10508F091
:1012100087C0C53AD10508F0FDC0C130D10509F13C
:101220002097F9F0C430D105E0F440C08533910532
:1012300009F45AC0C997C1F680913602837089F0CB
:10124000C0EED0E00EC0833E910599F170F4803E6F
:10125000910501F1823E910539F68091360282FDB9
:1012600021C0CE01DF91CF910895863E910561F1B5
:10127000873E910571F1843E910509F0B5CF8091CB
:10128000370281FFEECF80913602C7EED0E084FDB9
:101290000DC0E7CF8091360280FD12C190913702D8
:1012A00090FFDFCFC3EED0E084FFDBCFD0E0C0E023
:1012B000D8CF8091360282FD06C19091370290FD11
:1012C000BFCF84FFCECFF2CF8091360283FDDDCF3A
:1012D000C8CF8091360283FDF9C09091370291FF0B
:1012E000F0CFC4EED0E0BDCF8091360285FFB9CFFC
:1012F000C9E2D0E0B6CF8091360285FFB2CFC5E318
:10130000D0E0AFCF8091360286FFABCFCAE2D0E00B
:10131000A8CF8091360286FFA4CFC1E3D0E0A1CF51
:10132000CF3BD10518F6C85AD0E0CC0FDD1FC05F07
:10133000DE4F0990D881C02DD46493CFC11540E20F
:10134000D40758F4C11581E0D80708F08ACFC03F10
:10135000D10508F4ABCFD06584CFC11590E4D9078F
:1013600008F4A4CFDF70D06A7CCFC11525E5D20781
:1013700000F5C11534E5D30708F08AC0C11543E56F
:10138000D40708F071C0C11582E5D80708F467C01A
:10139000CE018370992721E030E002C0220F331F75
:1013A0008A95E2F7C695C69580E2C89FE0011124B0
:1013B00052C0C11599E5D907A8F4C11528E5D2078F
:1013C00008F06BC0C11536E5D30708F06FCF8C2F3E
:1013D0000E949E08C82FD0E0DC2FCC27CC27DF71DD
:1013E000D0623FCFC1154AE5D40708F45BC0CE01F7
:1013F00090568115904208F059CF8D2F8F710E9421
:101400009E0890E0982F882788279F719C012C2B9D
:10141000E901E6CFC55AD0E0C35FDE4FC881D0E016
:10142000D0641FCFCE01E4E096958795EA95E1F769
:1014300083702C2F26952695237040E2249F9001DF
:101440001124382B8C2F8370C1E0D0E002C0CC0F68
:10145000DD1F8A95E2F7C22BD32BDC6802CFDC2F8D
:10146000CC27C16FD06AFDCECE018370992721E0D1
:1014700030E002C0220F331F8A95E2F7C695C69569
:1014800090E2C99FE0011124C22BD32BDA68E9CE88
:10149000DC2FCC27C46FD06AE4CEDC2FCC27C06F02
:1014A000D06ADFCE8C2F8F700E949E0834E0D695D4
:1014B000C7953A95E1F7CF709C2FEC01D069D1CE5A
:1014C000C9E3D0E0CECEC2EED0E0CBCEC6EED0E0C7
:1014D000C8CE8091FE0181111092FE010895809581
:1014E0009091FD0198239093FD0108958091DA0178
:1014F0009091A901981301C008958F5F8770FACF6A
:101500002DE0929F800D1124982F977086958695D7
:10151000869524E0829FF0011124E957FE4F50E0A8
:1015200040E080E0219130E0092E02C036952795F9
:101530000A94E2F721703327042E01C0220F0A9487
:10154000EAF7822B4F5F5F4F4430510559F70895FA
:101550002DE0929F800D1124982F977041E001C0DB
:10156000440F9A95EAF786958695869594E0899F2B
:10157000F0011124E957FE4F90E080E070E05191B6
:10158000DF0111979B01082E02C0369527950A941A
:10159000E2F7217021952527242325272C930196F6
:1015A0008430910561F70895829590E09C01220FA7
:1015B000331F220F331F2C7C959587959595879522
:1015C0008373282B30E0C901880F991F8A7A3595DB
:1015D00027952575822B08959FB7F89410923C02A9
:1015E0009FBF90916302943009F048C02091E900B8
:1015F0002F703091EC00932F917030FD90E8922B7A
:1016000025E02093E9002091EB0020FF34C02091D9
:10161000EE0027FF30C020913B02222321F02091D1
:10162000E80025FF28C010923B0226E03091E80038
:1016300035FF14C08093F1008091E80085FD27C03C
:101640008091E80080FFFCCF8091E8008E77809346
:10165000E8009F709093E90080E008953091630264
:10166000343049F43091EB0035FD05C0215041F490
:1016700081E080933B029F709093E9008FEF089583
:10168000EFE9FFE03197F1F700C00000CFCF8FB74F
:10169000F89421E020933C028FBFDBCF8093380287
:1016A00070933A0260933902809163028430F9F4B6
:1016B0008093E9008FEF9091E800815095FD06C07E
:1016C00095ED9A95F1F700008111F5CF8091E80032
:1016D00085FF0DC050E040E063E070E088E392E0F9
:1016E0000E94E1058091E8008E778093E8000895DC
:1016F000BC0184E00C944E0BBC0183E00C944E0BB7
:101700009C0184E08093E9009FEF8091E800915074
:1017100085FD06C085ED8A95F1F700009111F5CFA2
:101720008091E80085FF0CC050E040E066E070E08A
:10173000C9010E94E1058091E8008E778093E8005E
:101740000895CF93DF93EC0180910C018823B1F1D0
:101750008091360287FF32C060E284E08093E90026
:101760008FEF9091E800815095FD06C095ED9A9518
:10177000F1F700008111F5CF8091E80085FF1BC0D3
:1017800080910C0170E050E040E0811104C050E015
:1017900040E068E070E0CE010E94E1058091E80041
:1017A0008E778093E80080E2FE01A1E4B2E0019030
:1017B0000D928A95E1F7DF91CF91089568E081E07D
:1017C000CDCF81E08093E00080E28093D80010923A
:1017D000C9008FE19EE40197F1F700C0000087E0A7
:1017E00090EBDC018093720290937302A0937402D9
:1017F000B093750288E19CE00FB6F894A8958093A9
:1018000060000FBE90936000FFCF20910C01222357
:1018100051F12091360227FF26C0E62FE695E69586
:10182000E695EE3178F4E80FF92FF11D677021E0AD
:1018300030E001C0220F6A95EAF7209582812823C3
:10184000228308958091300280FF19C01F926F9308
:1018500089E598E09F938F930E9488050F900F90E1
:101860000F900F900895FC01329608962191621313
:1018700003C0DF0111971C92E817F907B9F7089523
:1018800020910C01222349F12091360227FF25C027
:10189000E62FE695E695E695EE3170F4E80FF92F20
:1018A000F11D677021E030E001C0220F6A95EAF770
:1018B0008281822B828308958091300280FF1EC036
:1018C0001F926F938BE398E09F938F930E948805FC
:1018D0000F900F900F900F900895FC0132962FEF0C
:1018E00030E04191641751F02F3F19F4411101C0CC
:1018F000232F3F5F3630A9F72F3F09F40895820F59
:10190000911D27FD9A95FC01628308958091300214
:1019100083FF7EC088E393E00E94EF04809125025C
:101920001F928F9383E393E09F938F930E94880588
:1019300081E393E00E94EF0480912602282F082E75
:10194000000C330B3F938F938EE293E09F938F9322
:101950000E9488058CE293E00E94EF0480912702A8
:10196000282F082E000C330B3F938F9389E293E0CE
:101970009F938F930E94880587E293E00E94EF0473
:1019800080912802282F082E000C330B3F938F9351
:1019900084E293E09F938F930E94880582E293E014
:1019A0000E94EF0480912902282F082E000C330B8F
:1019B0003F938F938FE193E09F938F930E948805CD
:1019C0008CE193E00E94EF0480911F021F928F939D
:1019D00089E193E09F938F930E94880587E193E0CC
:1019E0000E94EF0480911E021F928F9384E193E086
:1019F0009F938F930E94880581E193E00E94EF04FA
:101A00008DB79EB74C960FB6F8949EBF0FBE8DBF94
:101A10000E942E079C019091260280912702982B0C
:101A200021F030932302209322029091280280918A
:101A30002902982B21F03093210220932002E0917B
:101A40002C02F0912D02309749F082E0809324021D
:101A50000480F581E02D84E292E009940895CF930B
:101A6000DF93C7E0D5E060E0CE010E944C242196D0
:101A7000C11580E1D807B9F7DF91CF9108956F9232
:101A80007F928F929F92AF92BF92CF92DF92EF920E
:101A9000FF920F931F93CF93DF938BE5C82E83E0C4
:101AA000D82E99EAE92EF12CE701C856D109360162
:101AB0001BC0F50185909490692DC8010E944C24AB
:101AC000682DC80101960E944C2482E0A80EB11C2A
:101AD0000E5F1F4FC017D10761F78AE1680E711CB6
:101AE0006A96CE15DF0529F08E010A5111095301BE
:101AF000E0CF7E0188E6E80EF11C88E6C80ED11C16
:101B000089E8E81685E0F80679F6DF91CF911F9114
:101B10000F91FF90EF90DF90CF90BF90AF909F908C
:101B20008F907F906F900895CF93C82F6FEF8111A2
:101B300062E283E290E00E944C246FEFC11163E007
:101B400084E290E00E944C246FEFC11167E085E2CF
:101B500090E0CF910C944C2480E00E94940D60E0C2
:101B600086E290E00E944C240E943F0D0E942F0DBF
:101B700081E00C94940D0F931F93CF93DF93C42FA8
:101B8000D0E0CC0FDD1F2AE1629FC00DD11D1124D2
:101B900038E6839FC00DD11D1124CE0187960E9487
:101BA0003E24082F10E0102F0027CE0188960E94B7
:101BB0003E249801282BC901DF91CF911F910F91ED
:101BC0000895462F8C3038F4743028F46D3018F4B2
:101BD000672F0C94BB0D90E080E00895BF92CF92E8
:101BE000DF92EF92FF920F931F93CF93DF937C01CD
:101BF00000917002109171028091FF01909100029A
:101C0000082B192BCFE0D0E0CC24C394D12CBC2ED0
:101C1000C6010C2E02C0880F991F0A94E2F7802398
:101C20009123892B71F4219790F7B12C8B2DDF91A3
:101C3000CF911F910F91FF90EF90DF90CF90BF90C9
:101C40000895B7018C2F0E94E10D0E94E1080197D1
:101C500051F3ECCFCF93DF93EC010E94EE0DBE0168
:101C60000E94E10DDF91CF910C94E108FC0180818D
:101C700091810E942A0E92959F70963091F058F4AF
:101C8000925F9F70923058F4803F19F030F4883E94
:101C900030F481E008959A5FF4CF843FD1F380E07F
:101CA0000895883EB0F3813FD1F7F3CF83E290E00F
:101CB0000E943E24823289F484E290E00E943E2415
:101CC000833059F485E290E00E943E2491E0873011
:101CD00009F090E0892F8170089580E0FCCFCF93C8
:101CE00084E090E00E943E24C82F82E290E00E94AF
:101CF0003E24982F8C2FCF9108954F925F926F9230
:101D00007F928F929F92AF92BF92CF92DF92EF928B
:101D1000FF920F931F93CF93DF93CDB7DEB7289732
:101D20000FB6F894DEBF0FBECDBF8E010F5F1F4F01
:101D300088E0F80111928A95E9F79EE3E92E91E097
:101D4000F92E680122E4422E21E0522E662463948B
:101D5000712C4FE4842E41E0942EF70181917F0194
:101D60008F3F09F445C0F894E82FE295EF70F0E05A
:101D700021A18F70A30102C0440F551F8A95E2F77D
:101D8000CA01922F982B91A392A18095892382A3B7
:101D9000789400C0E2E4F1E021E030E0B12CA12C25
:101DA00041914F3F09F476C0A42FA295AF70B0E0E7
:101DB00090968C9190E04F7002C0959587954A95CA
:101DC000E2F780FD67C0C901A82AB92A220F331F94
:101DD0008E169F0629F7F701319780818F3F11F00A
:101DE0000E94870850EA5A95F1F7F601B182A08265
:101DF000F2E0CF0ED11C4E145F0409F0AECF48E0E4
:101E000050E0B80184E092E00E943124FF24F39472
:101E1000009709F4F12C892B09F43FC088E0F80100
:101E2000A4E0B2E001900D928A95E1F781E0809301
:101E300003020E942E079093020280930102809178
:101E40000102909102020E941F07059750F18091B4
:101E500004029091050290931602809315028091DE
:101E600006029091070290931802809317028091C6
:101E700008029091090290931A02809319028091AE
:101E80000A0290910B0290931C0280931B02109205
:101E9000030207C090E080E097CF80910302811198
:101EA000CECF8F2D28960FB6F894DEBF0FBECDBFD4
:101EB000DF91CF911F910F91FF90EF90DF90CF9026
:101EC000BF90AF909F908F907F906F905F904F905A
:101ED00008950F931F93CF93DF938091FD0190910D
:101EE000FC01892B809366019091FE019923B1F04A
:101EF000892B8093660180910C01882309F46EC0C0
:101F00008091360287FF6AC08EE1E8E6F1E090E05A
:101F1000815008F065C091110E94690A40E250E0CA
:101F20006CED71E086E691E00E943124892B09F482
:101F30005DC080E2E6E6F1E0ACEDB1E001900D922B
:101F40008A95E1F7E0912C02F0912D02309709F487
:101F50004DC080910C01882359F08091360287FF93
:101F600007C0809166018093670186E080936601D7
:101F70000280F381E02D86E691E0099580913002A0
:101F800082FF34C080FF04C082EC92E00E94EF0424
:101F9000D0E0C0E00CEB12E08091300280FF0EC078
:101FA000FE01EA59FE4F80811F928F931F930F937A
:101FB0000E9488050F900F900F900F902196C830C7
:101FC000D10551F78091300280FF10C08AEB92E07A
:101FD000DF91CF911F910F910C94EF0486E095CF84
:101FE0002191222309F494CF9F5F92CFDF91CF916B
:101FF0001F910F91089590E080E00E94500790E0BB
:1020000080E00E943A071092FC010E94690F86E06E
:10201000E4E2F2E0DF011D928A95E9F710921F02D7
:1020200010921D0210921E020C94860C9093710265
:10203000809370020C94FB0F80917002909171025A
:102040009C01267033272630310519F488600C94E2
:102050001610877FFCCF21E030E002C0220F331F33
:102060008A95E2F7209530958091700290917102E7
:10207000822393230C9416109091DB018095892381
:102080008093DB01282F277091F4282F082E000C55
:10209000330B9217130659F09091370292FD07C047
:1020A0008595859585950E942B101092DB010895EA
:1020B000CF93DF93D82FC0913702C2FB882780F9D6
:1020C0008D1711F1D0FBC2F9C0933702609136022F
:1020D00084E090E00E944C246C2F82E290E00E9409
:1020E0004C2482E00E943C108091300280FF0CC0A2
:1020F0001F92DF9385EA92E09F938F930E94880559
:102100000F900F900F900F90DF91CF91089521E0E5
:1021100030E002C0220F331F8A95E2F780917002EF
:1021200090917102822B932B0C94161090930002C5
:102130008093FF010C94FB0F1092FD0180910C0124
:10214000E8E6F1E0882359F08091360287FF07C066
:102150008EE1DF011D928A95E9F70C94FB0F86E072
:10216000F8CF1F93CF93DF93CDB7DEB7AA970FB603
:10217000F894DEBF0FBECDBF85E692E02091F1005E
:10218000DC012D93CD01B2E08D369B07B9F780912C
:102190006602833009F472C0B8F4813009F449C092
:1021A000823009F4B3C08091E80083FF91C280912E
:1021B0006502909166029A3008F08AC2E92FF0E039
:1021C000EE57FB4D0C940D248A3009F48EC08B30F1
:1021D00009F471C0893039F780916502813219F7AD
:1021E0008091690290916A02009711F00297D9F6E6
:1021F0008091E800877F8093E8008091E80082FF6B
:1022000038C08091F2009091F300029731F48091F0
:10221000F100813011F0863021F48091F10080933B
:1022200040028091E8008B778093E8000E940B06C3
:10223000BACF80916502813A09F0B5CF8091E8006C
:10224000877F8093E8008091690290916A02892BD0
:1022500061F460E281E492E070E00E94BE06809149
:10226000E8008B778093E8009ECF60E090E080E00C
:10227000F3CF809163028111C0CF95CF8091650229
:10228000813A09F090CF8091690290916A02892B7E
:1022900009F089CF8091E800877F8093E8008091E2
:1022A000E80080FFFCCF80910C018093F1008091C9
:1022B000E8008E77B9CF80916502813209F073CF43
:1022C0008091690290916A02892B09F06CCF80910C
:1022D000E800877F8093E8000E940B0680916702E8
:1022E00080930C010E949C105ECF80916502813228
:1022F00009F059CF8091E800877F8093E8000E9421
:102300000B068091680280933F024DCF8091650259
:10231000813A09F048CF8091E800877F8093E800F8
:102320008091E80080FFFCCF80913F02BECF8038D3
:1023300099F0823809F0CCC1809169028F708730A2
:1023400008F0C6C18093E9008091EB0085FB8827E7
:1023500080F91092E90006C08091610290916202BA
:10236000911182609091E800977F9093E8008093AC
:10237000F1001092F1008091E8008E77A5C18823CA
:1023800009F493C1823009F0A3C1809167028111E1
:1023900096C1809169028F702FEF280F263008F0C8
:1023A00097C18093E9002091EB0020FF88C1933012
:1023B00031F48091EB0080628093EB0080C19091BA
:1023C000EB0090619093EB0021E030E001C0220F20
:1023D0008A95EAF72093EA001092EA008091EB00D8
:1023E0008860EACF811174C1109167021F778091D4
:1023F000E3008078812B8093E3008091E800877F61
:102400008093E8000E940B068091E80080FFFCCFDB
:102410008091E30080688093E30082E0111183E003
:102420008093630255C18058823008F051C12091D9
:102430006702309168022C3DE3E03E07A1F583E09E
:102440008A838AE289834FB7F894DE01139620E0ED
:102450003EE051E2E32FF0E050935700E49120FF7B
:1024600003C0E295EF703F5FEF708E2F90E0EA308F
:10247000C0F0C7968D939D932F5F243159F74FBFBE
:102480008091E800877F8093E8006AE270E0CE01E7
:1024900001960E94BE068091E8008B778093E80049
:1024A00017C1C096E7CF8091690290916A02432FCD
:1024B00055274330510509F44AC078F5413051059C
:1024C00009F47AC08BE790E0EBE8F8E04230510580
:1024D00009F0FEC02091E800277F2093E8002091BA
:1024E0006B0230916C028217930708F49C0140E064
:1024F0002115310509F065C0411163C08091E800E4
:1025000082FDC9CF80916302882329F2853019F2B8
:102510008091E80083FFF2CFBECF4132510509F42C
:102520003CC04232510509F0D3C08430910508F017
:10253000CFC0FC01EE0FFF1FED5AFE4F0190F0815E
:10254000E02D815B9E4FDC018C9190E01AC0332717
:1025500021303105D1F02115310561F022303105EE
:1025600009F0B6C0E8E1F9E0E4918E2F90E0E8E1EF
:10257000F9E007C0EAE4F9E0E4918E2F90E0EAE4A4
:10258000F9E0009709F4A4C0A5CFE4E3F9E0E491F1
:102590008E2F90E0E4E3F9E0F4CF8430910508F069
:1025A00097C0880F991FFC01E55AFE4F0190F081FA
:1025B000E02D89E090E08ECF82E190E0E6E0F9E066
:1025C00089CF80916302882309F465CF853009F4AF
:1025D00062CF8091E80083FD5ECF8091E80082FDAC
:1025E0008DCF8091E80080FF83CF8091F2009091A1
:1025F000F3002115310519F08830910550F041E0C4
:10260000089709F040E08091E8008E778093E80019
:102610006FCF44914093F1003196215031090196DA
:10262000E8CF803809F054C08091E800877F80931C
:10263000E800809164028093F1009DCE811148C032
:1026400010916702123008F043C08091E800877F44
:102650008093E800109364020E940B06112311F08E
:1026600084E005C08091E30087FDFACF81E080938C
:10267000630242E061EC81E00E942A0642E261ECE2
:1026800084E00E942A0642E261EC82E00E942A066F
:1026900042E260EC83E00E942A0642E261EC85E0BF
:1026A0000E942A068091630213C0809167028130E4
:1026B00079F481E0933009F080E080936202109217
:1026C000E9008091E800877F8093E8000E940B0674
:1026D0008091E80083FF0AC08091E800877F8093A3
:1026E000E8008091EB0080628093EB00AA960FB621
:1026F000F894DEBF0FBECDBFDF91CF911F9108953B
:10270000882321F00E946F0A0C94690F0895882392
:1027100039F09091FD01982B9093FD010C94690F75
:102720000895882379F19CEF980F913A38F4682F37
:1027300086E691E00E94050C0C94690F90E2980FD8
:10274000983050F4877091E001C0990F8A95EAF7AC
:10275000892F0E946F0AF0CF9BE5980F933020F4E9
:1027600090E080E00C94500798E5980F973120F4A2
:1027700090E080E00C943A07803F20F00E947207BE
:102780000C94860C0895CF93C82F882309F46FC04A
:102790008CEF8C0F813AC0F580910C01882311F1E8
:1027A0008091360287FF1EC0EC2FE695E695E695F0
:1027B000F0E0EA59FE4F828190E04C2F477021E013
:1027C00030E002C0220F331F4A95E2F782239323A1
:1027D000892B91F06C2F86E691E00E94050C0E94F7
:1027E000690F0AC0E8E6F1E08EE691E02191C21798
:1027F00089F38E179F07D1F76C2F86E691E00E9430
:10280000400CCF910C94690F80E28C0F883068F4F3
:10281000C77021E030E001C0220FCA95EAF780912D
:10282000FD01822B8093FD01ECCFEBE5EC0FE33053
:1028300040F4F0E0E35FFE4F808190E0CF910C9494
:102840005007E8E5EC0FE73150F4F0E0EE0FFF1F22
:10285000E05FFE4F80819181CF910C943A07C03F99
:1028600030F08C2F0E942D08CF910C94860CCF91C4
:1028700008951F93CF93DF93182FD0E0C0E08933E2
:1028800011F4C0E5D0E0812F0E94C313209731F4EA
:10289000812FDF91CF911F910C9491138FE99FE0CD
:1028A0000197F1F700C000002197F0CF0F931F931D
:1028B000CF93DF93C62FD42F022FFC018281882370
:1028C000A1F060936F020E942E0790936E02809396
:1028D0006D02C77081E001C0880FCA95EAF7DF91E9
:1028E000CF911F910F910C94871380916F02681301
:1028F00035C080916D0290916E020E941F07883C46
:10290000910560F510E21D0FCD17B9F080E28C0F34
:10291000883040F4C77081E001C0880FCA95EAF79B
:102920000E948013183048F481E09D2F977001C0F9
:10293000880F9A95EAF70E948713802F0E94391416
:10294000183098F4D77081E001C0880FDA95EAF763
:10295000DF91CF911F910F910C948013C77081E08C
:1029600001C0880FCA95EAF7F3CFDF91CF911F918D
:102970000F91089569EE7EEF90E080E00E946A2456
:1029800060E082E090E00E944C2460E083E090E010
:102990000E944C24109200021092FF0160E084E03B
:1029A00090E00E944C2460E082E290E00E944C247F
:1029B00060E085E090E00E944C2460E086E090E0DA
:1029C0000E944C246FEF87E090E00E944C2440E08E
:1029D00050E0BA0188E090E00E945E2460E08DE063
:1029E00090E00E944C2440E050E0BA0188E190E081
:1029F0000E945E2460E087E190E00E944C2440E069
:102A000050E0BA018CE190E00E945E2470E060E04A
:102A100080E290E00E946A2440E050E0BA0188E140
:102A200090E00E945E2480E00E94940D0E94AC0D14
:102A300040E050E0BA018FE090E00E945E2440E068
:102A400050E0BA0183E190E00C945E243F924F92F3
:102A50005F926F927F928F929F92AF92BF92CF922E
:102A6000DF92EF92FF920F931F93CF93DF9300D0EB
:102A700000D00F92CDB7DEB78C01FC018381948129
:102A8000892B31F08081918189238F3F09F0B1C575
:102A90000F900F900F900F900F90DF91CF911F919B
:102AA0000F91FF90EF90DF90CF90BF90AF909F90ED
:102AB0008F907F906F905F904F903F9008950E940D
:102AC000EE0DF82E682F89819A810E94A80A6981EB
:102AD0007A818F2D0E94E10D7C01F801828188238B
:102AE00009F47AC5970122513F452031310508F09C
:102AF00046C58FEF9FE00E943E24FEEEEF0E57E0AA
:102B0000852E55E0952E8823A1F18091DB018770F9
:102B100009F4BECFF8018281882309F4B9CF8091EE
:102B2000370282FDB5CF82E00F900F900F900F908B
:102B30000F90DF91CF911F910F91FF90EF90DF9059
:102B4000CF90BF90AF909F908F907F906F905F904D
:102B50004F903F900C943C10811420E19206A9F212
:102B6000C4010E943E24811101C0EA943FEF831A00
:102B7000930AE110F1CF1C821B82442443944AE063
:102B8000342E74014FEFE41AF40AC4010E943E246B
:102B900089831A82882309F4B8CF9FEF980F933066
:102BA00000F58A83498252E0850E911CC7010E947C
:102BB0003E248B83882309F4A8CFCE0101967C01A3
:102BC000F70120812223E9F2213009F049C09181E7
:102BD0008281913041F4F2E0EF0EF11C0E94391431
:102BE00009C04701EACF923049F422E0E20EF11C1D
:102BF0000E94C3133FEFE31AF30AE2CF933031F49C
:102C000032E0E30EF11C0E949113F4CF943021F0D6
:102C10004FEFE41AF40AEECF52E0E50EF11C30E07B
:102C200020E0B7016F5F7F4FF70141818053990B1F
:102C30008A30910550F021503109E0F28FE99FE090
:102C40000197F1F700C00000F6CF329EF001339EED
:102C5000F00D11249C012E0F3F1F842F7B01E1CF2B
:102C6000E22FF0E0EE5FFD4F5490822F869586951F
:102C7000869590E0FC01EE50FE4F64902770712C19
:102C8000022E02C0759467940A94E2F7E1E06E2286
:102C90007724FC01EE51FE4FA490B12C022E02C00D
:102CA000B594A7940A94E2F7F1E0AF22BB24FC01AB
:102CB000EE52FE4FC490D12C02C0D594C7942A95F1
:102CC000E2F721E0C222DD246114710419F081EEE3
:102CD0000E94C313A114B10419F086EE0E94C3131D
:102CE000852D0E943914AB2819F086EE0E949113AD
:102CF000672819F081EE0E949113CD2809F47ACF4C
:102D00008CE26CCF81E00E9487100E941C10FDCEE7
:102D100081E00E942B10F9CF82E0F5CF25EFE2167B
:102D20002CE5F20609F469C008F463C046EFE41626
:102D30004CE5F40609F465C0882309F46BC41092CD
:102D40006F0253E0E5165DE5F50608F061C08AEF15
:102D5000E8168CE5F80630F4C70182509C4544978C
:102D600008F062C00E946F0E909337028093360283
:102D7000F1E1EF16FCE5FF0609F440C108F0B5C02B
:102D800039E0E3163CE5F30609F422C108F07AC005
:102D900055E0E5165CE5F50609F412C108F05CC0E3
:102DA00093E0E9169CE5F90609F400C108F004C1B6
:102DB000809136028160F2E0EF16FCE5FF0609F42F
:102DC000F8C060913602F090370284E090E00E94F3
:102DD0004C246F2D82E290E00E944C240E949C10B3
:102DE00094CE27E245EE65EEF3C326E241EE60EEB7
:102DF000EFC327E245EE64EEEBC326E241EE62EE5E
:102E0000E7C327E245EE66EEE3C328E241E0EBCFFD
:102E100091E6E9169DE5F90609F4A4CFE5EAEE1678
:102E2000EDE5FE0609F49ECF26E1E2162CE5F2065A
:102E300009F000C48091FD018A7A91E009F490E0E4
:102E40009093860169E2811165E386E691E00E9434
:102E5000400C0E94690F59CE80913602806227E0B3
:102E6000E2162CE5F20609F4A4C0809136028061D6
:102E700038E0E3163CE5F30608F49BC08091360287
:102E8000806497C0809136028B7F4DE0E4164CE55C
:102E9000F40609F48EC098F48BE0E8168CE5F80689
:102EA00009F4A0C0809136028C609CE0E9169CE594
:102EB000F90608F47EC0809136028D7F7AC0809139
:102EC00036028F7EEFE0EE16ECE5FE0609F471C0E7
:102ED00080913602877FF0E1EF16FCE5FF0608F4EB
:102EE00068C0809136028F7D64C02DEFE2162CE51C
:102EF000F20609F47FC060F545E1E4164CE5F406FE
:102F000009F48AC088F483E1E8168CE5F80609F430
:102F10007FC008F477C00E949C1090913602892FE0
:102F200097FB87F9805845C0EBEFEE16ECE5FE06FF
:102F300009F44AC008F05AC08091370281602AEF34
:102F4000E2162CE5F20609F03CCF8093370239CF28
:102F500031E0E3163DE5F30609F46AC098F4809188
:102F600037028C7F5FEFE5165CE5F50671F3B0F193
:102F700080913702982F909591708E7F892B90FBCE
:102F800081F9E3CF91E6E9169DE5F90609F456C00B
:102F9000E5EAEE16EDE5FE0609F457C0F2E0EF169D
:102FA000FDE5FF0609F00DCF60E043C080913602D9
:102FB00082608093360205CF809136028460F9CF1B
:102FC000809136028860F5CF809137028260BDCF54
:102FD0000E949C10809136028068EBCF809137026E
:102FE0008360B3CF809136028E7FE3CF809137022A
:102FF0008E7FABCF809137028D7FA7CF8091360235
:103000008F7BD7CF0E949C10809136028F77D1CFD3
:1030100080913602837FCDCF8091360282FB992743
:1030200090F921E0922790FB82F990FB83F9C1CFC0
:1030300061E08EE090E00E944C24C3CE9091360275
:10304000892F8F7E94FF8061B4CF90913602892FB3
:103050008E7F90FF8160ADCF0E949C103FEF44E3D4
:103060005CE0315040405040E1F700C000000E9459
:10307000E10B82E892E0FCC20E94BA1446CD809136
:10308000370282FB882780F991E089270E94581037
:10309000F8018281E080F180882309F443C0C701F0
:1030A0000E94EE0DD82E682FC7010E94A80AB70112
:1030B0008D2D0E94E10D0E94E1087C01882EF8010F
:1030C000D280B580B2943FE0B3228091DB0187705B
:1030D000C1F0AD2CDD20B1F08F2D807F803421F048
:1030E00080E28E0D883068F08091370282FD09C041
:1030F00082E00E943C108091DB018770AA24A39497
:103100008111A12C9F2C92942FE09222FBE0F915C3
:1031100008F478C0E92DF0E0E457FB4D0C940D2441
:1031200080E0B4CFC7010E94800AD82EC0CF2F2DD7
:103130002F70C22E8F2D807F19F0C29490EFC9227C
:10314000DD20B9F0CC2069F080E28E0D883010F0DF
:10315000811009C08091FD01C82AC092FD010E9422
:10316000690F8E2D4DC08091FC01C82AC092FC01D0
:10317000F6CF8E2D0E949113CC2009F443C080E23B
:103180008E0D883010F0811004C08C2D0E946F0AC3
:1031900006C0C0948091FC01C822C092FC010E942C
:1031A000690F30C03F2D3F70C32E8F2D807F80323E
:1031B00019F0C29480EFC822882089F041E084167B
:1031C00009F47EC0DD2009F488C0BB2009F47EC06C
:1031D000F801858180FFC5CF8F70858377C02091EE
:1031E000370222FF4AC0DD2009F441C0CC2039F06B
:1031F0008091FD01C82AC092FD010E94690F80E004
:103200000E94C313E92DE850FF0B349710F40E947D
:103210006607AA2009F43CCC8091DB0180FD38CC04
:10322000F80112828595859585950E948710C801C1
:103230000E9426158091DB018595859585950F90D7
:103240000F900F900F900F90DF91CF911F910F91E2
:10325000FF90EF90DF90CF90BF90AF909F908F90B6
:103260007F906F905F904F903F900C942B1080E078
:103270000E949113CC2031F288CFDD20A1F09091F3
:10328000FE018C2D892BB11003C00E948713BACF89
:1032900051E0B512FACF22FDB5CF981709F4B2CF9D
:1032A0008093FE01AFCFB11006C00E94690A8C2D39
:1032B0000E948013A7CF81E0B81609F4A3CFF5CF01
:1032C000DD2031F095E09B1508F49CCF8C2DDDCFEF
:1032D000E4E0EB1508F496CFEACFBB2041F3F9E325
:1032E0008F1209C02FEF37EE43E0215030404040AD
:1032F000E1F700C000008E2D0E94911383CF8F2D27
:1033000086958695837061F0813009F07BCFC70187
:103310009370D11002C090E080E00E943A0772CF13
:10332000C7019370D11002C090E080E00E94500766
:1033300069CF8E2DDD2029F00E942D080E94860C79
:1033400061CF0E947207FACF8F2D837009F040C0C1
:10335000D11058CF4E2D429546954770440F440FDB
:103360008E2D8F7090E0042E02C0880F991F0A9452
:10337000E2F730E020E0E4FE09C02FE030E002C0D8
:10338000220F331F4A95E2F7209530954F2D469531
:1033900046954370423099F078F46091FF01709146
:1033A0000002413039F0822B932B862397230E9411
:1033B000961028CF862B972B822B932BF8CF822B1E
:1033C000932B2091FF013091000282279327EFCFAA
:1033D0008695DD2011F08F2D8170882309F412CF9E
:1033E0004E2D429546954770440F440F8E2D8F7099
:1033F00090E0042E02C0880F991F0A94E2F730E093
:1034000020E0E4FE09C02FE030E002C0220F331FAD
:103410004A95E2F7209530954F2D46954695437095
:10342000423099F078F460917002709171024130ED
:1034300039F0822B932B862397230E941610E2CE1D
:10344000862B972B822B932BF8CF822B932B2091BB
:1034500070023091710282279327EFCF5F2D5F704A
:10346000F52EDD2029F0852F0E9487108E2D0DCF9F
:103470008E2D0E9480138F2D0E942B10C3CE8E2D77
:1034800092EF8916A1F1981570F0E0EF8E16D1F049
:10349000F1EF8F1691F0DD2009F461C0B11061CE1B
:1034A0008F2D8F7128C023EF821641F134EF8312E4
:1034B000F2CF8091370282FF32C08F2D8F71DD20D5
:1034C000D9F219C0DD2071F044E04B1508F49ACE12
:1034D0002F2D2F7181E090E002C0880F991F2A954F
:1034E000E2F7B5CF55E05B1508F48CCEF1CF8F2D08
:1034F0008F71D110C1CF0E94871084CE90E080E000
:10350000DD2009F49ACF9F2D9F7121E030E0F90171
:1035100002C0EE0FFF1F9A95E2F7CF018ECFDD209C
:1035200099F0FF2DFF71FF2E8F2F0E948710809141
:10353000370282FD07C028E0F29EC001112483609B
:103540008093DB018F2DD7CF81E00E943C1031E0CA
:103550003B1508F057CE82E00E943C1053CEBB20B2
:1035600059F0893309F0C7CE4FEF57EE83E0415051
:1035700050408040E1F7BDCE8F2D8F717DCFF0E1BF
:10358000EF16FFE5FF0609F4BDCB21E1E2162FE5BA
:10359000F20609F4C1CB43EFE4164CE5F40609F456
:1035A00024CC08F0BBCB98EDE9169CE5F90609F4AC
:1035B00018CCE9EDEE16ECE5FE0609F426CCF7EDA5
:1035C000EF16FCE5FF0609F0B7CB26E241EE61EE0F
:1035D000C8010E94561499CA30E1E3163FE5F3068C
:1035E00009F496CB41E1E4164FE5F406A1F682E03A
:1035F00090CB85E0DE01119601900D928A95E1F75E
:10360000F801228189819A81211159CA0E94800A78
:10361000F82E5DCAF6E1EF16FCE5FF0609F038CD9D
:103620008091860169E2811165E386E691E00E945E
:10363000050C0FCC2EEDE2162CE5F20609F41CCD9C
:10364000D0F4E1144CE5F40609F406CD51E0E5169A
:103650005CE5F50609F01CCD90913002892F8E7F34
:1036600090FF81608093300280FF03CD84E992E077
:103670000E94EF044ACA8BE5E8168DE5F80609F4C6
:103680004FCD9CE5E9169DE5F90609F4F8CCEAE58D
:10369000EE16EDE5FE0609F0FBCC81E0F7CC1F93BA
:1036A000CF93DF938091A801807FA9F48091A50139
:1036B000882389F08091DA01D091A9016091A3015A
:1036C0007091A401A091A601B091A701C62FC723B4
:1036D00016E0D81304C0DF91CF911F91089590E0B8
:1036E000109711F0CF3F19F401968770F2CF189F11
:1036F0009001199F300D1124F901E655FE4F4181CB
:103700004713F2CF40814613EFCF42814111ECCFF6
:10371000438154814A1B5B0B483C510528F780913B
:10372000A8018F7080618093A801F901E155FE4FD7
:1037300080818F708061808383EA91E00E942615EA
:10374000DF91CF911F910C94760AAF92BF92CF92E6
:10375000DF92EF92FF920F931F93CF93DF93CDB73A
:10376000DEB761970FB6F894DEBF0FBECDBF8C01F8
:1037700085E0F801DE011D9601900D928A95E1F732
:10378000F801E28083EAA82E81E0B82E6091A601BC
:103790007091A7016115710509F432C19091A301DF
:1037A0004091A401892F84238F3F09F429C12081EE
:1037B0003181C380D480F090A501F601E61BF70BA0
:1037C000FF2009F4E8C08091A801582F507FE83C01
:1037D000F10508F0ABC0511177C0FE2C431321C096
:1037E00092131FC0E1101DC08F7080618093A801EB
:1037F000C5010E9426158091A801F80185838F2DAF
:1038000061960FB6F894DEBF0FBECDBFDF91CF91AA
:103810001F910F91FF90EF90DF90CF90BF90AF90EE
:103820000895CD2829F0822F83238F3F09F003C10B
:1038300080E0F82FF170DF2E80FF3CC08091DA012C
:103840004091A90156E0841315C02D873E878D85D0
:103850009E850E942A0E292F22952F702230F0F08B
:10386000243018F59F70F1F0F8019581907FD1F424
:10387000D12C1EC090E0589FF001599FF00D1124EB
:10388000E655FE4F6181361306C06081261303C0E2
:103890006281E6120FC001968770D5CF9F7011F03C
:1038A000882331F3805E883018F3C8010E94261502
:1038B000FD2CA5CFEE2009F4A2CF8091A801816054
:1038C0008093A801F12C9BCF431306C0921304C030
:1038D000F801EE2009F479C0C8010E94360E882351
:1038E00009F1EE20F9F08091A801803270F020916A
:1038F000A3013091A40138872F831986DB86CA86FD
:103900008C87CE0107960E94261586E0F801A3EA6F
:10391000B1E001900D928A95E1F70E944F1BFF24C0
:10392000F3946DCFC8010E942615F9CF51110AC03A
:1039300083EA91E00E94261586E0F50111928A95AE
:10394000E9F7C0CF43130FC092130DC0E1100BC0B5
:10395000F8018583C8010E94261586E0F5011192C1
:103960008A95E9F74CCFC8010E94360E8823D1F220
:10397000EE20C1F28091A801803238F22091A3019B
:103980003091A4013A8329831B82DD82CC828E830D
:10399000CE010196B8CFE83CF105F8F6FE2CEE20FA
:1039A00009F243131FC092131DC08091A80180FD2E
:1039B00010C0982F907F69F0F8018583903F31F017
:1039C000982F907F905F8F70892B8583C8010E940C
:1039D000261586E0F801A3EAB1E001900D928A95E0
:1039E000E1F70DCFC8010E94360E81118ECF809174
:1039F000A80181608093A801C8010E942615FFCE0E
:103A0000EE2009F48FCFC8010E94360EF82E8823CD
:103A100009F488CF86E0F801A3EAB1E001900D92A5
:103A20008A95E1F78091A3019091A4010E942A0E4A
:103A30000E944F1BE4CE81E08E25FBCE1F93CF93D7
:103A4000DF93CDB7DEB767970FB6F894DEBF0FBE32
:103A5000CDBF4B8B5C8B6D8B7E8B8F8B61111092EE
:103A6000FC011A8A198A85E0FE017396DE011D9613
:103A700001900D928A95E1F786E0FE013D96DE0108
:103A8000179601900D928A95E1F7CE0107960E9454
:103A9000A51B882389F016E08091DA019091A90195
:103AA000891349C067960FB6F894DEBF0FBECDBF2D
:103AB000DF91CF911F91089586E0FE013796DE01D8
:103AC000119601900D928A95E1F78A859B85892B45
:103AD00011F38F81988589238F3FE9F22091A90105
:103AE00030E0C9010196877099274091DA014817A3
:103AF000190671F40E949C101092A9011092DA012B
:103B000086E0E3EAF1E0DF011D928A95E9F7C3CF91
:103B100096E0929FD001939FB00D1124A655BE4F01
:103B2000FE01319601900D929A95E1F78093A901DB
:103B30000E94760AB0CF819FC001112486559E4F06
:103B40000E94A51B882309F4ADCF8091DA0190E093
:103B50000196877099278093DA019ECF1F920F926A
:103B60000FB60F9211240BB60F922F933F934F93E2
:103B70005F936F937F938F939F93AF93BF93CF93F5
:103B8000DF93EF93FF93D091E900DF708091EC0019
:103B9000C82FC17080FDC0E81092E9008091F0004C
:103BA000877F8093F00078940E94B1101092E90012
:103BB0008091F00088608093F000CD2BCF70C0938F
:103BC000E900FF91EF91DF91CF91BF91AF919F916C
:103BD0008F917F916F915F914F913F912F910F90B6
:103BE0000BBE0F900FBE0F901F9018951F920F9253
:103BF0000FB60F9211240BB60F922F933F934F9352
:103C00005F936F937F938F939F93AF93BF93EF9344
:103C1000FF938091E10082FF15C08091E20082FF56
:103C200011C08091E1008B7F8093E10020913D02E3
:103C30002F5F822F62E30E94ED23992309F4C2C013
:103C400020933D028091DA0080FF28C08091D80047
:103C500080FF24C08091DA008E7F8093DA0080910B
:103C6000D90080FFE5C084E189BD86E189BD09B442
:103C700000FEFDCF81E08093630287E798E00E9419
:103C8000EF0480913E02811109C00E9491050E94BB
:103C90005C068091E20084608093E2008091E10004
:103CA00080FF1BC08091E20080FF17C08091E2007E
:103CB0008E7F8093E2008091E20080618093E20039
:103CC0008091D80080628093D80019BC85E08093F1
:103CD00063028FE798E00E94EF048091E10084FF87
:103CE0002FC08091E20084FF2BC084E189BD86E172
:103CF00089BD89B5982F917080FFFBCF8091D80046
:103D00008F7D8093D8008091E1008F7E8093E100C9
:103D10008091E2008F7E8093E2008091E2008160DA
:103D20008093E20080916402882309F48BC084E0D0
:103D30008093630283E898E00E94EF04809163021D
:103D40008091E10083FF2BC08091E20083FF27C0B8
:103D50008091E100877F8093E10082E0809363029D
:103D6000109264028091E1008E7F8093E100809147
:103D7000E2008E7F8093E2008091E2008061809378
:103D8000E20042E060E080E00E942A068091F000BC
:103D900088608093F00087E898E00E94EF04FF912C
:103DA000EF91BF91AF919F918F917F916F915F91B3
:103DB0004F913F912F910F900BBE0F900FBE0F9020
:103DC0001F90189510923D0280913C02882309F4BF
:103DD00039CF809163028430C1F49091E9009F70E3
:103DE0002091EC00822F817020FD80E8892B95E0E6
:103DF0009093E9009091EB0090FF04C09091EE0049
:103E000097FD08C08F708093E90010923C021ACF92
:103E10001092F1009091E80095FDFACF9091E800A2
:103E200090FFF0CF9091E8009E779093E800EACF62
:103E300019BC109263028BE798E00E94EF04109285
:103E40003E022CCF8091E30087FD93E090936302C4
:103E500071CF78941F921FB61F9211248F939F9356
:103E6000AF93BF938091320290913302A0913402BC
:103E7000B09135020196A11DB11D8093320290933D
:103E80003302A0933402B0933502BF91AF919F915A
:103E90008F911F901FBE1F9018951F921FB61F92E3
:103EA00011248F939F93AF93BF938091310281111F
:103EB00013C08091320290913302A0913402B091EC
:103EC00035024196A11DB11D8093320290933302B9
:103ED000A0933402B0933502BF91AF919F918F911F
:103EE0001F901FBE1F901895CDB7DEB7AD970FB6C8
:103EF000F894DEBF0FBECDBF84B7877F84BF0FB6F7
:103F0000F894A89580916000886180936000109279
:103F100060000FBE80E890E00FB6F89480936100D7
:103F2000909361000FBE85B7806885BF85B78068B4
:103F300085BF8CEE9AE090936501809364010E94A6
:103F400091050E945C068091E20084608093E2000B
:103F50007894809163028823A1F01091E9001F708A
:103F60009091EC00892F817090FD80E8182B1092C1
:103F7000E9008091E80083FD0E94B1101F7010934A
:103F8000E90082E084BD93E095BD9AEF97BD8093F0
:103F90006E000E94560E811102C00E94AC0D80E698
:103FA0000E94870881E60E94870882E60E948708AF
:103FB00083E60E94870802E411E0AFE4EA2EA1E064
:103FC000FA2ED8018D918D018F3F11F00E94870844
:103FD000E016F106B1F788E0E5E1F2E0DF01282F15
:103FE0001D922A95E9F7E4E0F2E0DF011D928A953F
:103FF000E9F790E080E00E944624893E9E4F21F43C
:104000000E94560E811102C00E94BA1482E090E014
:104010000E943E24809330020E946F0E90933702DC
:10402000809336020E947D0EEFE3FCE93197F1F7B1
:1040300000C000000E947D0E8091150280FF08C024
:104040006FEF7FEF90E080E00E946A240E94E10B16
:1040500083E090E00E943E2490E00E94961080E071
:1040600091E090932D0280932C0280916302853021
:1040700079F484ED92E00E94EF0404E116E180916E
:104080006302853009F446C00E949C100E946607B6
:104090000E947D0E882359F08FB7F8944091320228
:1040A0005091330260913402709135028FBFACE0C1
:1040B000B2E0BCA7ABA7E5E14E2EE2E05E2E10E039
:1040C00000E0FAED6F2EF2E07F2E0DA7F201E190F5
:1040D000F1902F01ABA5BCA5AD90BD90BCA7ABA73F
:1040E000AE14BF0409F052C00F5F1F4F043011051A
:1040F00061F78FEF8EA38FA318A60E942E07816011
:10410000782F9AA789A74EA15FA168A58AA50E94CA
:104110001E1D6DC080916302843021F11092310226
:1041200088E190E0A0E40FB6F894A8958093600031
:104130000FBEA093600083B7817F846083BF83B785
:10414000816083BF7894889583B78E7F83BF0FB6D5
:10415000F894A89580916000886180936000109227
:1041600060000FBE80916202882309F488CF0E940C
:104170007D0EE5E1F2E081919191892B09F004C374
:104180008DE192E08E179F07B1F779CF80913002D1
:1041900081FD4FC1AE24BF2480E0CC24C394D12C38
:1041A00095012C213D21232B09F47DC189A3ADA5C7
:1041B000AAA3EC20FD2081E0EF2809F480E08BA386
:1041C0000E942E078160782F9DA38CA349A15AA13C
:1041D0006BA18DA10E941E1D000F111FF801E45F4D
:1041E000FD4F80819181C826D926D182C08286E088
:1041F000E4E2F2E0DE01119601900D928A95E1F77A
:10420000F0902602E09027021091280200912902E6
:104210001092260210922702109228021092290270
:104220008F2D8E2909F448C080912202909123029B
:104230000E941F079C0190911F02992309F4C8C294
:1042400025313105C8F19F3F19F09F5F90931F0200
:10425000FF2059F00E940D089FEF1F140CF491E00D
:10426000899F802D112480932602EE2059F00E9410
:104270000D089FEF1E140CF491E0899F802D1124EE
:1042800080932702309126023323B1F02091270238
:10429000222391F045EB3403C0011124992309F442
:1042A00009C19093260245EB240390011124332386
:1042B00009F404C130932702812F802B09F448C0F0
:1042C00080912002909121020E941F079C019091F1
:1042D0001D02992309F477C221353105C8F19F3FAA
:1042E00019F09F5F90931D02112359F00E94EB0774
:1042F0009FEF11160CF491E0899F802D112480937B
:104300002802002359F00E94EB079FEF10160CF4CF
:1043100091E0899F802D11248093290230912802F9
:104320003323B1F020912902222391F045EB34038D
:10433000C0011124992309F4C5C09093280245EBCC
:10434000240390011124332309F4C0C030932902BF
:104350008091260290912702892B90912802892B27
:1043600090912902892B11F00E94860C86E0FE01B3
:104370003196A4E2B2E001900D928A95E1F70E9495
:104380006607182F80911402181721F11093140258
:104390008091300282FF1EC080FF1CC086E093E047
:1043A0000E94EF048091300280FF14C01F921F937F
:1043B00081E093E09F938F930E9488058091300263
:1043C0000F900F900F900F9080FF04C08FEF92E03E
:1043D0000E94EF0480916302843009F046CE83E0AE
:1043E0008093E9008091E80082FF3FCE8091E80051
:1043F00090E085FF0CC00E94B00530E2E32EF12C66
:104400008E010F5F1F4F882309F46EC091E08091E9
:10441000E8008B778093E800992309F426CEE981A0
:10442000E150E33108F0E6C0F0E0E856FB4D0C94B3
:104430000D2488EE92E00E94EF0465E1862E62E092
:10444000962ED12CC12CDF92CF92E3EEF2E0FF93B7
:10445000EF930E94880580EE92E00E94EF04D40161
:104460008C9111962C90B2E08B0E911C0E94D40A74
:10447000382E822D0E94D40A3F928F937F926F92A2
:104480000E94880588ED92E00E94EF04EFEFCE1ABB
:10449000DE0A0FB6F894DEBF0FBECDBF94E0C9169A
:1044A000D10489F677CE8F5FCC0CDD1C8D3009F0FE
:1044B00077CE1ACE81E080932602F5CE81E08093FC
:1044C0002702FACE81E08093280239CF81E08093E1
:1044D00029023ECF8091F100D8018D938D01B1E08A
:1044E000EB1AF10809F492CF8091E80085FDF2CF34
:1044F0008091E8008B778093E8000E94B0058823C4
:1045000099F384CF1A8289E08B833FC08A818230FD
:1045100009F450C18330A9F0813009F06BC02FB786
:10452000F89460913202709133028091340290913C
:1045300035022FBF0E9416246B837C838D839E835C
:1045400024C08091150290911602982789279827F8
:104550009C838B838091170290911802982789275A
:1045600098279E838D838091190290911A02982733
:104570008927982798878F8380911B0290911C022E
:104580009827892798279A878987809163028430A2
:1045900009F06BCD1091E9001F709091EC00892F0C
:1045A000817090FD80E8182B82E08093E900809173
:1045B000E80080FF0DC050E040E060E270E0CE0116
:1045C00001960E94E1058091E8008E778093E800D3
:1045D0001F701093E90049CD8A81823059F46B81B4
:1045E0007C818D819E810E94162486E290E00E944B
:1045F0004C24CBCF8FEF8983C8CF4C816B818A81CC
:104600000E94BB0D9827892798279E838D83BDCF55
:104610000D811E811027012710278A81EB80EAE196
:10462000EE9E70011124F8E68F9FE00CF11C11241E
:104630008C8190E0880F991FE80EF91E612FC70149
:1046400087960E944C24602FC7018896D0CF0E9485
:104650003F0D9BCF80E18A8398CF8AE08A8389EFE0
:1046600053CF0A811B81102701271027CE01019605
:104670007C01CC80DC01AC0DB11D6D01C801895FEE
:104680009A4FCE14DF0409F480CF093FBAE01B072C
:1046900050F40E943E24F70184830F5F1F4FBFEF49
:1046A000EB1AFB0AEBCFD70114961C92F6CF0A81C6
:1046B0001B81102701271027FE0131966F01EC8026
:1046C000E00EF12EF11CC801895F9A4FE016F10649
:1046D00009F45BCF093FFAE01F0728F4D6011496CE
:1046E0006C910E944C24BFEFCB1ADB0A0F5F1F4F67
:1046F000EACF0E942F0D49CF8CE0ADCF0A811B81FC
:10470000102701271027FE0131967F01CC80CF01B1
:104710008C0D911D6C01C8018796CE14DF0409F43D
:1047200034CF003EA4E01A0750F40E943E24F70163
:1047300084830F5F1F4FBFEFEB1AFB0AECCFD7014B
:1047400014961C92F6CF0A811B811027012710278F
:10475000FE0131966F01EC80E00EF12EF11CC801D4
:104760008796E016F10609F410CF003EF4E01F072B
:1047700028F4D60114966C910E944C24BFEFCB1AFA
:10478000DB0A0F5F1F4FEBCF09BD19BD09B400FE57
:10479000FDCF8091D8008F7D8093D8008091E0007C
:1047A00082608093E0008091E00081FDFCCF0E9458
:1047B0009C1065CC86E290E00E943E241B821C8205
:1047C0001D828E83E2CE2B30310508F08ACDC0CD1C
:1047D0002B30310508F039CD6FCD991B79E004C03D
:1047E000991F961708F0961B881F7A95C9F7809530
:1047F000089597FB072E16F4009407D077FD09D093
:104800000E941D2407FC05D03EF4909581959F4F92
:104810000895709561957F4F0895EE0FFF1F002456
:10482000001C0BBE0790F691E02D0994692796278E
:1048300069277827872778270895AA1BBB1B51E192
:1048400007C0AA1FBB1FA617B70710F0A61BB70B00
:10485000881F991F5A95A9F780959095BC01CD01A5
:104860000895FB01DC0104C08D910190801921F4B1
:1048700041505040C8F7881B990B0895F999FECF15
:1048800092BD81BDF89A992780B50895A8E1B0E05E
:1048900042E050E00C947224262FF999FECF92BD8D
:1048A00081BDF89A019700B4021639F01FBA20BDF5
:1048B0000FB6F894FA9AF99A0FBE08950396272F27
:1048C0000E944D240E944C24252F0E944D24242F09
:1048D0000C944D240196272F0E944D240C944C24B7
:1048E000DC01CB01FC01F999FECF06C0F2BDE1BDB0
:1048F000F89A319600B40D9241505040B8F708959F
:10490000F894FFCF9711BF116813BF116813F2110C
:104910001312681311131E1397189718D218D21870
:104920007F19991902190219A4192E1A3F1A3F1A50
:1049300082228622EC22FD2208232723FA22FA2251
:10494000FA22FA22FA222A232D233123572379230C
:064950007C237E23A3235B
:104956001C07A10B800B7C0B780B1B070181828344
:10496600E200E900EA00B500B600B700CD00830119
:10497600CC008A019201940121022302240225021D
:10498600260227022A02B300B4006F00700060619D
:1049960062636564929394956697303132333440FE
:1049A60022B62292017001BA0098009D08B608D678
:0449B60008EF0800FE
:00000001FF
