:100000000C94CE020C9415030C9415030C94150358
:100010000C9415030C9415030C9415030C94150300
:100020000C9415030C9415030C94322C0C94EE2BA9
:100030000C942F2D0C9415030C9415030C9415039C
:100040000C9415030C9415030C9415030C941503D0
:100050000C9415030C940B2D0C9415030C941503A0
:100060000C9415030C9415030C9415030C941503B0
:100070000C9415030C9415030C9415030C941503A0
:100080000C9415030C9415030C9415030C94150390
:100090000C9415030C9415030C9415030C94150380
:1000A0000C9415030C9415030C9415030501090217
:1000B000A10185020901A100050919012905150001
:1000C00025019505750181029501750381010501E1
:1000D000093009311581257F950275088106093897
:1000E0001581257F950175088106050C0A380215D2
:1000F00081257F950175088106C0C005010980A191
:1001000001850319012AB700150126B7009501756D
:10011000108100C0050C0901A101850419012AA064
:1001200002150126A002950175108100C005010984
:1001300006A1018506050719E029E71500250195A7
:1001400008750181020507190029EF1500250195A1
:10015000F0750181020508190129059505750191C0
:1001600002950175039101C00660FF0961A10109B3
:1001700062150026FF0095207508810209631500AD
:1001800026FF00952075089102C005010906A1010E
:10019000050719E029E71500250195087501810279
:1001A0009501750881010507190029FF150026FF33
:1001B0000095067508810005081901290595057542
:1001C000019102950175039101C00000000000003B
:1001D000000000000000000000000000000000001F
:1001E00000000000000000000000000000007E0F82
:1001F00000D4FFFFFFC700000078000000000000EF
:1002000000002A2B28000000000000000000000071
:10021000000000000029000000002C1E34202122D4
:1002200024342627252E362D3738271E1F2021223D
:10023000232425263333362E37381F0405060708B6
:10024000090A0B0C0D0E0F101112131415161718A6
:10025000191A1B1C1D2F3130232D350405060708E4
:10026000090A0B0C0D0E0F10111213141516171886
:10027000191A1B1C1D2F3130354CFD377A585A0086
:100280000004E6D6B4460200210116000000742FD7
:10029000E5A3E002C0012D5D003D8889C65436C348
:1002A000174FE4E658C205B24D5DA0E8F14FD9C240
:1002B0006D7BB512BDEAC6E256942CD7C87428ED02
:1002C000476DBEFE6D7C21FAB1AA59046755179996
:1002D000D80B6116D434CE6B816A564F45CC321E92
:1002E0002681A2692B78A6778489DA8378A92025CC
:1002F00043E9C74481D7C0646360DDE67889EFC90C
:1003000025551D2DC78CB9B0599BCF4D6A7A5AE33C
:10031000976393BC32974AC49D0F80E4D01E0E248D
:10032000A471E0094D2D099D22BD86C6FB7322AB49
:10033000601C17C1E8D3AA6FC6525C4C23890C7E9F
:10034000FB878609E6D9DFFC2FBF9D85528A251ED3
:10035000269375DC06B66DCF3B1D0AAAFE9E2B7751
:10036000AEB8960EC83E6387E1DB319FC015CE5311
:100370005AC0D76B76EAAADD1E7D4B0AB28F46AB18
:100380007F601B713EAAF495CC199A51E381D691F6
:1003900021CA5109EB63FAE3957F2F232264881A5F
:1003A000B1914C257AF935FB8D97EFE0870D578594
:1003B0006F842D5C998112BC2E6BC2E8513FB59CB5
:1003C0009FED28578E0000000000E700A5C1004106
:1003D00021BC0001C902C105000049834847B1C4DE
:1003E00067FB020000000004595AAA00A900BC00E3
:1003F000BB00F200F300F100F0002D012E011D0101
:100400001C01010001000100010029002C00025123
:10041000AC00AB002800A8000000AE002A5D52002E
:100420000100500051004F00F4000000F5000100F1
:1004300001000100010001000100105000001150F6
:1004400001000100010001000100010001000000A5
:10045000010001000100A703000002000200A30345
:10046000000003000100A8030000040002008D0347
:100470008F0505000100A9030000060002008F039C
:10048000000007000200A503000008000100AA0305
:1004900000000900020091036A050A0002009303AC
:1004A0006A050B00020095036A050C000200970321
:1004B0006A050D00020099036A050E0002009B0305
:1004C0006A050F0002009D036A05100002009F03E9
:1004D0006A0511000200A1036A0512000200AB03C5
:1004E000000013000200AD03000009025B000301DD
:1004F00000A0FA0904000001030101000921110113
:1005000000012240000705810308000A09040100D8
:100510000203000000092111010001222200070549
:1005200082032000010705030320000109040200E3
:10053000010300000009211101000122BC00070590
:10054000840320000A1201000200000008626670A5
:10055000730100010203011C037600690061006C55
:10056000003A006600360034006300320062003357
:100570000063000000140373006E006100740063E8
:1005800000680070006100640000000A03780069E0
:1005900000610030000000040309040011241FBEA4
:1005A000CFEFDAE0DEBFCDBF04B603FE27C08091F7
:1005B000A5049091A604A091A704B091A804873047
:1005C000904BA740B04BD1F41092A5041092A60412
:1005D0001092A7041092A80414BE84B7877F84BF2A
:1005E0000FB6F894A89580916000886180936000B0
:1005F000109260000FBEE0E0F8E3099511E0A0E082
:10060000B1E0E0E1FCE602C005900D92AC38B10724
:10061000D9F724E0ACE8B1E001C01D92A53AB207D9
:10062000E1F70E94562D0C94D4350C940000E8EDAF
:10063000F0E080818E7F80831092E2001092DA00D9
:100640001092E100A0EEB0E08C9181608C938081EB
:100650008F77808319BCA7EDB0E08C918E7F8C934F
:1006600080818F7E80831092740408952091E4002D
:100670003091E50095E6A9012091EC00822F817070
:1006800020FF06C08091E80080FF06C080E008954A
:100690002091E80022FD1AC08091A204882389F0ED
:1006A000853089F08091EB0085FD0FC02091E4003A
:1006B0003091E50042175307F9F29150E1F684E0DA
:1006C000089582E0089583E0089581E00895EF920F
:1006D000FF920F931F93CF937C018B010E943603EF
:1006E000C82F811117C08091E80085FD0BC0809153
:1006F000E8008E778093E8000E943603882399F300
:10070000C82F08C0F70181917F018093F10001504B
:10071000110949F78C2FCF911F910F91FF90EF9006
:100720000895CF93FC018091A204843001F5C0911B
:10073000E900CF702091EC00922F917020FD90E89D
:10074000C92B82E08093E9008091E80080FF0CC013
:1007500050E040E060E270E0CF010E9467038091CA
:10076000E8008E778093E800CF70C093E900CF91C6
:10077000089580919A0487FF13C08091E80082FF5A
:1007800006C08091E8008B778093E80004C08091D8
:10079000A2048111F2CF08958091A2048823D9F395
:1007A0008091E80080FFF8CF8091E8008E77ECCF51
:1007B000982F9093E900242F762F50E0891731F07D
:1007C0007091EC002091ED005091F00021FD07C0E8
:1007D0009F5F973071F78093E90081E00895309131
:1007E000EB003E7F3093EB003091ED003D7F309386
:1007F000ED003091EB0031603093EB007093EC0032
:100800002093ED005093F0002091EE0027FDE0CF03
:1008100080E00895CF92DF92EF92FF920F931F93A3
:10082000CF93DF93C8EDD0E088818F7E8883E7ED9A
:10083000F0E080818160808384E082BF81E08093EA
:10084000740488818E7F888302EE10E0F8011082A4
:100850001092DA0081EEC82ED12CF6011082888128
:100860008F77888388818068888388818F7D88835B
:1008700019BC1092A204109299041092980410923C
:10088000970490EEE92EF12CF70180818B7F808315
:1008900088818160888342E060E080E00E94D80324
:1008A000F60180818E7F8083F80180818160808362
:1008B000808188608083F70180818E7F808388813A
:1008C00080618883DF91CF911F910F91FF90EF900E
:1008D000DF90CF900895FC018091A0049091A10435
:1008E00086179707A0F06115710529F49091E8002B
:1008F0009E779093E80090E06115710551F4911195
:1009000008C08091E80082FF34C080E00895BC01F7
:10091000F2CF8091A2048823C1F18530C1F180918A
:10092000E80083FD30C08091E80082FDEACF80912D
:10093000E80080FFE1CF8091F3002091F200382F92
:100940006115710519F02830310558F091E0283013
:10095000310509F090E02091E8002E772093E8001F
:10096000CBCF81918093F100615071092F5F3F4F90
:10097000E7CF8091A204882341F0853041F0809137
:10098000E80083FFBECF81E0089582E0089583E010
:10099000089508958091760408959C014FB7F894C6
:1009A00080916B0490916C04A0916D04B0916E04E1
:1009B0004FBF821B930B08952FB7F89480916B045F
:1009C00090916C04A0916D04B0916E042FBF0895B6
:1009D00020916804309169042817390771F09093C9
:1009E000690480936804E0916604F091670430978D
:1009F00021F00084F185E02D09940895209164048C
:100A0000309165042817390771F09093650480933D
:100A10006404E0916604F0916704309721F0068049
:100A2000F781E02D09940895E0916604F091670440
:100A3000309721F00190F081E02D099480E0089535
:100A4000452B39F0682381E06F3F09F080E0817029
:100A5000089581E0FCCFDC016091890380918A03D5
:100A6000962F891301C00895292F30E0F901EE0F68
:100A7000FF1FEF57FC4F408151814A175B07A1F4DC
:100A800087E08A9FA0018B9F500D1124475B5C4F2C
:100A900081E0FA0184839613E6CF2F5F3F4F2370E6
:100AA00033272093890308952F5F3F4F922F937030
:100AB000D8CF1092E6021092E502E9E4F3E08581D6
:100AC000811102C014821682379683E0E138F8075C
:100AD000B1F70895EDE8F3E0848195812AE030E0F4
:100AE000B9010E94FD346093150186818093140141
:100AF0008285809313018485809312018685978572
:100B0000B9010E94FD346093110180898093100126
:100B1000828980930F01848980930E0108958091CA
:100B20008D0390918E039093170180931601089581
:100B30000E94DC049C019091530280915402982BF6
:100B400021F03093500220934F02909155028091F2
:100B50005602982B21F030934E0220934D02E091E3
:100B60006604F0916704309749F082E08093510267
:100B70000480F581E02D81E592E00994089590913B
:100B80005302803F59F48091540287FF0DC01092A8
:100B9000540291110BC010924B0208C0813F81F4A6
:100BA0008091540218169CF3992381F0809155028C
:100BB00090915602892B09F064C010924A02089560
:100BC000823F49F497FFF0CF109253028091540274
:100BD0008111ECCFE0CF833F19F41916ACF3E4CFC9
:100BE00020915502893F29F41216F4F6109255020D
:100BF000DBCF8A3F19F427FFD7CFF8CF20915602D9
:100C00008B3F29F427FFD0CF10925602CDCF8C3FD7
:100C100019F41216CCF3C8CF843F31F480915202FC
:100C20008E7F80935202C0CF853F21F48091520283
:100C30008D7FF7CF863F21F4809152028B7FF1CFD9
:100C4000873F21F480915202877FEBCF883F21F4C8
:100C5000809152028F7EE5CF8D3F31F480914C021E
:100C60008E7F80934C02A0CF8E3F21F480914C0266
:100C70008D7FF7CF8F3F09F097CF80914C028B7F0C
:100C8000F0CF089580914C0280FF0CC060910F015D
:100C900070E075956795759567956115710549F1D2
:100CA000862F089581FF06C060910F0170E0759551
:100CB0006795F3CF60910F0182FD0BC090914A02BE
:100CC0009923A1F060910E0180910F01961738F0E1
:100CD000682F70E06038710500F38FE70895899FF1
:100CE000C001112470E00E941135F4CF61E070E082
:100CF000D7CF81E0089580914C0260919503709167
:100D0000960380FF16C020911301269FC001279FE4
:100D1000900D1124BC01769567957695679560389E
:100D2000710508F043C06115710509F441C0862FB3
:100D3000089581FF0BC020911301269FC001279FBA
:100D4000900D1124BC0176956795E9CF82FF09C00B
:100D5000809113019B01829FB001839F700D11242C
:100D6000DECF20914B022223D1F29091120180918B
:100D70001301482F50E0291748F0CB01849FB001A0
:100D8000859F700D949F700D1124C9CF289F9001ED
:100D90001124269FA001279F500D369F500D11242E
:100DA000692F70E0CA010E94FD34B9CF8FE7089522
:100DB00081E00895803F31F40E947B068195809305
:100DC00054020895813F19F40E947B06F8CF823FB8
:100DD00031F40E947B068195809353020895833FEE
:100DE00019F40E947B06F8CF893F29F40E9442063D
:100DF0008093550208958A3F21F40E94420681950E
:100E0000F7CF8B3F31F40E944206819580935602C2
:100E100008958C3F19F40E944206F8CF843F31F4C4
:100E2000809152028160809352020895853F21F49F
:100E3000809152028260F7CF863F21F48091520266
:100E40008460F1CF873F21F4809152028860EBCF1C
:100E5000883F21F4809152028061E5CF8D3F31F4CB
:100E600080914C02816080934C0208958E3F21F462
:100E700080914C028260F7CF8F3FB9F780914C028E
:100E80008460F1CF80E00895F894E82FE295EF7048
:100E9000F0E031A1282F2F7081E090E001C0880F91
:100EA0002A95EAF7982F9095932391A392A1892BE5
:100EB00082A37894089590916F0492FF06C0282F22
:100EC00028712830F9F4877F846093FF06C0282FAB
:100ED00028712831F1F4877E84612091700420FF0D
:100EE00006C0382F38713830D9F4877F816021FFF0
:100EF00006C0282F28712831D1F4877E816194FDA6
:100F0000877E0895282F24712430F9F68B7F88601E
:100F1000DCCF282F2471243101F78B7E8861DDCF4F
:100F2000382F3171313019F78E7F8860E0CF282F4C
:100F30002171213121F78E7E8861E1CFCF93DF933C
:100F4000EC0182389105A9F1D8F58133910509F4B6
:100F500096C048F58932910509F48AC08A9709F448
:100F600095C0C11521E5D20708F0BCC0C11530E518
:100F7000D30708F014C1C83ED10508F09CC0C03E9C
:100F8000D10560F5C83AD10508F087C0C53AD1054A
:100F900008F0FDC0C130D10509F12097F9F0C43047
:100FA000D105E0F440C08533910509F45AC0C997D2
:100FB000C1F680916F04837089F0C0EED0E00EC05E
:100FC000833E910599F170F4803E910501F1823ED6
:100FD000910539F680916F0482FD21C0CE01DF9129
:100FE000CF910895863E910561F1873E910571F19B
:100FF000843E910509F0B5CF8091700481FFEECF5A
:1010000080916F04C7EED0E084FD0DC0E7CF8091E2
:101010006F0480FD12C19091700490FFDFCFC3EE8A
:10102000D0E084FFDBCFD0E0C0E0D8CF80916F0468
:1010300082FD06C19091700490FDBFCF84FFCECF9A
:10104000F2CF80916F0483FDDDCFC8CF80916F0414
:1010500083FDF9C09091700491FFF0CFC4EED0E011
:10106000BDCF80916F0485FFB9CFC9E2D0E0B6CF84
:1010700080916F0485FFB2CFC5E3D0E0AFCF809100
:101080006F0486FFABCFCAE2D0E0A8CF80916F0497
:1010900086FFA4CFC1E3D0E0A1CFCF3BD10518F6A6
:1010A000C85AD0E0CC0FDD1FCA5DDE4F0990D88151
:1010B000C02DD46493CFC11540E2D40758F4C115B4
:1010C00081E0D80708F08ACFC03FD10508F4ABCF44
:1010D000D06584CFC11590E4D90708F4A4CFDF70A0
:1010E000D06A7CCFC11525E5D20700F5C11534E5DE
:1010F000D30708F08AC0C11543E5D40708F071C0D2
:10110000C11582E5D80708F467C0CE01837099271E
:1011100021E030E002C0220F331F8A95E2F7C69526
:10112000C69580E2C89FE001112452C0C11599E51F
:10113000D907A8F4C11528E5D20708F06BC0C1157E
:1011400036E5D30708F06FCF8C2F0E945B07C82FBE
:10115000D0E0DC2FCC27CC27DF71D0623FCFC11588
:101160004AE5D40708F45BC0CE0190568115904241
:1011700008F059CF8D2F8F710E945B0790E0982F58
:10118000882788279F719C012C2BE901E6CFC55A3F
:10119000D0E0CD5DDE4FC881D0E0D0641FCFCE015E
:1011A000E4E096958795EA95E1F783702C2F2695D4
:1011B0002695237040E2249F90011124382B8C2F18
:1011C0008370C1E0D0E002C0CC0FDD1F8A95E2F74A
:1011D000C22BD32BDC6802CFDC2FCC27C16FD06AA7
:1011E000FDCECE018370992721E030E002C0220FAE
:1011F000331F8A95E2F7C695C69590E2C99FE00134
:101200001124C22BD32BDA68E9CEDC2FCC27C46F94
:10121000D06AE4CEDC2FCC27C06FD06ADFCE8C2F13
:101220008F700E945B0734E0D695C7953A95E1F739
:10123000CF709C2FEC01D069D1CEC9E3D0E0CECEE7
:10124000C2EED0E0CBCEC6EED0E0C8CE809129026F
:10125000882331F01092290210922802109227025E
:101260000895CF93C82F8091700482FD0CC08091A7
:1012700029028C1741F00E94DC049093280280938D
:101280002702C0932902CF91089580959091A404DC
:1012900098239093A404089580959091C002982378
:1012A0009093C00208959091C002892B8093C00250
:1012B000089510922502109224021092230208959C
:1012C00080918F0390919003892B89F00E94DC0418
:1012D0002091270230912802AC01421B530B81E080
:1012E00020918F03309190034217530708F480E058
:1012F000817008958091C0029091A404892B9091EF
:101300002602892B80938E0180912902882319F16E
:1013100080918F0390919003892B29F00E9460099E
:1013200081110E94260980918E0190912902892BBA
:1013300080938E0180911A01882341F180916F047E
:1013400087FF24C08EE1E0E9F1E090E0815000F5F4
:1013500091110E942609E0916604F091670430978C
:10136000E1F080911A01882359F080916F0487FF82
:1013700007C080918E0180938F0186E080938E015B
:101380000280F381E02D8EE891E0099486E0DBCFC6
:1013900021912223D9F29F5FD9CF0895EF92FF9236
:1013A0000F931F93CF93DF93EC018A85811134C093
:1013B000EB80FC8087E5F81A26E12E9DC0012F9D69
:1013C000900D1124DC01AC54BC4F1496ED91FC91AE
:1013D0001597309731F054966D917C9186549C4FBF
:1013E000099586E18E9D80018F9D100D11240C546E
:1013F0001C4FF80187810E944C09F80180850E94EA
:1014000045090E947A09188219861B861E821D8250
:101410001092B3031092B203DF91CF911F910F91FD
:10142000FF90EF900895CF93DF93EC0189898111AC
:1014300018C081E0898B8F810E9453098091A40498
:101440009885892B8093A4040E947A09EA81FB8104
:10145000309739F06C897D89CE010696DF91CF9166
:101460000994DF91CF91089580911801877F80932F
:10147000180182E00E9445098091180184FF06C08E
:101480008F7E8093180182E00E9453098091180199
:1014900085FF06C08F7D8093180180E20E9453096A
:1014A0000C947A09809122028111109222020895EF
:1014B00090911A019923D1F090916F0497FF16C073
:1014C000E82FE695E695E695EE31E0F4F0E0E25798
:1014D000FE4F282F277081E090E001C0880F2A95E9
:1014E000EAF780959281892382830895E0E9F1E00B
:1014F0009191891303C0DF0111971C9291E0E639A5
:10150000F907B1F7089590911A019923C1F09091CC
:101510006F0497FF14C0E82FE695E695E695EE3147
:10152000F8F4F0E0E257FE4F877021E030E001C0B0
:10153000220F8A95EAF78281822B82830895A0E99F
:10154000B1E0EFEF90E02D91821751F0EF3F19F4E9
:10155000211101C0E92F9F5F9630A9F7EF3F09F4F1
:1015600008950E2E000CFF0BE257FE4FE6CF2091A0
:1015700021029091E001291302C080E0089530E03B
:10158000F90153E0EE0FFF1F5A95E1F7EF51FE4FBF
:101590005181561306C05081581303C05281541311
:1015A00004C02F5F3F4F2770E6CF81E00895809100
:1015B00021029091E001981301C008958F5F877018
:1015C000FACF9E3F49F1292F220FE22FE90FE80FB2
:1015D0009E2F9770E695E695E69583E0E89FF001EB
:1015E0001124EE52FE4F50E040E080E0219130E0C7
:1015F000092E02C0369527950A94E2F72170332709
:10160000042E01C0220F0A94EAF7822B4F5F5F4F2E
:101610004330510559F7089580E008959E3F69F1E0
:10162000292F220FE22FE90FE80F8E2F877041E05C
:1016300001C0440F8A95EAF7E695E695E69583E0C2
:10164000E89FF0011124EE52FE4F30E020E070E000
:101650005191DF011197CB01022E02C0969587951B
:101660000A94E2F7817081958527842385278C93DE
:101670002F5F3F4F2330310559F70895E92FE29549
:10168000EF70E250EE3070F4F0E0EA52FA4C0C9455
:101690002535803F19F020F4883E20F481E008953C
:1016A000843FE1F380E00895883EC0F3813FD1F7A5
:1016B000F5CF93FB882780F9089590E080E00E94A1
:1016C000FE0490E080E00E94E8041092A4041092CE
:1016D00026020E947A0986E0E1E5F2E0DF011D9230
:1016E0008A95E9F710924B0210924A0210924C022E
:1016F0000C9498058093A3040C945D0B8091A30433
:10170000982F9670963019F488600C947A0B877F26
:10171000FCCF21E030E001C0220F8A95EAF7209546
:101720008091A30482230C947A0B909125028095DA
:10173000892380932502282F277091F4282F082EC3
:10174000000C330B9217130659F09091700492FD20
:1017500007C08595859585950E94890B0C9459093C
:10176000089521E030E001C0220F8A95EAF78091C8
:10177000A304822B0C947A0B9091700492FD10C0FC
:1017800098E0899F90011124622B609325020E94AA
:10179000B10B0E94DC0490932402809323020895ED
:1017A0000C94B10B809357020C945D0B882321F0AD
:1017B0000E9445090C947A090895882339F0909184
:1017C000A404982B9093A4040C947A090895882378
:1017D00021F00E944C090C947A090895882321F085
:1017E0000E9453090C947A090895882309F452C081
:1017F000823871F40E94140581FF4CC089E30E9475
:10180000830A0E947A0989E30E94580A0C947A0993
:10181000833859F40E94140580FF3CC083E50E9480
:10182000830A0E947A0983E5EFCF843859F40E9435
:10183000140582FF2FC087E40E94830A0E947A0960
:1018400087E4E2CF9CEF980F913AF0F290E2980F84
:10185000983050F4877091E001C0990F8A95EAF7AB
:10186000892F0E944C09D2CF9BE5980F933020F42A
:1018700090E080E00C94FE0498E5980F973120F4F6
:1018800090E080E00C94E804803F20F00E94BF05C7
:101890000C94980508959C013A9521153F4150F507
:1018A000FC01EE27F170BC0166277270AC01442781
:1018B00054709C012227387094FF0EC080E1EF2BFA
:1018C00009F480E0672B09F08062452B09F0806401
:1018D000232B89F08068089581E0EF2B09F480E0E4
:1018E000672B09F08260452B09F08460232B19F0E7
:1018F0008860089580E00895CF93DF93EC010E9403
:10190000F50BCE010E944B0C9E01205E3109283060
:10191000310510F0CD2B21F4DF91CF910C94E70B22
:10192000DF91CF910C94D60B809371047093730464
:10193000609372048091A2048430F9F48093E900EA
:101940008FEF9091E800815095FD06C095ED9A9536
:10195000F1F700008111F5CF8091E80085FF0DC0FF
:1019600050E040E063E070E081E794E00E946703AC
:101970008091E8008E778093E8000895BC0184E0B0
:101980000C94940CBC0183E00C94940C9C0184E0B6
:101990008093E9009FEF8091E800915085FD06C09B
:1019A00085ED8A95F1F700009111F5CF8091E8005F
:1019B00085FF0CC050E040E066E070E0C9010E9485
:1019C00067038091E8008E778093E8000895CF93B5
:1019D000DF93EC0180911A018823B1F180916F04AB
:1019E00087FF32C060E284E08093E9008FEF90913E
:1019F000E800815095FD06C095ED9A95F1F700003D
:101A00008111F5CF8091E80085FF1BC080911A01FC
:101A100070E050E040E0811104C050E040E068E038
:101A200070E0CE010E9467038091E8008E7780937A
:101A3000E80080E2FE01A7E7B4E001900D928A95EC
:101A4000E1F7DF91CF91089568E081E0CDCF81E0AB
:101A50008093E00080E28093D8001092C9008FE16B
:101A60009EE40197F1F700C0000087E090EBDC01F5
:101A70008093A5049093A604A093A704B093A80410
:101A800088E19CE00FB6F894A895809360000FBEA3
:101A900090936000FFCF019708F40895EFE9FFE00D
:101AA0003197F1F700C00000F6CFCF93C82F8823FD
:101AB00009F4AAC08238C1F40E94140581FDA4C0B3
:101AC00089E30E94830A0E947A092FEF81EE94E055
:101AD000215080409040E1F700C0000089E30E945F
:101AE000580ACF910C947A098338A1F40E94140506
:101AF00080FD8AC083E50E94830A0E947A092FEF45
:101B000081EE94E0215080409040E1F700C0000059
:101B100083E5E5CF8438A1F40E94140582FD74C0EA
:101B200087E40E94830A0E947A092FEF81EE94E0F5
:101B3000215080409040E1F700C0000087E4CFCF03
:101B40008CEF8C0F813A88F580911A01882301F17E
:101B500080916F0487FF1CC0EC2FE695E695E69513
:101B6000F0E0E257FE4F828190E04C2F477021E079
:101B700030E002C0220F331F4A95E2F782239323FD
:101B8000892B79F08C2F0E94580A0E947A0909C08B
:101B9000E0E9F1E08191C817A9F321E0E639F20705
:101BA000C9F78C2F0E94830A9CCF80E28C0F88306B
:101BB00048F4C77081E001C0880FCA95EAF70E9417
:101BC00053098FCFEBE5EC0FE33040F4F0E0ED5D2F
:101BD000FE4F808190E0CF910C94FE04E8E5EC0F7D
:101BE000E73150F4F0E0EE0FFF1FEA5DFE4F808119
:101BF0009181CF910C94E804C03F30F08C2F0E946B
:101C0000DA06CF910C949805CF9108951F93CF9346
:101C1000DF93182FC091AD03D091AE03893321F02B
:101C2000C091AB03D091AC03812F0E94550D20973A
:101C300031F4812FDF91CF911F910C94F50B8FE937
:101C40009FE00197F1F700C000002197F0CF0F93BC
:101C50001F93CF93DF93C42FD22FFC01828188235F
:101C6000A1F04093B1030E94DC049093B0038093F1
:101C7000AF03C77081E001C0880FCA95EAF7DF9112
:101C8000CF911F910F910C94EE0B1091B10314138F
:101C900039C08091AF039091B0030E94CD04209190
:101CA000A5033091A6038217930760F5C0E2CD0F1C
:101CB0001D17B9F080E2810F883040F4177081E081
:101CC00001C0880F1A95EAF70E94E70BC83048F464
:101CD00081E09D2F977001C0880F9A95EAF70E94C6
:101CE000EE0B802F0E94060EC83098F4D77081E06A
:101CF00001C0880FDA95EAF7DF91CF911F910F911C
:101D00000C94E70BC77081E001C0880FCA95EAF711
:101D1000F3CFDF91CF911F910F910895CF93DF9370
:101D2000EC010E944B0C9E01205E310928303105E8
:101D300010F0209739F40E94EE0B8C2FDF91CF9199
:101D40000C94550D0E94DD0BF8CF662329F02091ED
:101D5000A40422602093A4049C013056211540E283
:101D6000340720F0305E2115304108F499270C9497
:101D70008E0EDF92EF92FF920F931F93CF93DF931C
:101D80007C018B01D42E8091180182FF8CC0C09100
:101D9000E302D091E402CE15DF0521F0E114F10455
:101DA00009F081C0809118018B7F8093180181FD1B
:101DB00073C08091E1029091E202A801481B590B87
:101DC00081E020911601309117014217530708F462
:101DD00080E08170F82E80911801F0FA81F98093EB
:101DE0001801FE0183E0F695E7958A95E1F7EE711B
:101DF000FF27EF53FD4F20813181AE014F705527F2
:101E000081E090E002C0880F991F4A95E2F7FF2019
:101E100009F444C0822B932B918380838091C0026C
:101E200081FF08C08091180180618093180182E0D1
:101E30000E944C098091C00285FF08C08091180162
:101E400080628093180180E20E944C096F2DCE01C0
:101E50000E94A50EDD2031F08091A80385FF02C00D
:101E600086FF3BC08091AB039091AC030E944B0D69
:101E70008091E3029091E4029C013056211540E2EA
:101E8000340720F0305E2115304108F499270E9474
:101E90007C0C0E94340A1DC081E09BCF80959095F8
:101EA00082239323B9CFC701992797013056211573
:101EB00040E2340728F0305E2115304108F0C701B8
:101EC0000E947C0C8091E3029091E4028E159F05A4
:101ED00001F31093E2020093E102DF91CF911F9191
:101EE0000F91FF90EF90DF900895AF92BF92CF9245
:101EF000DF92EF92FF920F931F93CF93DF93EC014A
:101F00008AE0A82E2881222309F48CC02130C9F54B
:101F100099818A81913021F422960E94060E05C093
:101F2000923029F422960E94550D2196EBCF9330E2
:101F300021F422960E94F50BF8CF943011F02196EF
:101F4000F4CF229630E020E0AE014F5F5F4F805328
:101F5000990B8A30910550F02150310930F38FE907
:101F60009FE00197F1F700C00000F6CFA29EB001FC
:101F7000A39E700D11249C01260F371F8981EA0151
:101F8000E3CFE22FF0E0E650FE4FB490822F86952B
:101F90008695869590E0FC01E651FE4FE49027700F
:101FA000F12C022E02C0F594E7940A94E2F731E096
:101FB000E322FF24FC01E652FE4FC490D12C022EF6
:101FC00002C0D594C7940A94E2F731E0C322DD241D
:101FD000FC01E653FE4F049110E002C015950795F1
:101FE0002A95E2F701701127E114F10419F081EE4E
:101FF0000E94550DC114D10419F086EE0E94550DB2
:102000008B2D0E94060ECD2819F086EE0E94F50B4E
:10201000EF2819F081EE0E94F50B012B09F485CF12
:102020008CE27BCFDF91CF911F910F91FF90EF90CA
:10203000DF90CF90BF90AF9008950F931F93CF93F1
:10204000DF930DE813E0CFE8D0E0CE010E948A359F
:10205000F80181938F012196C13BD105B1F7C8E505
:10206000D4E0FE0185919491009711F0FC0109954F
:102070002896F4E0C03FDF07A1F7DF91CF911F91D1
:102080000F9108950F931F93CF93DF93843038F50A
:10209000623028F528E0829FC001112434E0639F5C
:1020A000B0011124860F971FC42FD0E0CC0FDD1F85
:1020B000C80FD91FC159DF4FCE010E948A35082FA2
:1020C00010E0102F0027CE0101960E948A3598015A
:1020D000282BC901DF91CF911F910F91089590E0B6
:1020E00080E0F8CF0F931F93CF93DF93843030F5C8
:1020F000633020F5433010F5C42FD0E0CC0FDD1F46
:1021000026E0629FC00DD11D112432E1839FC00DD6
:10211000D11D1124CE0187960E948A35082F10E028
:10212000102F0027CE0188960E948A359801282B0F
:10213000C901DF91CF911F910F91089590E080E048
:10214000F8CF462F2091BE023091BF02232B91F48D
:102150007E3F39F46E3F71F48091BC029091BD02D4
:102160000895843038F4733028F4633018F4672FFE
:102170000C94721090E080E00895CF92DF92FF926D
:102180000F931F93CF93DF936C010091A304809171
:102190005702082BC7E0D0E010E0FC2EC8010C2E3F
:1021A00002C0959587950A94E2F780FD0CC02197AF
:1021B000A0F7F12C8F2DDF91CF911F910F91FF9000
:1021C000DF90CF900895B6018C2F0E94A1100E943D
:1021D0009E07019761F3EECFCF93DF93EC010E944E
:1021E000BD10BE010E94A110DF91CF910C949E07FB
:1021F000FC0186819781009721F00E949E070C9434
:102200003E0B808191810E94EC10F9CF1F93CF93F8
:10221000DF9300D000D00F92CDB7DEB749835A8349
:1022200089819A816623B9F02223A9F00E94BD100A
:10223000182F682F89819A810E940E0B69817A81FB
:10224000812F0F900F900F900F900F90DF91CF91F3
:102250001F910C94A1100E94E10A182FEFCFFC01EE
:10226000262F86819781009739F4408151816281C0
:10227000738184810C940611089583E290E00E949A
:102280008A35853D89F484E290E00E948A358E3457
:1022900059F485E290E00E948A3591E0853609F094
:1022A00090E0892F8170089580E0FCCFCF9384E087
:1022B00090E00E948A35C82F82E290E00E948A3521
:1022C000982F8C2FCF9108950F931F93CF93DF9367
:1022D0000DE813E0CFE8D0E0CE010E948A35F80186
:1022E00061918F01681719F0CE010E9498352196EF
:1022F000C13BD10589F7DF91CF911F910F910895CF
:10230000EDE8F3E0128E138E8FEA90E091838083E4
:1023100085E0848F88E893E1938382834CE251E0E7
:102320005583448322E330E03783268385E090E0C1
:10233000918780878AE090E09387828764E170E0EC
:10234000758764875787468744E650E0518B408BFA
:1023500048E050E0538B428B48E250E0558B448B71
:10236000378B268B28EC30E0318F208F158E978F9E
:10237000868F80E590E091A380A30E9464110C9465
:102380001D10CF93DF93C1E5D1E060E0CE010E9444
:1023900098352196C11584E0D807B9F7DF91CF9120
:1023A00008950F931F93CF93DF938901843068F5CD
:1023B000623058F5423048F501152CE5120731F42A
:1023C0002091BA023091BB02232BF9F028E0829FC2
:1023D000C001112424E0629FB0011124860F971FD1
:1023E000C42FD0E0CC0FDD1FC80FD91FC159DF4F5C
:1023F000612FCE010E949835602FCE010196DF91AA
:10240000CF911F910F910C949835DF91CF911F912F
:102410000F9108950F931F93CF93DF938901843019
:1024200048F5633038F5433028F521153C4531F443
:102430002091BA023091BB02232BE1F0C42FD0E0EF
:10244000CC0FDD1F96E0699FC00DD11D112492E1D4
:10245000899FC00DD11D1124612FCE0187960E9446
:102460009835602FCE018896DF91CF911F910F9103
:102470000C949835DF91CF911F910F910895CF93D0
:10248000C82F6FEF811165ED83E290E00E949835CF
:102490006FEFC1116EE484E290E00E9498356FEF17
:1024A000C11165E685E290E0CF910C949835CF9309
:1024B000C0917004C2FB992790F9981799F080FB9E
:1024C000C2F9C093700460916F0484E090E00E94B0
:1024D00098356C2F82E290E00E94983582E0CF918F
:1024E0000C94950BCF9108955F926F927F928F928B
:1024F0009F92AF92BF92CF92DF92EF92FF920F9393
:102500001F93CF93DF93CDB7DEB764970FB6F894E0
:10251000DEBF0FBECDBFA090BA02B090BB0281E07B
:1025200090E09093BB028093BA028AEE882E83E0FB
:10253000982E9AE0C92E94E0D92E10E0760100E0A2
:1025400015C0F30125913491452D602F812F0E94F4
:102550000A1282E0680E711C5394E3E05E12F1CF20
:10256000F6E0EF0EF11C0F5F033019F03701512C2C
:10257000E8CF740100E0F7012591349140E0602F2D
:10258000812F0E94D111F70132962591349141E0BB
:10259000602F812F0E94D11184E0E80EF11C0130E0
:1025A00009F055C0E8E08E0E911C1F5FF2E1CF0EDE
:1025B000D11C143009F0C2CF0E9480111A821982F6
:1025C0001C821B821E821D8218861F8288EC90E06E
:1025D0009A87898701EB10E04AE050E0B801CE010C
:1025E00001960E94BC35065F1F4F01301007A1F70E
:1025F0007E01EBE0EE0EF11C8AE0F70111928A9564
:10260000E9F74AE050E0B801C7010E94BC35065F17
:102610001F4F0135F1E01F07A1F7B092BB02A09256
:10262000BA0264960FB6F894DEBF0FBECDBFDF913D
:10263000CF911F910F91FF90EF90DF90CF90BF90BF
:10264000AF909F908F907F906F905F90089501E082
:1026500092CF80E00E943F1260E086E290E00E940C
:1026600098350E9474120E94C11181E00C943F12AF
:102670009B01883070F49AE0899FB00111246F5457
:102680007F4F4AE050E0C9010E947A3590E080E037
:1026900008958FEF9FEF08958F929F92AF92BF9210
:1026A000CF92DF92EF92FF920F931F93CF93DF931E
:1026B000CDB7DEB72A970FB6F894DEBF0FBECDBFF9
:1026C00004EB13E0F12CE12C88E4C82E8BE2D82E29
:1026D00092E7A92E9BE2B92E2DE5822E2AE2922EB8
:1026E000F801D182C082B382A28295828482F58A67
:1026F000E48ABE016F5F7F4F8E2D0E943813892BB5
:1027000029F489859A85F801938B828BFFEFEF1A64
:10271000FF0A0A5E1F4F88E0E816F10409F72A96BF
:102720000FB6F894DEBF0FBECDBFDF91CF911F91E2
:102730000F91FF90EF90DF90CF90BF90AF909F9060
:102740008F900895CF92DF92EF92FF920F931F9395
:10275000CF93DF93CDB7DEB72A970FB6F894DEBFDD
:102760000FBECDBFEAE6F2E080E5DF011D928A955B
:10277000E9F7E9E4F3E088E3DF011D928A95E9F7E0
:102780008AE6C82E82E0D82E7F0101E011E0F70131
:10279000D182C0824AE050E0B801CE0101960E9489
:1027A0007A3588E0FE013196D60101900D928A9526
:1027B000E1F789859A85D70113969C938E9312979A
:1027C000BAE0CB0ED11CE7E0EE0EF11C065F1F4F06
:1027D0000135F1E01F07D9F62A960FB6F894DEBF4F
:1027E0000FBECDBFDF91CF911F910F91FF90EF9062
:1027F000DF90CF9008951092C00280911A01E0E915
:10280000F1E0882359F080916F0487FF07C08EE1C3
:10281000DF011D928A95E9F70C945D0B86E0F8CFF5
:102820001F93CF93DF93CDB7DEB7AA970FB6F89477
:10283000DEBF0FBECDBF8AE994E02091F100DC013C
:102840002D93CD01B4E0823A9B07B9F780919B04A8
:10285000833009F472C0B8F4813009F449C0823081
:1028600009F4B3C08091E80083FF96C280919A0476
:1028700090919B049A3008F08FC2E92FF0E0EC5160
:10288000FA4C0C9425358A3009F48EC08B3009F44B
:1028900071C0893039F780919A04813219F780919B
:1028A0009E0490919F04009711F00297D9F68091B1
:1028B000E800877F8093E8008091E80082FF38C0BD
:1028C0009091F3008091F200029731F48091F10031
:1028D000813011F0863021F48091F10080937604EC
:1028E0008091E8008B778093E8000E94B903BACF0B
:1028F00080919A04813A09F0B5CF8091E800877FF2
:102900008093E80080919E0490919F04892B61F44C
:1029100060E287E794E070E00E946B048091E80039
:102920008B778093E8009ECF60E090E080E0F3CF6B
:102930008091A2048111C0CF95CF80919A04813AF1
:1029400009F090CF80919E0490919F04892B09F00B
:1029500089CF8091E800877F8093E8008091E8002C
:1029600080FFFCCF80911A018093F1008091E800F4
:102970008E77B9CF80919A04813209F073CF80911C
:102980009E0490919F04892B09F06CCF8091E80000
:10299000877F8093E8000E94B90380919C04809314
:1029A0001A010E94FB135ECF80919A04813209F0D4
:1029B00059CF8091E800877F8093E8000E94B90397
:1029C00080919D04809375044DCF80919A04813A43
:1029D00009F048CF8091E800877F8093E8008091DC
:1029E000E80080FFFCCF80917504BECF803899F05D
:1029F000823809F0D1C180919E048F70873008F031
:102A0000CBC18093E9008091EB0085FB882780F99A
:102A10001092E90006C0809197049091980491115A
:102A200082609091E800977F9093E8008093F10096
:102A30001092F1008091E8008E77AAC1882309F4F2
:102A400098C1823009F0A8C180919C0481119BC17A
:102A500080919E048F702FEF280F263008F09CC1C4
:102A60008093E9002091EB0020FF8DC1933031F479
:102A70008091EB0080628093EB0085C19091EB0028
:102A800090619093EB0021E030E001C0220F8A9525
:102A9000EAF72093EA001092EA008091EB00886048
:102AA000EACF811179C110919C041F778091E300D6
:102AB0008078812B8093E3008091E800877F80936A
:102AC000E8000E94B9038091E80080FFFCCF80916C
:102AD000E30080688093E30082E0111183E080933B
:102AE000A2045AC18058823008F056C120919C043B
:102AF00030919D042C3DE3E03E07A1F583E08A83FD
:102B00008AE289834FB7F894DE01139620E03EE015
:102B100051E2E32FF0E050935700E49120FF03C00F
:102B2000E295EF703F5FEF708E2F90E0EA30C0F0DB
:102B3000C7968D939D932F5F243159F74FBF809196
:102B4000E800877F8093E8006AE270E0CE0101969A
:102B50000E946B048091E8008B778093E8001CC191
:102B6000C096E7CF80919E0490919F04432F5527F4
:102B70004330510509F44AC078F54130510509F454
:102B800085C08BE590E0EAEEF4E04230510509F0B3
:102B900003C12091E800277F2093E8002091A00442
:102BA0003091A1048217930708F49C0140E021159D
:102BB000310509F070C041116EC08091E80082FDBE
:102BC000C9CF8091A204882329F2853019F280911F
:102BD000E80083FFF2CFBECF4132510509F447C070
:102BE0004232510509F0D8C08330910508F0D4C0B5
:102BF000FC01EE0FFF1FE158FE4F0190F081E02D28
:102C000084589E4FDC018C9190E01DC03327213009
:102C10003105E9F02115310579F022303105F9F05F
:102C20002330310509F0B8C0E7E5F5E0E4918E2FD7
:102C300090E0E7E5F5E007C0E7E9F5E0E4918E2FE5
:102C400090E0E7E9F5E0009709F4A6C0A2CFEBE831
:102C5000F5E0E4918E2F90E0EBE8F5E0F4CFE5E7C6
:102C6000F5E0E4918E2F90E0E5E7F5E0ECCF8330DE
:102C7000910508F091C0880F991FFC01EB57FE4F9A
:102C80000190F081E02D89E090E083CF82E190E037
:102C9000E5E4F5E07ECF8091A204882309F45ACFC1
:102CA000853009F457CF8091E80083FD53CF8091A0
:102CB000E80082FD82CF8091E80080FF78CF90917C
:102CC000F3008091F2002115310519F0883091054B
:102CD00050F041E0089709F040E08091E8008E77DD
:102CE0008093E80064CF44914093F10031962150E5
:102CF00031090196E8CF803809F04EC08091E80094
:102D0000877F8093E800809199048093F10092CEB0
:102D1000811142C010919C041230F0F58091E800BE
:102D2000877F8093E800109399040E94B9031123D0
:102D300011F084E005C08091E30087FDFACF81E0C7
:102D40008093A20442E061EC81E00E94D80342E259
:102D500061EC84E00E94D80342E261EC82E00E94D0
:102D6000D80342E260EC83E00E94D8038091A20481
:102D700013C080919C04813079F481E0933009F094
:102D800080E0809398041092E9008091E800877FAA
:102D90008093E8000E94B9038091E80083FF0AC095
:102DA0008091E800877F8093E8008091EB0080624B
:102DB0008093EB00AA960FB6F894DEBF0FBECDBF8E
:102DC000DF91CF911F9108956AEE7EEF90E080E051
:102DD0000E94B63560E082E090E00E94983560E0A5
:102DE00083E090E00E9498351092570260E084E002
:102DF00090E00E94983560E082E290E00E94983571
:102E000060E085E090E00E94983560E086E090E028
:102E10000E9498356FEF87E090E00E94983540E07F
:102E200050E0BA0188E090E00E94AA3560E08DE0B1
:102E300090E00E94983540E050E0BA0188E190E0CF
:102E40000E94AA3560E087E190E00E94983540E05A
:102E500050E0BA018CE190E00E94AA3570E060E099
:102E600080E290E00E94B63540E050E0BA0188E18F
:102E700090E00E94AA3580E00E943F120E94291330
:102E800040E050E0BA018FE090E00E94AA3540E0B7
:102E900050E0BA0183E190E00C94AA352F923F9262
:102EA0004F925F926F927F928F929F92AF92BF925A
:102EB000CF92DF92EF92FF920F931F93CF93DF9306
:102EC00000D000D000D00F92CDB7DEB73C01DC01BE
:102ED00013964D915C91149711966C9111978C916A
:102EE0000E942005811179C061E0C3010E942F1169
:102EF0002C01F301828181111FC0C20181509545CF
:102F000042018F3F910508F450C0D3011296BC9145
:102F1000BF83BB2309F421C3EFEF8E16910409F0A0
:102F200008F474C0FAE28F16FDE59F0609F440C06C
:102F30001092CE014201B3C0809100019091010135
:102F40000196D9F204EB13E0F12CE12CDD24D394AB
:102F500080910001909101018E159F0574F2D801B6
:102F600016968C9116978823D1F019968D919C9185
:102F70004816590639F48091B2039091B30348166C
:102F8000590669F0F801D78654864386C8010E9425
:102F9000130AC80106960E94CE091092A404FFEFFE
:102FA000EF1AFF0A0A5E1F4FD3CF15E59126ADCF6A
:102FB0008091CE0191E089278093CE0180912502F6
:102FC000877059F0F3018281882339F08091700471
:102FD00082FD03C082E00E94950B27960FB6F894FD
:102FE000DEBF0FBECDBFDF91CF911F910F91FF903C
:102FF000EF90DF90CF90BF90AF909F908F907F9099
:103000006F905F904F903F902F9008958091CE01E8
:10301000882309F437C11092CE0110EC8116910477
:1030200008F088C020E88216910408F0F5C030E46A
:103030008316910408F0BAC021E030E040E050E08F
:1030400060E070E080E090E0082D0E943235E09171
:10305000AE012E2BE091AF013E2BE091B0014E2B43
:10306000E091B1015E2BE091B2016E2BE091B301D2
:103070007E2BE091B4018E2BE091B5019E2B209325
:10308000AE013093AF014093B0015093B101609312
:10309000B2017093B3018093B4019093B501C40160
:1030A00082519F45409710F00C94C0218FEF93E020
:1030B0000E948A350EEE080D51E5E52EFF24F394AB
:1030C00081117CCF0111CDC219821A821B821C8210
:1030D0000FEF5701FFEFAF1ABF0AC7010E948A35F1
:1030E00089831A82882309F469CF813009F0F0C2FC
:1030F000670112E0C10ED11CC5010E948A35B82EAD
:103100008A83882309F45ACFC6010E948A35182F72
:103110008FEF8B0D833008F0B3C2670123E0C20E3E
:10312000D11C1B83112321F0CE0101960E94750F43
:103130007601CFCF4FEF8416910411F008F07CCFC9
:1031400021E030E040E050E060E070E080E090E0BE
:103150008401005C11090E943235E091C6012E2BDA
:10316000E091C7013E2BE091C8014E2BE091C901CF
:103170005E2BE091CA016E2BE091CB017E2BE0919A
:10318000CC018E2BE091CD019E2B2093C601309374
:10319000C7014093C8015093C9016093CA0170935D
:1031A000CB018093CC019093CD0179CF21E030E029
:1031B00040E050E060E070E080E090E08401005486
:1031C00011090E943235E091B6012E2BE091B70132
:1031D0003E2BE091B8014E2BE091B9015E2BE091BE
:1031E000BA016E2BE091BB017E2BE091BC018E2BCE
:1031F000E091BD019E2B2093B6013093B70140931F
:10320000B8015093B9016093BA017093BB018093E8
:10321000BC019093BD0143CF21E030E040E050E09D
:1032200060E070E080E090E08401005811090E94A5
:103230003235E091BE012E2BE091BF013E2BE09193
:10324000C0014E2BE091C1015E2BE091C2016E2BBB
:10325000E091C3017E2BE091C4018E2BE091C5016A
:103260009E2B2093BE013093BF014093C001509329
:10327000C1016093C2017093C3018093C401909314
:10328000C5010DCF50E48516910408F06EC0A091E1
:10329000AE01AD83B091AF01BE83B091B001A091FA
:1032A000B101F091B201E091B3013090B4012090EE
:1032B000B50121E030E040E050E060E070E080E007
:1032C00090E0082D0E943235AD80A222BE80B3224C
:1032D000C42ECB22D52EDA22E62EEF22F72EFE22A6
:1032E000082F0321192F12210E944B3509F022CEFD
:1032F00010EC8116910408F09AC020E8821691041F
:1033000008F0FBC030E48316910408F0C6C021E049
:1033100030E040E050E060E070E080E090E0082DB8
:103320000E94323520953095409550956095709566
:10333000809590951D8121231E8131234B235A2393
:103340006F237E23832192212093AE013093AF011E
:103350004093B0015093B1016093B2017093B301F7
:103360008093B4019093B50129CEE0E88E169104C4
:10337000F0F4F091B601FD83A091B701AE83B09156
:10338000B801A091B901F091BA01E091BB01309070
:10339000BC012090BD0121E030E040E050E060E061
:1033A00070E080E090E08401005411098BCFB0EC14
:1033B0008B169104F0F4E091BE01ED83F091BF0112
:1033C000FE83B091C001A091C101F091C201E091D2
:1033D000C3013090C4012090C50121E030E040E0FD
:1033E00050E060E070E080E090E084010058110956
:1033F00069CFA091C601AD83B091C701BE83B091E2
:10340000C801A091C901F091CA01E091CB013090AF
:10341000CC012090CD0121E030E040E050E060E0C0
:1034200070E080E090E08401005C11094BCF4FEF29
:103430008416910411F008F06ACF8401005C110930
:1034400021E030E040E050E060E070E080E090E0BB
:103450000E94323520953095409550956095709535
:10346000809590951D8121231E8131234B235A2362
:103470006F237E23832192212093C6013093C701BD
:103480004093C8015093C9016093CA017093CB0166
:103490008093CC019093CD0191CD8401005411090A
:1034A00021E030E040E050E060E070E080E090E05B
:1034B0000E943235209530954095509560957095D5
:1034C000809590951D8121231E8131234B235A2302
:1034D0006F237E23832192212093B6013093B7017D
:1034E0004093B8015093B9016093BA017093BB0146
:1034F0008093BC019093BD0161CD840100581109F6
:1035000021E030E040E050E060E070E080E090E0FA
:103510000E94323520953095409550956095709574
:10352000809590951D8121231E8131234B235A23A1
:103530006F237E23832192212093BE013093BF010C
:103540004093C0015093C1016093C2017093C301C5
:103550008093C4019093C50131CD2FEF8216910461
:1035600009F060F530E483169104B8F5A090AE013F
:10357000B090AF01C090B001D090B101E090B20125
:10358000F090B301E091B4011091B50121E030E079
:1035900040E050E060E070E080E090E0082D0E94A4
:1035A0003235A222B322C422D522E622F722082FE6
:1035B0000E2319230E944B3509F400CD20E1421659
:1035C0002FE5520609F48EC0420131E143163FE572
:1035D000530609F0E1C682E086C040E884169104F3
:1035E000A0F4A090B601B090B701C090B801D090FF
:1035F000B901E090BA01F090BB01E091BC011091DB
:10360000BD0150E4851A9108C1CF80EC8816910461
:10361000A0F4A090BE01B090BF01C090C001D090B6
:10362000C101E090C201F090C301E091C40110918A
:10363000C50190E8891A9108A9CFA090C601B09061
:10364000C701C090C801D090C901E090CA01F090B4
:10365000CB01E091CC011091CD01A0EC8A1A910828
:1036600095CFE114B4E0FB0609F4A8CCC7010E9491
:103670008A35811101C00150EFEFEE1AFE0A22CD0A
:1036800034E0B31255CD670144E0C40ED11CC7012C
:1036900003960E948A35112309F490CC882309F4FB
:1036A0008DCC8150990B089F9001099F300D1124FA
:1036B000A12FA150BB0BCD01820F931F019708F4DE
:1036C00037CDEFE9FFE03197F1F700C00000F6CF0A
:1036D000CE0101960E94750F65012ACD81E00E94FE
:1036E000B10B03C081E00E94890B0E947E0B66CC67
:1036F000AF81AA2309F46FCF82E0F1CF0F3F11050C
:1037000011F008F054C660E672E0802F0E94381372
:10371000892B29F586E1809FF001819FF00D11240E
:10372000EC54FC4F8681813009F062C080916002C8
:1037300090916102892B99F08091620290916302CD
:10374000892B69F080916402909165022091660254
:1037500030916702822B932B892B09F453C08091FF
:103760000001909101018017910724F41093010149
:1037700000930001D30112968C91129796E1909FCD
:103780007001919FF00C112487010C541C4FF8011B
:10379000808B12969C918681992309F440C0928671
:1037A00081868F5F86830E94DC04D8011E969C93DD
:1037B0008E931D978091290217968C93179780916D
:1037C000A4049091C002892B18968C931897ED91C0
:1037D000FC911197309739F054966D917C91C70107
:1037E00086549C4F09959092B3038092B203DFC533
:1037F000823009F0B4CF8091640290916502892BE8
:1038000009F4ADCF26E1209FC001219F900D112426
:103810008C549C4FFC01108A0E94130AA0CF88236D
:1038200009F4C5C58189882309F4C1C5C701865437
:103830009C4F0E94CE09BBC5809118018160809386
:103840001801E6C5809118018E7F809318010E94AF
:10385000340ADEC5809118018F7E41EE84169104F2
:1038600039F055EE85169104D9F4809118018F7DB9
:10387000809318018091180180FFD9C5F3018281DE
:10388000F8E28F16910438F52EE18216910408F0C3
:1038900079C034E083169104A0F58111C4C5C7C571
:1038A000C40190568115A0E29A0720F0905E811520
:1038B000904100F78091180182FFB9C58091AA0359
:1038C00081FDB5C52DE232E040E0B80190E080E036
:1038D0000E94B90EACC549E38416910468F45DE218
:1038E0008516910420F49BE289169104B1F690911B
:1038F000A80392FDD2CF09C0A4E68A169104B9F3B9
:10390000CCCF9091A80394FDC8CF882309F4A1C01F
:103910009091C00280912902282F292B322F3D7FC0
:10392000B1F11092E4021092E3023091A80331FD4C
:103930002EC0F40143E0F695E7954A95E1F7EE7164
:10394000FF27EF53FD4F94012F70332781E090E064
:1039500002C0880F991F2A95E2F7809590952081E3
:103960003181822393239183808360E0C4010E948C
:10397000A50E809129028D7F0E94310982E00E946C
:10398000950B1CCB9091A80393FD87CFBECF38E059
:10399000F301ADE2B2E001900D923A95E1F7109299
:1039A0002F0210923102109230024091E3025091A6
:1039B000E40248155905B1F53091A80335FF32C02E
:1039C0004091180141FBFF24F0F841FF02C036FF8F
:1039D00029C04091E1025091E202B801641B750BCD
:1039E0004091A5035091A60364177507D8F491FF81
:1039F00008C08091180180618093180182E00E94C4
:103A00004C098091C00285FF08C080911801806236
:103A10008093180180E20E944C096F2DC4010E941E
:103A2000A50ECCCA9091180121FB91F99093180131
:103A30008D7F0E9431099092E4028092E3021093FC
:103A4000E2020093E10280911801846080931801E2
:103A500095CF930140E0B801C4010E94B90EAECAEF
:103A600035EF83163CE5930609F470C008F468C08E
:103A700056EF85165CE5950609F46EC0D3011296E3
:103A80003C91332309F4F7C41092B103B3E08B16D1
:103A9000BDE59B0608F06CC0EAEF8E16ECE59E06CD
:103AA00030F4C40182509C45449708F067C00E94DE
:103AB00056119093700480936F0410E181161CE5F9
:103AC000910609F486C108F0F6C038E083163CE59B
:103AD000930609F46CC108F0BFC054E085165CE59C
:103AE000950609F456C108F0A1C092E089169CE53C
:103AF000990609F448C180916F048260A3E08A1698
:103B0000ACE59A0609F442C160916F04109170040B
:103B100084E090E00E949835612F82E290E00E945C
:103B200098350E94FB134ACA07E225EE45EE68ED80
:103B30007CE59CC406E221EE40EE63EF7CE596C492
:103B400007E225EE44EE64EF7CE590C406E221EE48
:103B500042EE65EF7CE58AC407E225EE46EE66EFAD
:103B60007CE584C408E221E045EE69ED7CE57EC495
:103B7000F1E68F16FDE59F0609F499CF16E181164F
:103B80001CE5910609F47DC4FAE58F16FDE59F0654
:103B900009F473C108F04CC181142CE5920609F4B4
:103BA0005CC13EED83163CE5930609F463C1D30185
:103BB00016968D919C91009709F463C10E949E070F
:103BC000182F092FD3011296FC9012971596EC909E
:103BD000E2943FE0E322809125028770C1F0CF2C70
:103BE000FF20B1F0892F807F803421F080E2810FA7
:103BF000883068F08091700482FD09C082E00E94E4
:103C0000950B809125028770CC24C3948111C12C1F
:103C1000B02EB2942FE0B222BBE0BB1508F4BFC1B6
:103C2000EB2DF0E0E251FA4C0C94253580916F04B5
:103C30008061B6E08B16BCE59B0609F4A7C08091B5
:103C40006F048860E7E08E16ECE59E0608F49EC0DF
:103C500080916F0480629AC080916F048D7FFCE038
:103C60008F16FCE59F0609F491C078F480916F04EB
:103C70008C602AE082162CE5920609F487C008F4CD
:103C80009AC080916F048E7F81C080916F04877F7E
:103C90004EE084164CE5940609F478C080916F04D8
:103CA0008B7F5FE085165CE5950608F46FC0809118
:103CB0006F048F7E6BC08CEF88168CE5980609F434
:103CC00084C0A0F5A4E18A16ACE59A0609F495C073
:103CD00098F4E2E18E16ECE59E0609F47EC0809130
:103CE0006F048F7BF3E18F16FCE59F0608F44EC04E
:103CF00080916F04837F4AC01AEF81161CE59106FC
:103D000009F44BC008F04FC035E183163CE593063B
:103D100009F0FACE80916F0482FB992790F921E097
:103D2000922790FB82F990FB83F930C081144DE516
:103D3000940609F458C090F48EEF88168CE5980626
:103D400009F43FC0809170048D7F9FEF89169CE538
:103D5000990630F1809170048C7F22C0A2E08A160F
:103D6000ADE59A0609F458C008F450C0E1E68E1695
:103D7000EDE59E0609F0C8CE90916F04892F8F7EE5
:103D800094FF806103C080916F04816080936F0411
:103D9000BBCE80916F048460F9CF80917004816004
:103DA00080937004B1CE809170048260F9CF8091CD
:103DB0006F048064EBCF0E94FB1380916F048068D6
:103DC000E5CF809170048360EBCF809170048E7F8B
:103DD000E7CF80916F048F7DD9CF0E94FB13809134
:103DE0006F048F77D3CF80917004982F9095917046
:103DF0008E7F892B90FB81F9D3CF0E94FB1390918A
:103E00006F04892F97FB87F98058C0CF61E08EE05F
:103E100090E00E94983578CE60E0F9CF8091CF0194
:103E2000811104C089E20E94580A56C385E3FBCF82
:103E30004BE584164DE5940611F15CE585165DE5CC
:103E4000950609F0B4CE8091700482FB882780F932
:103E500091E089270E945712AACE0E94FB138FEF90
:103E600094E3ACE081509040A040E1F700C0000036
:103E70000E94270D0E94E416A1C881E0EBCF80E0EC
:103E8000E9CFF301828100811181882369F0C801A3
:103E90000E94BD10F82E682FC8010E940E0BB801B9
:103EA0008F2D0E94A1108ACEC8010E94E10AF82E2F
:103EB000F6CFE02FEF70DE2E802F807F19F0D294A6
:103EC00090EFD922FF20A9F0DD2059F080E2810F88
:103ED000883010F0111107C08D2D0E9453090E94E7
:103EE0007A09812F5AC08091A404D82AD092A404C0
:103EF000F6CF812F0E94F50BDD2009F450C080E23F
:103F0000810F883010F0111104C08D2D0E944C09D2
:103F100003C08D2D0E9445090E947A0940C0F02FF0
:103F2000FF70DF2E802F807F803219F0D29480EFD7
:103F3000D822112321F1113009F4A5C0FF2009F482
:103F4000AEC0EE2009F47EC020E0D3014C91119662
:103F50005C91119712966C91129713967C9113971E
:103F600014968C910E9406118091AA0381FDB9CF0D
:103F7000F301858180FFB5CF8F70858363C0809109
:103F8000700482FF41C0FF20C9F1DD2029F08D2D92
:103F90000E9453090E947A0980E00E94550DAB2DC2
:103FA000A850BB0B149710F40E941405812F902F7A
:103FB0000E943E0B8111C5C11092D1011092D00117
:103FC000CC20B1F08091250280FD12C0D301129661
:103FD0001C928595859585950E94B10BC3010E9421
:103FE0004E17809125028595859585950E94890BB0
:103FF00060E0C3010E942F110C94ED1780E00E9435
:10400000F50BDD2061F281CFFF2001F1E11004C04A
:10401000809129028D2917C021E0E21206C080910B
:1040200029028D290E943109BACF8091A9038230DB
:1040300078F3E812EDCF0E94260980912202D8126F
:10404000D09222028D2D0E94EE0BA9CFE11006C066
:104050000E9426098D2D0E94E70BA1CF8091A90314
:1040600031E0E3120BC0823008F499CF8091C00296
:104070008D2109F494CF0E94520AEACF823040F396
:10408000E812E6CF8CCFFF2029F045E04E1508F46A
:1040900086CFD8CF54E05E1508F481CFDBCFEE2079
:1040A000C9F28091AD039091AE03193321F0809154
:1040B000AB039091AC030E944B0D812F0E94F50B36
:1040C0006ECF802F86958695837069F0813009F0D8
:1040D00066CF812F902F9370F11002C090E080E0A6
:1040E0000E94E8045CCF812F902F9370F11002C0E2
:1040F00090E080E00E94FE0452CF812FFF2029F043
:104100000E94DA060E9498054ACF0E94BF05FACFA6
:10411000802F837091F5F11042CF412F4295469543
:104120004770440F440F812F8F70042E01C0880FF9
:104130000A94EAF7212F207114FF07C02FE030E026
:1041400001C0220F4A95EAF72095302F3695369513
:104150003370323069F050F440915702313029F019
:10416000822B84230E94D20B1ACF842B822BFACF6E
:10417000282B809157028227F5CF8695FF2011F0DA
:10418000802F8170882309F40ACF412F42954695EC
:104190004770440F440F812F8F70042E01C0880F89
:1041A0000A94EAF7212F207114FF07C02FE030E0B6
:1041B00001C0220F4A95EAF72095302F36953695A3
:1041C0003370323069F050F44091A304313029F05B
:1041D000822B84230E947A0BE2CE842B822BFACF8F
:1041E000282B8091A3048227F5CFF02FFF70DF2EBC
:1041F000FF2029F08F2F0E94B10B812F24CF812F18
:104200000E94E70B8D2D0E94890BC9CE123F89F1C8
:1042100060F4103FB9F0113F81F0FF2009F48CC029
:10422000E1105FCE802F8F7128C0133F49F1143FFA
:10423000A1F78091700482FF2FC0802F8F71FF2023
:1042400011F31BC0FF2081F024E02E1508F4A7CE47
:10425000202F2F7181E090E001C0880F2A95EAF7A6
:104260009091A3048927B6CF35E03E1508F497CE88
:10427000EFCF802F8F71F110C6CF0E94B10B8FCE80
:1042800080E0FF2009F4A6CF81E0902F9F7101C04C
:10429000880F9A95EAF79ECF8091A9038230A0F10A
:1042A00080912202FF20F1F00E944C0980912502AA
:1042B0008770843041F40E945909802F8F710E94C9
:1042C000890BC12C6CCE8091A903E816D0F7402F42
:1042D0004F71D42E842F0E94B10B63E08D2D0E946C
:1042E000BC0BEFCF0E9453098091A903E81640F060
:1042F0000E9459090E94520A64E0802F8F71EFCF0B
:1043000081E00E94950BDDCFFF2059F0502F5F71A7
:10431000D52E852F0E94B10B63E08D2D0E94BC0B22
:104320003ECE81E00E94950B81E08E1508F037CEDD
:1043300082E00E94950B33CEE110B3CE802F8F71B7
:1043400062CFFF2019F0E11037CE3ACEE11034CE23
:1043500020E0F301408151816281738184810E9458
:1043600006118091AA0383FF27CE8091D0019091FE
:10437000D101029709F020CE812F0E94060E1CCE9B
:10438000B0E18B16BFE59B0609F4A8C9E1E18E16E2
:10439000EFE59E0609F4ACC984011755BF81BB2324
:1043A00009F4ACC90F3F110509F008F4D8C9809190
:1043B000A80380FF3CC00E94DC048C01D30112964C
:1043C0008C91882309F446CA8091180182FF08C0A5
:1043D0002DE232E040E0B80190E080E00E94B90EAA
:1043E000BBE18B16BCE59B0609F426CAECE18E16F0
:1043F000ECE59E0609F426CA90911801892F8E7F5C
:1044000090FF8160FAE18F16FCE59F0609F41DCA52
:10441000C4019056811520E2920728F0905E811524
:10442000904108F027CA1092E4021092E302B3EF21
:104430008B16BCE59B0609F47DCB08F011CBF8ED9B
:104440008F16FCE59F0609F46FCB19ED81161CE56C
:10445000910609F487CB27ED82162CE5920609F028
:104460000DCB06E221EE41EE67ED7CE5C3010E9433
:10447000270E0C94DE17F6E18F16FCE59F0609F077
:1044800096CB8091C002982F9A7A2091A70320FFA3
:1044900004C0482F447409F090E021FF04C0482F65
:1044A000417109F090E022FF04C0482F487809F0DC
:1044B00090E023FF03C0827209F090E0332309F4F7
:1044C000ADCC81E0911101C080E08093CF0189E201
:1044D000911185E30E94830A0E947A090C94DE17E9
:1044E000CF92DF92EF92FF920F931F93CF93DF93C0
:1044F0008091DD01807F31F48091DA01C091210249
:1045000081110BC0DF91CF911F910F91FF90EF9020
:10451000DF90CF9008952196C7708091E0018C17AD
:1045200089F3F090D801E090D901C090DB01D090E0
:10453000DC01A6016E2D8F2D0E942005D0E0811197
:10454000EACF8E0183E0000F111F8A95E1F7F80191
:10455000EF51FE4F81818E11DECF80818F11DBCF35
:1045600082818111D8CFE380F480EC18FD0860E0EF
:1045700088ED91E00E942F118091A5039091A603F0
:10458000E816F90640F68091DD018F708061809316
:10459000DD01F801EA51FE4F80818F7080618083D8
:1045A00088ED91E00E944E17DF91CF911F910F91FE
:1045B000FF90EF90DF90CF900C94D70A3F924F92EC
:1045C0005F926F927F928F929F92AF92BF92CF92A3
:1045D000DF92EF92FF920F931F93CF93DF93CDB7AC
:1045E000DEB765970FB6F894DEBF0FBECDBF8C0166
:1045F00085E0F801DE01519601900D928A95E1F770
:10460000D8014C9011965C9011971296EC901297ED
:104610001396CD90DC9060E088ED91E00E942F1120
:1046200088EDA82E81E0B82E8090DB019090DC010F
:10463000A4016091D9018091D8010E9420058111C7
:10464000CAC1F090DA01F601E819F9094F0160E0FA
:10465000FF2009F46DC1C5010E942F116090A503D0
:104660007090A6033090DD018614970408F013C102
:104670004091DB015091DC01B090D801A090D901AC
:10468000832D807F6A2D09F0ADC08B2D0E942005FF
:10469000FE2C81113BC0D80111968C9111978A1183
:1046A00035C08C918B1132C02091DE013091DF0139
:1046B00016968D919C912817390741F5E11026C077
:1046C000832D8F7080618093DD0188ED91E00E94E1
:1046D0004E178091DD01F80185838F2D65960FB609
:1046E000F894DEBF0FBECDBFDF91CF911F910F9128
:1046F000FF90EF90DF90CF90BF90AF909F908F9002
:104700007F906F905F904F903F900895F4EF6F16F9
:10471000F1E07F0620F48091AA0380FF21C0A6016A
:10472000652D842D0E942005811118C081E08E2501
:1047300080FF16C04E2D652D842D0E94B70A882358
:1047400079F088ED91E00E944E1788E0E8EDF1E005
:10475000DF011D928A95E9F7F12CBFCF80E0E8CF09
:10476000A601652D842D0E942005811124C081E0C1
:104770008E25B82FB170CB2E80FF2BC04E2D652D0E
:10478000842D0E94B70AD82E811123C0498A5A8AE3
:1047900089899A890E94EC10292F22952F70223046
:1047A00060F0243088F49F7061F0F8019581907F6B
:1047B00041F4FD2C92CF80E0DCCF9F7011F0882374
:1047C000C1F3805E8830A8F3C8010E944E17DC2C2C
:1047D000F0CFEE2009F481CF8091DD0181608093DC
:1047E000DD01BACF8B2D0E942005811124C0D80194
:1047F00011968C9111978A111EC08C918B111BC040
:104800002091DE013091DF0116968D919C911797D2
:104810002817390781F4E1100EC015963C92C801A3
:104820000E944E1788E0F801A8EDB1E001900D92CA
:104830008A95E1F752CFC8010E94F810882339F118
:10484000EE2029F18091DD018032A0F02091D80185
:104850003091D9013A8729871B86DD86CC868E87E1
:104860008091DE019091DF01988B8F87CE010996B0
:104870000E944E1788E0F801A8EDB1E001900D927A
:104880008A95E1F70E947022FF24F39426CFC80195
:104890000E944E17F9CF832D807F09F452CF90905C
:1048A000D8018090D9014091DB015091DC01682D45
:1048B000892D0E94200581111CC0F8018181881179
:1048C00018C08081891115C02091DE013091DF016F
:1048D000868197812817390761F4E1100AC0358273
:1048E000C8010E944E1788E0D5011D928A95E9F70C
:1048F000F4CEC8010E94F810882349F2EE2039F264
:104900008091DD01803208F4B5CF2091D80130913B
:10491000D9013A8329831B82DD82CC828E838091E8
:10492000DE019091DF0198878F83CE010196A0CFA1
:1049300088ED91E00E942F118091A5039091A6032C
:104940008816990680F6FE2CEE2009F4A0CFE090A0
:10495000D801D090D9014091DB015091DC016D2D3F
:104960008E2D0E942005811128C0F80181818D11B2
:1049700024C080818E1121C02091DE013091DF01A1
:104980008681978128173907C1F48091AA0382FD97
:1049900049CF9091DD0190FD45CF907F09F442CF42
:1049A0008091DD018583903F09F439CF982F907F66
:1049B000905F8F70892B858332CFC8010E94F810D9
:1049C000811158CF8091DD0181608093DD01C801A4
:1049D0000E944E1782CEEE2009F459CFC8010E94E2
:1049E000F810F82E882309F452CF88E0F801A8EDDA
:1049F000B1E001900D928A95E1F78091D8019091F4
:104A0000D9010E94EC100E94702267CECF93DF93F1
:104A1000CDB7DEB760970FB6F894DEBF0FBECDBF3F
:104A200029873A874B875C876D877E878F87988B2E
:104A3000CE0109960E94DE2281112FC088E0FE017E
:104A40003996DE01119601900D928A95E1F74C8519
:104A50005D856A8589850E94200581111EC0A0910F
:104A6000E001B0E0CD0101968770992720912102E5
:104A70002817190609F193E0AA0FBB1F9A95E1F7D1
:104A8000AF51BE4F98E0FE01319601900D929A957C
:104A9000E1F78093E0010E94D70A80912102909172
:104AA000E001891317C060960FB6F894DEBF0FBE01
:104AB000CDBFDF91CF9108950E94FB131092E001CA
:104AC0001092210288E0E8EDF1E0DF011D928A9565
:104AD000E9F7E3CFB8E08B9FC00111248F519E4FBF
:104AE0000E94DE228823F9F28091210290E0019653
:104AF0008770992780932102D0CFEF92FF920F9376
:104B00001F93CF93DF938091E802882361F0C091D7
:104B1000E7028CE0F82E8091E802C81758F0109256
:104B2000E8021092E702DF91CF911F910F91FF9061
:104B3000EF900895EE24E394EC0EE092E7020C2F40
:104B400010E0CF9DE0011124C751DD4F4B815C8106
:104B5000698188810E94200581111BC08E819F81FF
:104B6000892B21F488859985019651F42881398112
:104B70004A815B816C817D818E819F810E940625A7
:104B8000F09EF001F19EF00D1124E751FD4F1482CB
:104B90001382CE2DC0CF10928C0310928B031092F3
:104BA000190180918A03809389030E9459050C940E
:104BB0007D253F924F925F926F927F928F929F924C
:104BC000AF92BF92CF92DF92EF92FF920F931F931B
:104BD000CF93DF93C091890397E0892E01E010E025
:104BE0002CE0322E3EEF932E4424439480918A038E
:104BF0008C1315C00E947D25DF91CF911F910F91DD
:104C0000FF90EF90DF90CF90BF90AF909F908F90EC
:104C10007F906F905F904F903F900C945905D0E03B
:104C2000FE01EE0FFF1FEF57FC4F80819181889EA0
:104C3000D001899EB00D1124A75BBC4F14962C9116
:104C40001497211157C05090E802E9EEF2E030E0ED
:104C500020E0712C5D01251508F04AC0E284F38440
:104C6000D501CD90DC906FEF7FEF612C462D50E0A9
:104C7000DA01AA0FBB1FAC0DBD1D0D90BC91A02D7C
:104C8000109731F0EA16FB0609F4BA016394EECFEF
:104C90006F3F7607A1F1D80102C0AA0FBB1F6A952A
:104CA000E2F77A2AB80102C0660F771F6A94E2F72A
:104CB000AB014150510974161506F9F4329EF0010A
:104CC000339EF00D1124E751FD4F889ED001899E3F
:104CD000B00D1124A75BBC4F12962D913C911397F8
:104CE00037832683908291829187808715964C9294
:104CF0000E942B052196C37079CF148213822F5FF7
:104D00003F4F3C96A8CF9F92AF92BF92CF92DF9237
:104D1000EF92FF920F931F93CF93DF9300D00F92E8
:104D2000CDB7DEB719821A821B8284E5E82E81E0B6
:104D3000F82E10E000E0CC24C394D12C2AE5A22E5A
:104D400021E0B22EF70181917F018F3F09F445C028
:104D5000F894E82FE295EF70F0E021A18F70A601A2
:104D600002C0440F551F8A95E2F7CA01922F982B73
:104D700091A392A18095892382A3789400C0E7E54E
:104D8000F1E0912C31E021912F3F09F465C0A22F71
:104D9000A295AF70B0E090968C9190E02F7002C019
:104DA000959587952A95E2F780FD56C0832F982A1E
:104DB000330FAE16BF0639F7F701319780818F3F69
:104DC00011F00E94440750EA5A95F1F7E1E0F0E053
:104DD000EC0FFD1FE00FF11F90820F5F1F4F03309C
:104DE000110509F0AFCF43E050E0BE016F5F7F4F88
:104DF00085E392E00E945D35DD24D394009709F4A9
:104E0000D12C892B59F189819A81AB81809335020C
:104E100090933602A093370281E080932C020E9487
:104E2000DC0490932B0280932A0280912A029091B5
:104E30002B020E94CD040597A8F080913502809343
:104E40004702809136028093480280913702809316
:104E5000490210922C0206C080E0A9CF80912C025A
:104E60008111E3CF809100019091010110E006E1F2
:104E7000019609F065C08091190181116BC0809184
:104E8000A80380FF1EC08091180182FF1AC00E94F3
:104E9000DC042091E1023091E202AC01421B530B91
:104EA00020911601309117014217530750F02DE25F
:104EB00032E041E0BC018091E3029091E4020E9463
:104EC000B90E8D2D0F900F900F90DF91CF911F9104
:104ED0000F91FF90EF90DF90CF90BF90AF909F9099
:104EE0000895089FF001099FF00D1124EC54FC4F28
:104EF000E288F388E114F10421F4E090A503F09036
:104F0000A603089FF001099FF00D1124EC54FC4FFB
:104F100086818823A1F0858596850E94CD04E816B8
:104F2000F90668F4109F70011124C7018C549C4F3E
:104F30000E94130AC70186549C4F0E94CE091F5F2E
:104F4000812F90E02091000130910101281739074D
:104F500044F691CF80918B0390918C03009709F4D4
:104F60008ECF0E94CD042091E5023091E6022817F1
:104F7000390708F084CF9091890380918A039817AC
:104F800059F00E94D9251092E6021092E502109283
:104F90008C0310928B0373CF0E947D2510928C039B
:104FA00010928B030E9459056ACF2F923F924F9225
:104FB0005F926F927F928F929F92AF92BF92CF92A9
:104FC000DF92EF92FF920F931F93CF93DF93CDB7B2
:104FD000DEB769970FB6F894DEBF0FBECDBF942F32
:104FE000498B252F5A8B6B8B7C8B8D8B4C895D89E4
:104FF000622F892F0E942005811109C08091D00164
:105000009091D10101969093D1018093D0018B8929
:1050100081111092A4041D861E861F86188A85E0C1
:10502000FE017196DE01199601900D928A95E1F7C5
:105030008091700482FD1EC080918F039091900337
:10504000892BC1F00E94DC042091230230912402BC
:10505000821B930B20918F0330919003821793074B
:1050600020F08091250282FFF5C10E946009811124
:105070000E9426094C855D856A8589850E942005E8
:10508000811111C061E0CE0109960E942F116C01BF
:105090008B8527EFC2162CE5D20681F4882321F1F7
:1050A00081E08093190129853A854B855C856D8562
:1050B0007E858F8598890E940625C5C038EFC31666
:1050C0003CE5D30629F4882379F00E94CB25EBCF69
:1050D00049EFC4164CE5D40639F4882329F08091B1
:1050E00019018111F2CFDCCF09E413E0512CB12C6E
:1050F000A12C22242394312C2EEF422EF801408142
:10510000518188248A94982C20E0822F90E0FC0121
:10511000EE0FFF1FE40FF51F6081718161157105AE
:1051200031F0C616D70609F44C012F5FEECFF12CF3
:10513000FFEF8F169F0609F448C0F8014481F090F4
:1051400019018F2D411180E0F82FF170FF2EF80129
:10515000E58086819B85992309F40CC1FF2009F421
:1051600009C16090A3037090A403E11012C0A101D3
:1051700001C0440F8A94EAF7842B86838091E5026C
:105180009091E6028615970520F47092E6026092EF
:10519000E502C10102C0880F991F2A95E2F7019725
:1051A000F80126812817190681F480918B039091CC
:1051B0008C03009709F460C00E94CD04681679063C
:1051C00008F05AC021E0F80124835F28FFEFAF1AEE
:1051D000BF0A095F1F4F28E0A216B10409F08ECF65
:1051E0008B85882309F421C1552009F41EC10E9432
:1051F000DC0490938C0380938B038091E8028830C9
:1052000010F591E0980F9093E80298E0FE0139962E
:10521000DE01119601900D929A95E1F73CE0839F93
:10522000C001112487519D4F28E0FE013196DC0119
:1052300001900D922A95E1F72FEF3FEFFC013187A6
:105240002087D386C28669960FB6F894DEBF0FBE5C
:10525000CDBFDF91CF911F910F91FF90EF90DF9025
:10526000CF90BF90AF909F908F907F906F905F9006
:105270004F903F902F9008958091890350918A0319
:10528000982FF0E0E0E0851314C090938903E017B5
:10529000F10709F49ACF90E0FC01EE0FFF1FEF57E2
:1052A000FC4FB182A08201968370992780938A0374
:1052B0008CCF682E712CF301EE0FFF1FEF57FC4FC0
:1052C0002081318147E0429FD001439FB00D1124DE
:1052D000A75BBC4F6D917C911197798F688F40E0EF
:1052E00020E030E0E32FF0E0EE0FFF1F688D798DB6
:1052F000E60FF71F8080918081149104E1F0F8019E
:105300000190F081E02DFF8BEE8B20E005C086162A
:10531000970609F44F2D2F5FE22FF0E0EE0FFF1FED
:105320006E897F89E60FF71F6081718161157105B4
:1053300071F73F5FD7CF4423D1F0F801231708F06E
:10534000FD0121E024830E171F0721F490938903A8
:10535000F42E3BCF981305C0AE17BF0711F49F5F23
:10536000937093012F5F3F4F822F83708CCFF0E0BB
:10537000E0E0F7CF90E0E1101FC0B10102C0660F7E
:10538000771F2A95E2F79B01215031098217930775
:1053900031F4442309F447C0C5010E942B05C10123
:1053A00001C0880F8A94EAF7982F9095F8018681BA
:1053B00089238683FE2C09CF9C01082C02C03595D9
:1053C00027950A94E2F7A90141705527BC01615065
:1053D000710986239723892B11F5452B01F1F801DB
:1053E00082819381892BC1F01B821C821D821E82C7
:1053F00049824A820E94DC048160582F9D838C83FD
:10540000F801828193818F83988729813A814B812A
:105410006D817E810E940625F8011582C0CFF22F92
:10542000F170EF2EBCCFEF2CBACF90918903809111
:105430008A03981731F00E94D925552009F433CEFC
:1054400002CF0E947D2510928C0310928B030E9444
:105450005905F3CF82E00E94950B07CECF93DF93DF
:1054600000D000D00F92CDB7DEB79093BD028093ED
:10547000BC02811520E2920748F40F900F900F9024
:105480000F900F90DF91CF910C947C0C8EEF89835D
:105490008A831B820E94DC048160782F9D838C8329
:1054A00049815A816B818D810F900F900F900F90E1
:1054B0000F90DF91CF910C94D5270F931F93CF932B
:1054C000DF938C01EB0160E672E08C2F0E943813B1
:1054D000892BA1F48091AB039091AC030E944B0DFA
:1054E000DD27C85ADD4F8881F80110821882833089
:1054F00009F148F4813059F0823081F0DF91CF9189
:105500001F910F9108958430D1F08530B9F78091C3
:10551000600290916102009789F306C08091620257
:1055200090916302009799F3DF91CF911F910F91B2
:105530000C942E2A8091640290916502F3CF8091A1
:10554000660290916702009779F72091600230918E
:105550006102809162029091630221153105D9F2B6
:10556000009711F7C901E0CFCF93DF9300D000D0AF
:105570000F92CDB7DEB79093BD028093BC02811528
:1055800020E2920748F40F900F900F900F900F9029
:10559000DF91CF910C948E0E8EEF89838A8381E008
:1055A0008B830E94DC048160782F9D838C834981EA
:1055B0005A816B818D810F900F900F900F900F90FB
:1055C000DF91CF910C94D527AF92BF92CF92DF920B
:1055D000EF92FF920F931F93CF93DF93B82EA62ED7
:1055E000C090A30480915702C82AC7E0D0E0D12C14
:1055F000F12CE12CD701C6010C2E04C0B695A7955D
:10560000979587950A94D2F780FF20C04A2D6B2D7D
:105610008C2F0E9442108C0181309105B9F00E94BC
:10562000B42A8FE39CE90197F1F700C00000C8019C
:105630000E942E2A81E0DF91CF911F910F91FF9060
:10564000EF90DF90CF90BF90AF900895219790F6A4
:105650004A2D6B2D80E00E944210EC010E94B42A7A
:105660008FE39CE90197F1F700C00000CE01E0CF85
:10567000CF93DF93EC010E94B42A8091AB03909109
:10568000AC030E944B0DCE01DF91CF910C942E2ADA
:105690000F931F93CF93DF938C01862F60E672E008
:1056A0000E943813892BC9F4C0916002D091610225
:1056B000209799F0F8018081833069F4CE010E942F
:1056C000382BCE010E94382BCE01DF91CF911F9154
:1056D0000F910C94382B8430B8F7DF91CF911F9144
:1056E0000F9108950F931F93CF93DF938C01EB01DC
:1056F00060E672E08C2F0E943813892B09F064C099
:10570000FE01FF27D8018C91E85AFD4F8130D9F472
:1057100019969C911997992311F080830CC01A96C1
:105720009C919923D1F382E08083809162029091D1
:1057300063020097D9F48091600290916102009712
:1057400009F442C013C08230E9F519968C9119977B
:1057500081112DC01A968C9181110EC083E0808337
:105760008091640290916502009719F1DF91CF91C9
:105770001F910F910C94B42A84E08083809166027B
:1057800090916702009791F7809160029091610279
:105790000097F9F00E94382B809162029091630289
:1057A000009721F78091600290916102DFCF85E040
:1057B00080838091600290916102009729F00E949D
:1057C000382BF0CF86E08083DF91CF911F910F912E
:1057D00008958091620290916302B1CF1F920F925F
:1057E0000FB60F9211242F933F934F935F936F93B4
:1057F0007F938F939F93AF93BF93CF93DF93EF9359
:10580000FF93D091E900DF708091EC00C82FC17048
:1058100080FDC0E81092E9008091F000877F8093BE
:10582000F00078940E9410141092E9008091F0002A
:1058300088608093F000CD2BCF70C093E900FF917A
:10584000EF91DF91CF91BF91AF919F918F917F9118
:105850006F915F914F913F912F910F900FBE0F90DD
:105860001F9018951F920F920FB60F9211242F932D
:105870003F934F935F936F937F938F939F93AF93D8
:10588000BF93EF93FF938091E10082FF09C0809165
:10589000E20082FF05C08091E1008B7F8093E100F0
:1058A0008091DA0080FF24C08091D80080FF20C062
:1058B0008091DA008E7F8093DA008091D90080FF9A
:1058C0009DC080E189BD82E189BD09B400FEFDCFA4
:1058D00081E08093A20480917404811109C00E9428
:1058E00017030E940A048091E20084608093E20022
:1058F0008091E10080FF17C08091E20080FF13C01B
:105900008091E2008E7F8093E2008091E2008061CE
:105910008093E2008091D80080628093D80019BC07
:1059200085E08093A2048091E10084FF2BC08091E8
:10593000E20084FF27C080E189BD82E189BD89B58D
:10594000982F917080FFFBCF8091D8008F7D80933E
:10595000D8008091E1008F7E8093E1008091E20089
:105960008F7E8093E2008091E20081608093E2006C
:1059700080919904882309F447C084E08093A204AD
:105980008091A2048091E10083FF27C08091E20012
:1059900083FF23C08091E100877F8093E10082E054
:1059A0008093A204109299048091E1008E7F8093ED
:1059B000E1008091E2008E7F8093E2008091E2001E
:1059C00080618093E20042E060E080E00E94D803C2
:1059D0008091F00088608093F000FF91EF91BF917B
:1059E000AF919F918F917F916F915F914F913F9177
:1059F0002F910F900FBE0F901F90189519BC109209
:105A0000A2041092740474CF8091E30087FD93E0A8
:105A10009093A204B5CF78941F921FB61F921124C1
:105A20008F939F93AF93BF9380916B0490916C047D
:105A3000A0916D04B0916E040196A11DB11D8093DB
:105A40006B0490936C04A0936D04B0936E04BF91AB
:105A5000AF919F918F911F901FBE1F9018951F921D
:105A60001FB61F9211248F939F93AF93BF93809182
:105A70006A04811113C080916B0490916C04A09111
:105A80006D04B0916E044196A11DB11D80936B040D
:105A900090936C04A0936D04B0936E04BF91AF918A
:105AA0009F918F911F901FBE1F901895CDB7DEB7A5
:105AB000E6970FB6F894DEBF0FBECDBF84B7877FE1
:105AC00084BF0FB6F894A895809160008861809398
:105AD0006000109260000FBE80E890E00FB6F8946E
